:100000000C94E9040C9411050C9411050C94110541
:100010000C9411050C9411050C9411050C94110508
:100020000C9411050C9411050C94C30A0C94320B1A
:100030000C9411050C9411050C9411050C941105E8
:100040000C9411050C9411050C9411050C941105D8
:100050000C9411050C9411050C9411050C94640D6D
:100060000C9411050C9411050C9411050C941105B8
:100070000C9411050C9411050C9411050C941105A8
:100080000C9411050C9411050C9411050C94110598
:100090000C9411050C9411050C9411050C94110588
:1000A0000C9411050C9411050C94110503081F05FF
:1000B0001F1F151B1F11111F110E1F15111F0501E9
:1000C0001F111D1F041F001F0010101F1F041B1FE6
:1000D00010101F061F1F011F1F111F1F05071F31B3
:1000E0001F1F051B17151D011F011F101F0F100FCC
:1000F0001F0C1F1B041B071C071915130C121E1FB6
:10010000120C1E12120C121F0C1A14041F052E2A98
:100110001E1F021C001D00201D001F041A011F00CD
:100120001E041E1E021E1E121E3E120C0C123E1E2D
:10013000020614120A020F121E101E0E100E1E08C6
:100140001E1A041A2E281E1A12161F111F001F0035
:100150001D151711151F07041F17151D1F151D014C
:10016000011F1F151F17151F0017000010000005A5
:100170000000000000003E5B4F5B3E3E6B4F6B3E5D
:100180001C3E7C3E1C183C7E3C181C577D571C1C9A
:100190005E7F5E1C00183C1800FFE7C3E7FF0018F5
:1001A000241800FFE7DBE7FF30483A060E262979DE
:1001B0002926407F050507407F05253F5A3CE73C3F
:1001C0005A7F3E1C1C08081C1C3E7F14227F2214F0
:1001D0005F5F005F5F06097F017F006689956A6047
:1001E0006060606094A2FFA29408047E040810205E
:1001F0007E201008082A1C08081C2A08081E101057
:1002000010100C1E0C1E0C30383E3830060E3E0E00
:1002100006000000000000005F000000070007006B
:10022000147F147F14242A7F2A1223130864623651
:10023000495620500008070300001C2241000041DD
:10024000221C002A1C7F1C2A08083E080800807017
:10025000300008080808080000606000201008044A
:10026000023E5149453E00427F400072494949469D
:100270002141494D331814127F1027454545393C1B
:100280004A49493141211109073649494936464908
:1002900049291E000014000000403400000008142A
:1002A00022411414141414004122140802015909A3
:1002B000063E415D594E7C1211127C7F49494936F8
:1002C0003E414141227F4141413E7F494949417F71
:1002D000090909013E414151737F0808087F004127
:1002E0007F41002040413F017F081422417F404070
:1002F00040407F021C027F7F0408107F3E41414145
:100300003E7F090909063E4151215E7F09192946B0
:10031000264949493203017F01033F4040403F1FC6
:100320002040201F3F4038403F63140814630304FB
:100330007804036159494D43007F4141410204085B
:100340001020004141417F0402010204404040402E
:1003500040000307080020545478407F2844443864
:100360003844444428384444287F385454541800AE
:10037000087E090218A4A49C787F0804047800442D
:100380007D40002040403D007F1028440000417F18
:1003900040007C047804787C0804047838444444A1
:1003A00038FC1824241818242418FC7C0804040899
:1003B000485454542404043F44243C4040207C1CB2
:1003C0002040201C3C4030403C44281028444C90A5
:1003D00090907C4464544C440008364100000077FF
:1003E0000000004136080002010204023C262326D8
:1003F0003C1EA1A161123A4040207A38545455590C
:100400002155557941215454784121555478402043
:10041000545579400C1E527212395555555939545C
:1004200054545939555454580000457C41000245F4
:100430007D420001457C40F0292429F0F028252840
:10044000F07C545545002054547C547C0A097F4963
:1004500032494949323248484832324A4848303AAB
:100460004141217A3A42402078009DA0A07D394444
:100470004444393D4040403D3C24FF2424487E49CB
:1004800043662B2FFC2F2BFF0929F620C0887E09FD
:100490000320545479410000447D413048484A3299
:1004A000384040227A007A0A0A727D0D19317D2681
:1004B00029292F28262929292630484D4020380867
:1004C00008080808080808382F10C8ACBA2F1028E8
:1004D00034FA00007B000008142A142222142A1483
:1004E000089500220095AA005500AAAA55AA55AA67
:1004F000000000FF00101010FF00141414FF001083
:1005000010FF00FF1010F010F0141414FC0014146D
:10051000F700FF0000FF00FF1414F404FC1414178C
:10052000101F10101F101F1414141F00101010F0B3
:10053000000000001F101010101F10101010F010FD
:10054000000000FF101010101010101010FF10000D
:100550000000FF140000FF00FF00001F1017000044
:10056000FC04F414141710171414F404F40000FF1E
:1005700000F714141414141414F700F714141417B7
:100580001410101F101F141414F4141010F010F095
:1005900000001F101F0000001F14000000FC1400CA
:1005A00000F010F01010FF10FF141414FF141010BE
:1005B000101F00000000F010FFFFFFFFFFF0F0F041
:1005C000F0F0FFFFFF0000000000FFFF0F0F0F0F14
:1005D0000F38444438447C2A2A3E147E0202060620
:1005E000027E027E0263554941633844443C044024
:1005F0007E201E2006027E020299A5E7A5991C2AEC
:10060000492A1C4C7201724C304A4D4D30304878AA
:100610004830BC625A463D3E494949007E010101CD
:100620007E2A2A2A2A2A44445F444440514A4440AC
:1006300040444A51400000FF0103E080FF000008F1
:10064000086B6B083612362436060F090F060000B9
:1006500018180000001010003040FF0101001F01B9
:10066000011E00191D1712003C3C3C3C000000001C
:1006700000D5F08D14A1C881CFD9F1AF2000802220
:100680000000000000000004068E8E9B59567C5826
:100690005840408080000000000000000000000082
:1006A000000000000000000000000000000000004A
:1006B000000000000000000000000000000000003A
:1006C000000000000000000000000000000000002A
:1006D000000000000000000000000000000000001A
:1006E000000000000000000000000000000000000A
:1006F00000000000000000000000000000000000FA
:100700000000000000E05C46213514D6D210161718
:10071000171016D4D51D314658E000C040800000A7
:1007200000000000804020101020408000E01010E9
:1007300010101020C000F01010101020408000F0A9
:10074000000000000000F000E0101010101020C0A9
:1007500000C0201010101020C000F00000000000A9
:10076000F000000000000000000000000000000099
:100770000000000000000000000000000000000079
:100780000000000000FF0000C00004091938F8F85C
:10079000F8F8F8F9F9F80480C043221110090E00A6
:1007A000000000007F0404040404047F007F0404AC
:1007B000040C142241007F4040404020100F001FD5
:1007C0002040404040201F007F4242424242453884
:1007D000001F2040404040201F000001027C020119
:1007E0000000000000000000000000000000000009
:1007F00000000000000000000000000000000000F9
:1008000000003070584F4020608182868E5F3F3FED
:100810003F3F3F5F8F83808877000000000000002B
:1008200000000000000000000000000000000000C8
:1008300000000000000000000000000000000000B8
:1008400000000000000000000000000000000000A8
:100850000000000000000000000000000000000098
:100860000000000000000000000000000000000088
:100870000000000000000000000000000000000078
:100880000000000000000000000000000000000068
:100890000000000000000000000000000000000058
:1008A0000000000000000000000000000000000048
:1008B0000000000000000000000000000000000038
:1008C0000000000000000000000000000000000028
:1008D0000000000000000000000000000000000018
:1008E0000000000000000000000000000000000008
:1008F00000000000000000000000000000000000F8
:1009000008083CFF42FF8DFFA1FF8DFF42FF3CFF27
:1009100000FF30FF48FF94FF84FF84FF94FF48FFEF
:1009200030FF080800FF17FFF9FF7FFF7FFF79FF07
:1009300017FF20FF20FF17FF79FF7FFF7FFFF9FFE1
:1009400017FF00FF00FF17FFFFFF47FF47FF7FFF75
:1009500017FF20FF20FF17FF7FFF47FF47FFFFFF25
:1009600017FF00FF080B000202020000090400004C
:100970000102020000052400100105240101010408
:100980002402060524060001070581031000400922
:10099000040100020A0000000705020240000007EF
:1009A0000583024000000403090412010002EF0263
:1009B0000140412336800001010203014172647548
:1009C000696E6F204C4C4300414250313330360049
:1009D000E10D11241FBECFEFDAE0DEBFCDBF12E084
:1009E000A0E0B1E0E4E7F9E202C005900D92AE317B
:1009F000B107D9F727E0AEE1B2E001C01D92A43201
:100A0000B207E1F714E0C9EED4E004C02197FE017B
:100A10000E94B214C83ED107C9F70E943E0E0C9442
:100A2000B8140C9400006F927F928F929F92AF92B5
:100A3000BF92CF92DF92EF92FF920F931F93CF93CB
:100A4000DF93DC017A014115510509F49CC0FA01DC
:100A5000149131965491F2E0EF0EF11CC12FD0E0C9
:100A6000222309F1CC24C394D12C852F877011F453
:100A7000D12CC12CE52FE695E695E695EC0DFD2DE4
:100A8000F11DEC9FC001ED9F900DFC9F900D112476
:100A9000033011F4880F991F289FF001299FF00D52
:100AA0001124EE0EFF1EFD01EC0FFD1F1E161F068A
:100AB0000CF069C0A038B1050CF065C0CB01850F02
:100AC000911D181619060CF05EC0603471050CF00B
:100AD0005AC0E114F10409F456C0362F3770CB0127
:100AE00077FD079623E0959587952A95E1F7282FBE
:100AF00077FF04C0332311F02FEF280F66277727E5
:100B00006A1B7B0BB7FD02C070E060E090E89A1BA7
:100B1000E038F1050CF4912F961BE22F022E000C09
:100B2000FF0BDE2ED0942F3F0CF0D12C41E0852F0F
:100B3000877009F440E0B52EB694B694B6944B0D88
:100B4000E40FF11D399714F048E0421BB42EBD1894
:100B50002D0D40E82403F0011124AE0FBF1FA60F96
:100B6000B71F1D9D600D711D1124A701460F571F52
:100B7000C32E032E000CDD08033009F4C7C090F427
:100B8000023009F474C0DF91CF911F910F91FF9053
:100B9000EF90DF90CF90BF90AF909F908F907F901D
:100BA0006F9008950A3FA1F1B20E0B3F61F72B152C
:100BB00051F3BD0168587D4F10E000E0091708F0BF
:100BC0009FC0FA01E00FF11FE491F0E04F010C2CFF
:100BD00002C0880C991C0A94E2F727FD06C0FB01AD
:100BE0008081F82CF0948F218083332361F02730AB
:100BF00054F47B01F0E8EF0EF11CA92CA094F7014E
:100C000080818A2180830F5F1F4F6F5F7F4FD6CF18
:100C1000B20E2B1509F4B7CFBD0168587D4F10E017
:100C200000E0091708F066C0FA01E00FF11FE49137
:100C3000F0E04F010C2C02C0880C991C0A94E2F7DA
:100C400027FD04C0FB01808188298083332351F074
:100C5000273044F47B01F0E8EF0EF11CF7018081AE
:100C6000892980830F5F1F4F6F5F7F4FDACF6FEF50
:100C700070E0032E02C0660F771F0A94E2F76095BA
:100C80007095972E8B2C820E281509F47CCF8D0140
:100C900008581D4FF12CE12CE91630F5FA01EE0D44
:100CA000FF1DE491F0E03F010C2C02C0660C771CA4
:100CB0000A94E2F727FD05C0F80180818623862982
:100CC0008083332359F027304CF45801F0E8AF0EFD
:100CD000B11CF5018081892187298083FFEFEF1AFC
:100CE000FF0A0F5F1F4FD8CF2F5F4C0F5D1FA0581B
:100CF000BF4FCACF2F5F4C0F5D1FA058BF4F89CF8A
:100D00002F5F4C0F5D1FA058BF4F51CFE92EF12C24
:100D1000FA01E60FF71FA858BD4F60E870E06E19A2
:100D20007F09CE19DF098E01000F111F41E050E04D
:100D30007A01032E01C0EE0C0A94EAF7592F4B2DCD
:100D4000892E932ECF93DF93ED01EF96EF962296A7
:100D5000A590C590992059F0AE9C5001CE9C6001A1
:100D600027302CF4F880D094FD20FB28F992222320
:100D70003AF0FC90C094FC20FA28FD920C94C10635
:100D800011965A9529F74A9551F0582D239511241B
:100D9000E00FF11DA60FB11DC60FD11DD9CFDF91F8
:100DA000CF911124F0CE90E0E8E7F2E091119FEFAF
:100DB0008FEF91939193919391938150D0F70895F0
:100DC000E8E7F2E0A0E0B8E000800EBC8111012C61
:100DD0001197A0FDFDCF0192B9F70DB40895FC0164
:100DE00080917702882311F13FB7F89482E08093D5
:100DF000E9002091F200822F90E01816190614F4F1
:100E000081E090E0882339F0289844E64093760208
:100E10004091F1004083222339F02091F20021110A
:100E200003C02BE62093E8003FBF08958FEF9FEFAC
:100E300008952FB7F89483E08093E9009091E8003B
:100E4000892F807295FF04C09091F20080E4891B85
:100E50002FBF089580916E0281110DC082E08093B2
:100E60006A0284E080936B0210926D0210926C0211
:100E700081E080936E028AE692E00895CF93DF933B
:100E80001F92CDB7DEB76983DC01ED91FC91028042
:100E9000F381E02D41E050E0BE016F5F7F4F099587
:100EA0000F90DF91CF91089583E08093E9008091C6
:100EB000F200882319F08AE38093E80008950E94E5
:100EC000190790E00895CF93DF931F92CDB7DEB757
:100ED000FC018485958597FD08C02FEF3FEF35878E
:100EE00024870F90DF91CF910895CE0101960E9443
:100EF000EF06019719F4898190E0F3CF8FEF9FEF10
:100F0000F0CF0F931F93CF93DF931F92CDB7DEB730
:100F10008C01FC018485958597FF0BC0CE0101965D
:100F20000E94EF06019771F4898190E0F80195879E
:100F30008487F801848595850F90DF91CF911F916B
:100F40000F9108958FEF9FEFF1CFFC018485958578
:100F500097FD0BC09FB7F89482E08093E9008091E1
:100F6000F2009FBF90E0019608959FB7F89482E049
:100F70008093E9008091F2009FBF90E00895409136
:100F8000640250916502209162023091630242171F
:100F90005307B4F49091E8009570E1F39091E80064
:100FA00092FD19C08093F1008091640290916502D6
:100FB00001968F739927892B19F48EEF8093E8009F
:100FC00080916402909165020196909365028093EE
:100FD000640281E0089580E00895DF92EF92FF922D
:100FE0000F931F93CF93DF93D82E8A01EB017B01E0
:100FF000E40EF51ECE15DF0559F0D7FE12C0FE0136
:1010000084910E94BF0721968111F4CF0FEF1FEF4B
:10101000C801DF91CF911F910F91FF90EF90DF906A
:1010200008958881EECF0F931F93CF93DF931F9284
:10103000CDB7DEB782E0898342E450E064E679E030
:1010400080E80E94ED070E942A07DC0112960D91AC
:101050001C910115110589F0D801ED91FC910280D8
:10106000F381E02DBE016F5F7F4FC801099597FDA9
:1010700004C0F80100851185ECCF89810F90DF91C4
:10108000CF911F910F910895615030F02091F100A0
:10109000FC0120830196F8CF289884E6809376029D
:1010A00008950895AF92BF92CF92DF92EF92FF9290
:1010B0000F931F93CF93DF936C017B018B01040F80
:1010C000151FEB015E01AE18BF08C017D10759F01C
:1010D0006991D601ED91FC910190F081E02DC6015E
:1010E0000995892B79F7C501DF91CF911F910F9158
:1010F000FF90EF90DF90CF90BF90AF900895FC01EC
:101100000E941609319728F068517C4F8F4F9F4FEE
:10111000F9CFAB01FC010E941609641775078E0711
:101120009F07C8F308958F929F92AF92BF92CF927C
:10113000DF92EF92FF920F931F93CF93DF936C0197
:101140007B018A0180910D01882309F45AC08091A6
:101150007702882309F455C08091690280FF05C099
:101160008091E00082608093E000E801B12C8AEF7A
:10117000A82E93E0892E2AE3922E209711F4BB200B
:10118000C9F10E941907811108C0AA94AA20C9F1C7
:1011900081E090E00E947F08F0CF8C171D0611F0CF
:1011A0000CF08C2F9FB7F8948092E9002091E80012
:1011B00025FD02C09FBFE1CF282F30E0C21BD30B1B
:1011C000F701815020F041914093F100FACFE20EF7
:1011D000F31EBB2021F09092E800B12CEBCF809160
:1011E000E80085FDE7CF9092E800BB24B3942097F8
:1011F00009F3F3CF5D9884E6809368021016110618
:101200003CF081E090E0F6019383828310E000E0FF
:10121000C801DF91CF911F910F91FF90EF90DF9068
:10122000CF90BF90AF909F908F900895A7E2B2E0CB
:101230002FB7F8947D918D919C9166B52FBFA89B97
:1012400005C06F3F18F47F5F8F4F9F4F22E0660FFE
:10125000771F881F991F2A95D1F708952D9A089511
:1012600090E00C947F088FB18095807F669B8860AA
:101270001C9B8460089590E1282F81E061FD84E04B
:1012800060FD880F62FD8295687F969FD0011124D2
:10129000A20FA858BD4F0C90082A40FF08260C92B8
:1012A00008957F928F929F92AF92BF92CF92DF92DA
:1012B000EF92FF920F931F93CF93DF936A30E9F47D
:1012C00080915C0290915D02089690935D028093FC
:1012D0005C0210925B0210925A0281E090E0DF9172
:1012E000CF911F910F91FF90EF90DF90CF90BF9023
:1012F000AF909F908F907F9008956D3071F3009123
:101300005A0210915B02C80104968438910508F0D6
:101310003FC0E0905C02F0905D02C7010796873401
:101320009105B0F585E0689FE0011124CF58DE4FAC
:101330006801712CC01BD10BFE01EC0DFD1DE49169
:1013400085E0781201C0E0E0912C812CAE2EB12C0A
:1013500080E8C816D10458F4B701680D791D6034CF
:10136000710528F44E2F4170C6010E943B09F5011A
:10137000F595E7958FEF881A980A88E0881691040A
:1013800029F773948FEFC81AD80A86E07812D4CF61
:101390000A5F1F4F10935B0200935A029ECFCF93B8
:1013A000C82F0E943309982F9C2381E09C1380E072
:1013B000CF91089580E00C94E0060F93CF93DF93D4
:1013C000EC019E816A3059F48D818C836985960F7A
:1013D0009E8381E090E0DF91CF910F910895262FB9
:1013E0006A3360F4603350F5613251F16E3211F1BD
:1013F00098859D5F8C81890F8C83EBCF6134C0F31E
:101400006B35D0F08FE9860F27548A3188F761E079
:10141000690F062E000C770B8C81082E000C990B9F
:101420003F810AEF313009F00BEF4CEA50E00E94A7
:101430001305DECF2FE3EBCF2154E9CF2C5FE7CFAD
:101440002EE3E5CF089590E080E008958F929F927B
:10145000AF92BF920F931F93CF93DF93CDB7DEB7B9
:10146000A1970FB6F894DEBF0FBECDBF19A24230D0
:1014700008F44AE08E010F5D1F4F842E912CB12C91
:10148000A12CA50194010E946D14E62FB901CA0197
:10149000EA3044F5E05DD801EE938D01232B242B37
:1014A000252B79F790E080E0109769F0FD0101901D
:1014B0000020E9F73197AF014A1B5B0BBD0188ECB7
:1014C00096E00E945208A1960FB6F894DEBF0FBEB8
:1014D000CDBFDF91CF911F910F91BF90AF909F90A3
:1014E0008F900895E95CD7CFFC0101900020E9F7C7
:1014F0003197AF01481B590BBC0188EC96E00C9466
:1015000052080C9425140F931F93CF93DF938C01F3
:1015100081E090E00E94810A80FF30C08AE090E084
:101520000E94810A9FEF980F9E3F40F522E330E032
:1015300030935B0220935A0228E330E030935D023F
:1015400020935C02CBE0D0E0D801ED91FC910190BA
:10155000F081E02D682FC8010995CE010E94810A13
:101560002196C131D10581F70E94DA0988EE93E016
:10157000DF91CF911F910F910C947F08DF91CF9154
:101580001F910F9108951F920F920FB60F92112481
:101590008F939F938091E1009091E100937F9093CE
:1015A000E10083FF0FC01092E90091E09093EB00FF
:1015B0001092EC0092E39093ED001092770298E085
:1015C0009093F00082FF22C093E09093E900909105
:1015D000F200992319F09AE39093E8009091680241
:1015E000992341F090916802915090936802911173
:1015F00001C05D9A90917602992341F09091760214
:10160000915090937602911101C0289A84FF18C0DE
:101610008091E2008E7E81608093E2008091E10003
:101620008F7E8093E100809169028E7E806180933D
:1016300069029F918F910F900FBE0F901F90189588
:1016400080FFF7CF8091E2008E7E80618093E20080
:101650008091E1008E7E8093E100809169028E7E10
:101660008160E5CF1F920F920FB60F921124CF9297
:10167000DF92EF92FF920F931F932F933F934F931D
:101680005F936F937F938F939F93AF93BF93EF93EA
:10169000FF93CF93DF93CDB7DEB76C97DEBFCDBF9F
:1016A0001092E9008091E80083FF25C068E0CE0138
:1016B00045960E94440882EF8093E8008D8987FF59
:1016C00039C09091E80090FFFCCF982F907609F0F8
:1016D00034C19E894F89588D2F89F88C911131C062
:1016E000803861F5809167028093F1001092F100DB
:1016F0008EEF8093E8006C960FB6F894DEBF0FBEB5
:10170000CDBFDF91CF91FF91EF91BF91AF919F91AD
:101710008F917F916F915F914F913F912F911F9189
:101720000F91FF90EF90DF90CF900F900FBE0F9032
:101730001F9018959EEF9093E800C7CF1092F1008C
:10174000D5CF913059F48111D3CF4130510581F675
:10175000809167028D7F80936702CACF933049F4EE
:101760008111C6CF4130510519F680916702826020
:10177000F2CF953041F48091E80080FFFCCF2068E3
:101780002093E300B5CF963009F0A9C00B8D1C8DD6
:1017900022E01092E9001092650210926402F212A7
:1017A0002EC010926302109262020E9413081F82E0
:1017B00099E09983FA8291E09E8390EA98879AEF64
:1017C00099872091640230916502275F3F4F3C83E7
:1017D0002B838D831092E9001092650210926402AF
:1017E000109363020093620249E050E0BE016F5F14
:1017F0007F4F80E00E94ED070E94130879CF10937D
:101800006302009362020E942A07DC0112960D9186
:101810001C910115110509F451C1D801ED91FC91FC
:101820000480F581E02DBE016B5E7F4FC8010995F4
:10183000009709F03EC1F80100851185EACFF3E079
:10184000FF120EC08F89882309F440C0823061F4F2
:1018500040E867E088EC99E00E94AE0D811148CF26
:1018600081E28093EB0047CF813029F440E86BE0C0
:101870008CEB99E0F1CF833099F70E942A07DC01C5
:101880001296ED90FC908E010F5F1F4F6801E114DE
:10189000F10479F0D701ED91FC910680F781E02DFC
:1018A000B801C7010995080F111DF701E084F18403
:1018B000EECFD8011C92F60101900020E9F7319794
:1018C000BF016C197D0940E0C601C6CF66EA79E028
:1018D000FB01449150E080E80E94ED0709CF97306A
:1018E00009F4BECF983021F481E08093F10000CF5D
:1018F000993009F0FDCE837009F0B2CFE3EDF1E04D
:1019000081E031E096E32191222371F08093E90098
:101910003093EB00DF0111972C912093EC00909312
:10192000ED008F5F873079F78EE78093EA001092A1
:10193000EA008F8980937702DBCE8B8D9C8D10928D
:10194000E900109265021092640290936302809302
:101950006202898D811192C08E899D89913A49F4E4
:10196000813209F07DCF47E050E066E071E080E031
:10197000B3CF913209F074CF833269F48F89988D97
:10198000B0E0A0E08093020190930301A0930401D2
:10199000B0930501ADCE803269F48091E80082FFFA
:1019A000FCCF67E086E091E00E9444088BEF8093D3
:1019B000E8009ECE823209F09BCE8F8980930D0184
:1019C000EEEFFFE7859194918B3F9C4D51F1E0E064
:1019D000F8E08091060190910701A0910801B09173
:1019E0000901803B9440A105B105F1F480910D01FE
:1019F00080FD1AC0EE3F8AE0F80789F587E797E790
:101A000091838083809160008093660288E19BE0EF
:101A10000FB6F894A895809360000FBE9093600075
:101A200067CEEEEFFAE0D5CF808191818737974777
:101A300009F05ECEA8958091600088618093600077
:101A40008091660280936000EE3F2AE0F20789F001
:101A50008091FE0A9091FF0A9183808349CE808114
:101A600091818737980751F29093FF0A8093FE0A7D
:101A7000C5CF1092FF0A1092FE0A3ACE0E942A07A2
:101A8000DC0112960D911C910115110509F4E8CEA7
:101A9000D801ED91FC910190F081E02DBE016B5ECB
:101AA0007F4FC8010995811123CEF801008511856A
:101AB000EBCF181619060CF41BCED2CEF1E0FF12B4
:101AC000BECE6AEA79E004CF0F920FB68F939F9350
:101AD000EF93FF93809126028D5F8D3708F08D572D
:101AE00080932602EDE2F2E080818E4F8083918127
:101AF0009F4F918382818F4F828383818F4F838316
:101B0000E7E2F2E080818F5F808381818F4F818364
:101B100082818F4F828383818F4F83838FB18F60C8
:101B200066991C9B88278F3681F480912502981B2B
:101B3000963068F0E0E0F8E087E78083818388E111
:101B400080936000F0936000FFCF90932502FF9197
:101B5000EF919F918F910FBE0F901895EF92FF928A
:101B60000F931F93CF93DF93F82E192FE62E042F98
:101B700081E0860F880F0E94BF0783E00E94BF07A5
:101B8000CF2DD12FEC0EFD2EF11CCE15DF05B9F0B7
:101B900007FF13C0FE0184910E94BF07182F80E049
:101BA0000E94BF07812321968111EFCFDF91CF9152
:101BB0001F910F91FF90EF9008958881EDCF81E004
:101BC000F5CF10927B0610927A0688EE93E0A0E0A3
:101BD000B0E080937C0690937D06A0937E06B09340
:101BE0007F068DED91E090937906809378068FEFD4
:101BF0009FEF909385068093840682E380931D0770
:101C000010921F071092200782E080932107109204
:101C1000220783E080932307E6EDF6E022E392E0DB
:101C20002683108611869287138684873D9637E037
:101C3000E731F307A9F71092D5061092D4068BEF7F
:101C400091E09093D3068093D2061092CB06109227
:101C5000CA068FEE91E09093C9068093C80688E08B
:101C60008093D10681E08093D0061092CD06109229
:101C7000CE061092CC068093CF060895CDB7DEB77E
:101C80002A97DEBFCDBF789483E084BD83E085BD15
:101C900081E080936E00E1E8F0E083E08083E0E89B
:101CA00081E08083E1E983E08083E0E981E0808373
:101CB000E1EC87E08083E3EC81E08083E0EC82E08C
:101CC0008083E2EC81E08083EAE787E080838068BC
:101CD00080831092770210926702109269028091BD
:101CE000D70081608093D70080EA8093D80089B5BF
:101CF000806189BD89B5826089BD09B400FEFDCFD0
:101D000081E090E00E947F088091D8008F7C806104
:101D10008093D8008091E000807F8093E0008091E4
:101D2000E1008E7E8093E1008DE08093E200559A81
:101D3000209A81EC80937C0081EF85B987EE84B98D
:101D400084E38BB984EF8AB9769A6E9880EF81BB71
:101D500010BA80E58CBD81E08DBD85E00E94300920
:101D60005F9A85E00E9430095C98E1E7F6E0859192
:101D70008EBD00000DB407FEFDCFEE37C1F75C9AB3
:101D800081E88093640081E0809365000E94E00612
:101D900080E80E94CF098823A9F05C9885EA8EBD6F
:101DA00000000DB407FEFDCF5C9A2E982F982D9859
:101DB0008091640080628093640081E083BF889595
:101DC00013BEFCCF84E00E94CF09882309F445C0EC
:101DD0002D9884E80E94CF098823D9F00E942E090B
:101DE00088EC0E9430092F9882E090E00E94251430
:101DF0008F3F29F06FEF82E090E00E942D1484EF76
:101E000091E00E947F082F9A84E80E94CF098111F7
:101E1000FBCF84E10E94CF098823D9F00E942E09CC
:101E200088EC0E9430092E9882E090E00E942514F0
:101E3000882329F060E082E090E00E942D1484EF76
:101E400091E00E947F082E9A84E10E94CF098111BF
:101E5000FBCF88EC0E943009B5CF0E942E0982E0AA
:101E600090E00E94810A882309F479C03E9A3F9A43
:101E700081E090E00E94810A182F147081FF10C049
:101E800011112E9821EF3FEF3A83298380E40E94BD
:101E9000CF09882309F466C02E9A2F9A0E942E0932
:101EA00082E30E9430090E9433098111F9CF80E159
:101EB000809300010E94D30610925D0210925C0292
:101EC00010925B0210925A020E94DA0986E392E0B5
:101ED0009A8389832FEF3FEF83E0E981FA81318391
:101EE0002083848385833796FA83E983E955F2401A
:101EF000A1F72AE037E0A6ED2A2EA6E03A2E89E0E7
:101F0000F101848385831086FDE02F0E311C22159C
:101F10003305B1F780E490E090931807809317079A
:101F200080E290E090931A078093190788E08093ED
:101F30001B0780931C071092600210925F0281E0E1
:101F400080935E0280912B028823E1F110922B0294
:101F500080E090E0892BB1F30E940000F3CF3E981F
:101F60003F9886CF112339F049815A814430510579
:101F700011F42E9A2F9881E00E94E00602E020E002
:101F80004EE756E069817A8184E190E00E94130572
:101F90000E94DA098FE00E94300969817A816F5FBF
:101FA0007F4F7A8369836931710509F06FCF1123FF
:101FB00011F02F9A2D9880E991E00E947F080E94ED
:101FC0002E096ECF90912D0280912C02F92EF81AD5
:101FD0008F2D20910001F21648F48F5F821708F0D0
:101FE000B7CF81E083BF889513BEB2CF81E08093E5
:101FF0002B0290932C02E3E3F2E080819181019621
:10200000808391830E94D30610925D0210925C023D
:1020100010925B0210925A0280E80E94CF09882336
:10202000B1F0809133029091340265E070E00E943B
:102030009E14892B09F437C180912207909159028F
:1020400091113FC3823090F0109222070FC080E1BF
:102050000E94CF098111E5CF80E20E94CF09811152
:10206000E0CF80E40E94CF098111DBCF8091330261
:102070009091340287709927E6EDF6E02AE0009708
:1020800019F433853F5F33873385323008F0138688
:1020900021503D962111F3CF0E94330980933502E0
:1020A00080E80E94CF09882389F0809119079091D8
:1020B0001A071816190654F4019790931A0780937B
:1020C000190710921E0781E08093590280E10E9457
:1020D000CF09882389F08091190790911A078833D6
:1020E000910554F4019690931A078093190782E0A2
:1020F00080931E071092590280E20E94CF09882324
:1021000079F080911707909118071816190644F472
:102110000197909318078093170783E080931E0719
:1021200080E40E94CF09882379F08091170790916D
:1021300018078837910544F4019690931807809307
:10214000170781E080931E0788E00E94CF0988234B
:1021500099F08091610281110FC0E6E3F2E090E016
:1021600080E0208131812F3F3F4F09F4B1C20196B9
:10217000379685309105A9F7E6EDF6E010E000E02E
:102180008085811196C00E94CD132DE0209FF00123
:10219000219FF00D1124EA52F94FFD83EC83209129
:1021A0000101248721E0208720E330E040E050E077
:1021B0000E943B1470E0660F771FFB01EE58FE4F44
:1021C00080819181EC81FD81918380836E5E7E4F61
:1021D000FB0180819181EC81FD8193838283E6ED17
:1021E0004E2EE6E05E2EF2016281738103E02385CC
:1021F00040E059E0808191810E941305FDE04F0E7F
:10220000511C4214530479F78091330290913402A7
:102210006FE070E00E949E14892B09F073C020913A
:102220001707309118073D832C83009119071091EF
:102230001A07E6EDF6E0F12CA6EDB6E0E12CFE146F
:1022400009F457C0808191814D915C91119724814F
:10225000280F392F311D42175307ECF414962C9197
:102260001497420F511D84179507ACF44281538196
:1022700012966D917C9113972581240F352F311D76
:102280006217730744F415962C911597620F711D10
:1022900046175707B4F04C815D81841795070CF4FD
:1022A0009DC001979CC0809122078F5F8093220779
:1022B000C3CE0F5F1F4F3D960430110509F060CF6C
:1022C0008ECF0497918380838D919C911197049672
:1022D00011969C938E93828193810497938382833A
:1022E00012968D919C911397049613969C938E93BE
:1022F0001297E3941D9654E0E512A1CFF3943D9616
:10230000F5129ACF20911E0766E372E07D836C83FD
:10231000EC81FD812683808191818F3F9807F1F0C8
:10232000213009F069C00196EC81FD8191838083A1
:10233000EC81FD8180819181803891054CF4892B5D
:1023400039F0828193818034910514F4892B31F422
:102350004FEF5FEFEC81FD81518340836C817D8184
:10236000695F7F4F7D836C8389819A818617970788
:1023700079F676E3E72E72E0F72EF70100811181FE
:102380000F3F100709F452C0F701A280B380380153
:10239000F3E06F0E711C450123E0820E911C0615BF
:1023A000170509F443C06501B7FE02C0D12CC12C4A
:1023B000C40131E48316910414F080E490E0C8165F
:1023C000D9068CF50038110528F441E0B601C801A2
:1023D0000E943B094FEFC41AD40AEACF01969183B9
:1023E0008083828193818017910724F401969383DF
:1023F00082837FCF0197FBCF233011F4019794CFD5
:10240000211108C0EC81FD81828193810197938322
:1024100082838ECF223009F08BCFEC81FD818281C7
:1024200093810196F4CF0F5F1F4FB9CF57E0E50EB0
:10243000F11C6C817D81E616F70609F09ECF809134
:102440006102882319F081508093610280911D07F9
:10245000882319F0815080931D07609119077091AE
:102460001A0703E02091220742E259E08091170702
:10247000909118070E94130590915E0280910101CE
:102480008090170790901807A0901907B0901A072E
:1024900020911B07F401E20FF11DFA87E987609094
:1024A0001C076A0C7B2C711CC0903102D090320248
:1024B00020915F023091600240911D0750912307E7
:1024C000E6EDF6E06485161674F0953021F486305A
:1024D00040F48F5F06C09A30D1F39F30C1F394313E
:1024E000B1F310869F5FA081B18164816A0F7B2F59
:1024F000711D86169706FCF469857A85A617B707BD
:10250000D4F4A281B38165816A0F7B2F711DA61659
:10251000B7068CF4A615B70574F441110CC07FEF13
:10252000C71AD70A151634F451502B30310510F064
:102530002A50310942E3A6E3B2E065E0E62E4111FC
:1025400041C06D917C9111977D836C8300811181D5
:1025500014967C911497F72E6C817D816F0D711DFF
:10256000061717077CF56481060F111D6C817D81AC
:10257000601771073CF512966D917C9113977D83DE
:102580006C830281138115967C911597F72E6C81CF
:102590007D816F0D711D06171707A4F46581060F65
:1025A000111D6C817D816017710764F42F5F3F4FAF
:1025B0006485161614F4615064876FEF7FEF1196EF
:1025C0007C936E93EA941796E110B9CF3D964E1620
:1025D0005F0609F077CF40931D0750932307309390
:1025E000600220935F02D0923202C0923102909337
:1025F0005E02809301011092CD061092CC061092DB
:10260000CE0685E092E00E94740A88E18093CD06B0
:102610008093CC061092CE0660915F0270916002AA
:1026200090E080E04AE00E94260A1092CD061092C7
:10263000CC0676E07093CE068EE092E00E94740A9B
:1026400082E18093CD068093CC0686E08093CE060F
:10265000C09023070C2C000CDD08EE08FF084AE0B0
:10266000C701B601F7FE0DC06DE288EC96E00E944E
:10267000DD0966277727CB016C197D098E099F0933
:102680004AE00E94260A1092CD061092CC069CE0E9
:102690009093CE0685E192E00E94740A85E18093D2
:1026A000CD068093CC06ECE0E093CE0660915E020E
:1026B00070E090E080E04AE00E94260A0E94DA0979
:1026C00047CC843008F4D2CC82E080932207CECC71
:1026D00027E0289FF001299FF00D1124EA5CFD4FAF
:1026E0008091170790911807918380838091190733
:1026F00090911A070396938382838AE08093610204
:102700003BCD8F929F92AF92BF92CF92DF92EF928A
:10271000FF92CF93DF93EC01688179818A819B815D
:10272000611571058105910521F464E279ED8BE570
:1027300097E02DE133EF41E050E00E943B14490166
:102740005A019B01AC01A7EAB1E40E945A146B0143
:102750007C01ACEEB4EFA50194010E946814C60E92
:10276000D71EE81EF91EF7FE06C081E0C81AD10880
:10277000E10880E8F80AC882D982EA82FB82C701B0
:10278000B6019F77DF91CF91FF90EF90DF90CF90D0
:10279000BF90AF909F908F9008958F929F92AF922D
:1027A000BF92CF92DF92EF92FF9260910E017091F3
:1027B0000F01809110019091110161157105810542
:1027C000910521F464E279ED8BE597E02DE133EF9B
:1027D00041E050E00E943B1449015A019B01AC01C9
:1027E000A7EAB1E40E945A146B017C01ACEEB4EF8D
:1027F000A50194010E946814C60ED71EE81EF91E9A
:10280000F7FE06C081E0C81AD108E10880E8F80A9E
:10281000C0920E01D0920F01E0921001F0921101CE
:10282000C701B6019F77FF90EF90DF90CF90BF90E8
:10283000AF909F908F90089560930E0170930F0159
:1028400080931001909311010895F999FECF92BDE4
:1028500081BDF89A992780B50895262FF999FECF62
:102860001FBA92BD81BD20BD0FB6F894FA9AF99AAD
:102870000FBE01960895052E97FB1EF400940E944A
:10288000521457FD07D00E946D1407FC03D04EF47C
:102890000C94521450954095309521953F4F4F4FD1
:1028A0005F4F089590958095709561957F4F8F4FFC
:1028B0009F4F08950E948F14A59F900DB49F900D77
:1028C000A49F800D911D11240895B7FF0C945A14F4
:1028D0000E945A14821B930B0895A1E21A2EAA1B80
:1028E000BB1BFD010DC0AA1FBB1FEE1FFF1FA217C0
:1028F000B307E407F50720F0A21BB30BE40BF50BBD
:10290000661F771F881F991F1A9469F76095709545
:10291000809590959B01AC01BD01CF010895A29FC8
:10292000B001B39FC001A39F700D811D1124911DA3
:10293000B29F700D811D1124911D0895AA1BBB1B10
:1029400051E107C0AA1FBB1FA617B70710F0A61BAF
:10295000B70B881F991F5A95A9F780959095BC01D0
:10296000CD010895EE0FFF1F0590F491E02D09941D
:04297000F894FFCF09
:102974001003FFFFFFFF00E1000000000000010062
:102984000000F8FFF8FFF8FFF8FFF8FFF8FFF8FF82
:10299400F8FFF8FFF8FFF8FFF8FFF8FFF8FFF8FF7B
:1029A400F8FFF8FF0800100018002000280030008D
:1029B400380040004000400040004000400040001B
:1029C4004000400040004000400040004000400003
:1029D400400040003800300028002000180010009B
:1029E4000800000008001000180020002800300033
:1029F4003800400048005000580060006800700033
:102A040078008000820082008200820082008200BE
:102A14008200800078007000680060005800500058
:102A24004800400038003000280020001800100042
:102A340008000000F8FFF8FFF8FFF8FFF8FFF8FFC0
:102A4400F8FF00C18081000000000000003E0793F1
:102A5400085F075407A5076307810700000000DD2E
:102A6400095208230A220A000000005109520823CF
:102A74000A220A830A506F696E74733A20004C6903
:0E2A840066653A20004C6576656C3A200000CD
:00000001FF
