:020000040000FA
:100000000C9427090C944F090C944F090C944F0938
:100010000C944F090C944F090C944F090C944F0900
:100020000C944F090C944F090C94A4100C941311C8
:100030000C944F090C944F090C944F090C944F09E0
:100040000C944F090C944F090C944F090C944F09D0
:100050000C944F090C944F090C944F090C944513C0
:100060000C944F090C944F090C944F090C944F09B0
:100070000C944F090C944F090C944F090C944F09A0
:100080000C948F130C944F090C944F090C944F0946
:100090000C944F090C944F090C944F090C944F0980
:1000A0000C944F090C944F090C944F0903081F0539
:1000B0001F1F151B1F11111F110E1F15111F0501E9
:1000C0001F111D1F041F001F0010101F1F041B1FE6
:1000D00010101F061F1F011F1F111F1F05071F31B3
:1000E0001F1F051B17151D011F011F101F0F100FCC
:1000F0001F0C1F1B041B071C071915130C121E1FB6
:10010000120C1E12120C121F0C1A14041F052E2A98
:100110001E1F021C001D00201D001F041A011F00CD
:100120001E041E1E021E1E121E3E120C0C123E1E2D
:10013000020614120A020F121E101E0E100E1E08C6
:100140001E1A041A2E281E1A12161F111F001F0035
:100150001D151711151F07041F17151D1F151D014C
:10016000011F1F151F17151F0017000010000005A5
:100170000000000000003E5B4F5B3E3E6B4F6B3E5D
:100180001C3E7C3E1C183C7E3C181C577D571C1C9A
:100190005E7F5E1C00183C1800FFE7C3E7FF0018F5
:1001A000241800FFE7DBE7FF30483A060E262979DE
:1001B0002926407F050507407F05253F5A3CE73C3F
:1001C0005A7F3E1C1C08081C1C3E7F14227F2214F0
:1001D0005F5F005F5F06097F017F006689956A6047
:1001E0006060606094A2FFA29408047E040810205E
:1001F0007E201008082A1C08081C2A08081E101057
:1002000010100C1E0C1E0C30383E3830060E3E0E00
:1002100006000000000000005F000000070007006B
:10022000147F147F14242A7F2A1223130864623651
:10023000495620500008070300001C2241000041DD
:10024000221C002A1C7F1C2A08083E080800807017
:10025000300008080808080000606000201008044A
:10026000023E5149453E00427F400072494949469D
:100270002141494D331814127F1027454545393C1B
:100280004A49493141211109073649494936464908
:1002900049291E000014000000403400000008142A
:1002A00022411414141414004122140802015909A3
:1002B000063E415D594E7C1211127C7F49494936F8
:1002C0003E414141227F4141413E7F494949417F71
:1002D000090909013E414151737F0808087F004127
:1002E0007F41002040413F017F081422417F404070
:1002F00040407F021C027F7F0408107F3E41414145
:100300003E7F090909063E4151215E7F09192946B0
:10031000264949493203017F01033F4040403F1FC6
:100320002040201F3F4038403F63140814630304FB
:100330007804036159494D43007F4141410204085B
:100340001020004141417F0402010204404040402E
:1003500040000307080020545478407F2844443864
:100360003844444428384444287F385454541800AE
:10037000087E090218A4A49C787F0804047800442D
:100380007D40002040403D007F1028440000417F18
:1003900040007C047804787C0804047838444444A1
:1003A00038FC1824241818242418FC7C0804040899
:1003B000485454542404043F44243C4040207C1CB2
:1003C0002040201C3C4030403C44281028444C90A5
:1003D00090907C4464544C440008364100000077FF
:1003E0000000004136080002010204023C262326D8
:1003F0003C1EA1A161123A4040207A38545455590C
:100400002155557941215454784121555478402043
:10041000545579400C1E527212395555555939545C
:1004200054545939555454580000457C41000245F4
:100430007D420001457C40F0292429F0F028252840
:10044000F07C545545002054547C547C0A097F4963
:1004500032494949323248484832324A4848303AAB
:100460004141217A3A42402078009DA0A07D394444
:100470004444393D4040403D3C24FF2424487E49CB
:1004800043662B2FFC2F2BFF0929F620C0887E09FD
:100490000320545479410000447D413048484A3299
:1004A000384040227A007A0A0A727D0D19317D2681
:1004B00029292F28262929292630484D4020380867
:1004C00008080808080808382F10C8ACBA2F1028E8
:1004D00034FA00007B000008142A142222142A1483
:1004E000089500220095AA005500AAAA55AA55AA67
:1004F000000000FF00101010FF00141414FF001083
:1005000010FF00FF1010F010F0141414FC0014146D
:10051000F700FF0000FF00FF1414F404FC1414178C
:10052000101F10101F101F1414141F00101010F0B3
:10053000000000001F101010101F10101010F010FD
:10054000000000FF101010101010101010FF10000D
:100550000000FF140000FF00FF00001F1017000044
:10056000FC04F414141710171414F404F40000FF1E
:1005700000F714141414141414F700F714141417B7
:100580001410101F101F141414F4141010F010F095
:1005900000001F101F0000001F14000000FC1400CA
:1005A00000F010F01010FF10FF141414FF141010BE
:1005B000101F00000000F010FFFFFFFFFFF0F0F041
:1005C000F0F0FFFFFF0000000000FFFF0F0F0F0F14
:1005D0000F38444438447C2A2A3E147E0202060620
:1005E000027E027E0263554941633844443C044024
:1005F0007E201E2006027E020299A5E7A5991C2AEC
:10060000492A1C4C7201724C304A4D4D30304878AA
:100610004830BC625A463D3E494949007E010101CD
:100620007E2A2A2A2A2A44445F444440514A4440AC
:1006300040444A51400000FF0103E080FF000008F1
:10064000086B6B083612362436060F090F060000B9
:1006500018180000001010003040FF0101001F01B9
:10066000011E00191D1712003C3C3C3C000000001C
:1006700000D5F08D14A1C881CFD9F1AF2000802220
:100680000000000000000004068E8E9B59567C5826
:100690005840408080000000000000000000000082
:1006A000000000000000000000000000000000004A
:1006B000000000000000000000000000000000003A
:1006C000000000000000000000000000000000002A
:1006D000000000000000000000000000000000001A
:1006E000000000000000000000000000000000000A
:1006F00000000000000000000000000000000000FA
:100700000000000000E05C46213514D6D210161718
:10071000171016D4D51D314658E000C040800000A7
:1007200000000000804020101020408000E01010E9
:1007300010101020C000F01010101020408000F0A9
:10074000000000000000F000E0101010101020C0A9
:1007500000C0201010101020C000F00000000000A9
:10076000F000000000000000000000000000000099
:100770000000000000000000000000000000000079
:100780000000000000FF0000C00004091938F8F85C
:10079000F8F8F8F9F9F80480C043221110090E00A6
:1007A000000000007F0404040404047F007F0404AC
:1007B000040C142241007F4040404020100F001FD5
:1007C0002040404040201F007F4242424242453884
:1007D000001F2040404040201F000001027C020119
:1007E0000000000000000000000000000000000009
:1007F00000000000000000000000000000000000F9
:1008000000003070584F4020608182868E5F3F3FED
:100810003F3F3F5F8F83808877000000000000002B
:1008200000000000000000000000000000000000C8
:1008300000000000000000000000000000000000B8
:1008400000000000000000000000000000000000A8
:100850000000000000000000000000000000000098
:100860000000000000000000000000000000000088
:100870000000000000000000000000000000000078
:100880000000000000000000000000000000000068
:100890000000000000000000000000000000000058
:1008A0000000000000000000000000000000000048
:1008B0000000000000000000000000000000000038
:1008C0000000000000000000000000000000000028
:1008D0000000000000000000000000000000000018
:1008E0000000000000000000000000000000000008
:1008F00000000000000000000000000000000000F8
:1009000008083CFF42FF8DFFA1FF8DFF42FF3CFF27
:1009100000FF30FF48FF94FF84FF84FF94FF48FFEF
:1009200030FF7810C0F0F0FCFEFE0E0EFCFC000064
:100930000000E0E0F030303030F0F0F0C0000000B7
:10094000C0C0F0F0C0C000C0C0F0C0C00000E0E017
:10095000F0F0F0F0F0E0E0C0000000000000000067
:100960000000000000000000C0F0F0FC3C3C3CFC3B
:10097000F0F000000000E0F0F0E000000000F0F017
:10098000E0000000E0F0F0F0F0F0F0E0C0C00000A7
:1009900000C0E0E0F0303030F0E0E0C01FFFFFFFCB
:1009A000FFFF809071710000001F7F7FFF7018189B
:1009B00070FFFFFF7F0000001F1FFF7F0F0F1E0F44
:1009C0000FFF7F7F00007F7FFF99999989616161A7
:1009D0000000000000000000000000000000000017
:1009E0001FFFFFFF808080FF7F7F1F000000071F29
:1009F0001FFFF8F8F0781F1F0F0000007FFFFF991E
:100A00009999896161610000007FFFFFFF18181844
:100A10007EEFEF87190800FF0CFF1EFF3EFF7CFFF3
:100A20003EFF1EFF0CFF00FF18FF3CFF7CFFF8FF9E
:100A30007CFF3CFF18FF00FF0CFF1EFF3EFF7CFF0A
:100A40003EFF1EFF0CFF00FF00FF18FF3CFF7CFF76
:100A5000F8FF7CFF3CFF18FF00FF0CFF1EFF3EFF6E
:100A60007CFF3EFF1EFF0CFF00FF18FF3CFF7CFFDA
:100A7000F8FF7CFF3CFF18FF00FF080800FF17FF8E
:100A8000F9FF7FFF7FFF79FF17FF20FF20FF17FF90
:100A900079FF7FFF7FFFF9FF17FF00FF00FF17FFC0
:100AA000FFFF47FF47FF7FFF17FF20FF20FF17FFD4
:100AB0007FFF47FF47FFFFFF17FF00FF60100000A9
:100AC000C0C0C0C000C0C0C0C000C0C000000000A6
:100AD00000C0C0000000C0C0000000000000000016
:100AE000C02090D09020C00000000000C0C0C0C056
:100AF000C0C000C0C0C0C000000000000000C0C0F6
:100B0000000000C0C0C0C0C0C0000000C0C00000E5
:100B100000C0C0C0C000C0C0C0C0C0C00000000055
:100B20000F0F0303000F0F0000000F0F0F0F0C0C2F
:100B3000000C0C0F0F000C0C0F0F00000000000049
:100B400003060D0C0D0603000000000000000F0F4F
:100B50000000000F0F0C0C0F0F00000000000C0C29
:100B60000F0F0000000F0F0000000F0F03030F0F07
:100B7000000F0F00000000000F0F00000000000039
:100B8000C0C0C0C000C0C0C0C000C0C000000000E5
:100B900000C0C0000000C0C0000000000000000055
:100BA000E010C868C810E00000000000C0C0C0C06D
:100BB000C0C000C0C0C0C000000000000000C0C035
:100BC000000000C0C0C0C0C0C0000000C0C0000025
:100BD00000C0C0C0C000C0C0C0C0C0C00000000095
:100BE0000F0F0303000F0F0000000F0F0F0F0C0C6F
:100BF000000C0C0F0F000C0C0F0F00000000000089
:100C000003050A0A0A0503000000000000000F0F98
:100C10000000000F0F0C0C0F0F00000000000C0C68
:100C20000F0F0000000F0F0000000F0F03030F0F46
:100C3000000F0F00000000000F0F000000006028F0
:100C40000000C0E0F03030E0000000C0E0E0E0E094
:100C5000C000000000C0E0E0E0E0C000000000C014
:100C6000E0E0E0E0E0C0000000E0E0C0000080C0A4
:100C7000C0C0C08000000080C0C0C0C0C0C0800034
:100C80000000000000000000000000000000000064
:100C90000000000000000000000000000000000054
:100CA000001F7F7F7F40403300001F7F7F40407FD9
:100CB0003F1E00001F7F7F40407F3F1E0000072F28
:100CC000073F7F7F071F0700003F7F7F00003F7FB8
:100CD0005B5B4B2323000037776742667E7C3900DD
:100CE0000000000000000000000000000000000004
:100CF00000000000000000000000000000000000F4
:100D000000000000000000040000000000000000DF
:100D100000000000000000000000000000000000D3
:100D200000000080C0C0C0C0C0C00000000080C083
:100D3000C0C0C0C0800000000080C0C0C0C0C08073
:100D40000000000080C0C0C0C0C0C00000000000A3
:100D500080C0C0C080000000C0C0800000C0800013
:100D60000000000000000000000000000000000083
:100D70000000000000000000000000000000000073
:100D800000003E7FFF301830FFFF7F00000E0F0F86
:100D90007FFFFF0F0F0E00000E0F0F7FFFFF0F0FE3
:100DA0000E00003E7FFF301830FFFF7F00003CFF49
:100DB000FFFF80806700007FFFFF7F1C3FF763001D
:100DC0000000000000000000000000000000000023
:100DD0000000000000000000000000000000000013
:100DE0000000010000000000000000000000000002
:100DF00000000000000000000000000000000000F3
:100E000000000000000000000000000000000000E2
:100E100003000000000000000000000000000000CF
:100E20000000C0E0F03030E0000000C0E0E0E0E0B2
:100E3000C000000000C0E0E0E0E0C000000000C032
:100E4000E0E0E0E0E0C0000000E0E0C0000080C0C2
:100E5000C0C0C08000000080C0C0C0C0C0C0800052
:100E60000000000000000000000000000000000082
:100E70000000000000000000000000000000000072
:100E8000001F7FFF7F4040B300001F7F7F40407FF7
:100E90003F1E00001F7F7F40407F3F1E00000787EE
:100EA000073F7F7F07872700003F7F7F00003F7F4E
:100EB0005B5B4B2323000037776742667E7C3900FB
:100EC0000000000000000000000000000000000022
:100ED0000000000000000000000000000000000012
:100EE0000000000100000000000000000000000001
:100EF00000000000000000000000000000000004EE
:100F0000000010A0C0C1C0C0C0C00000000080C070
:100F1000C0C0C0C0800000000080C0C0C0C0C08091
:100F20000000000080C0C0C0C0C0C00000000000C1
:100F300080C0C0C080000000C0C0800000C0800031
:100F400000000000000000000000000000000000A1
:100F50000000000000000000000000000000000091
:100F600000003E7FFF301830FFFF7F00000E0F0FA4
:100F70007FFFFF0F0F0E00000E0F0F7FFFFF0F0F01
:100F80000E00003E7FFF301830FFFF7F00003CFF67
:100F9000FFFF80806700007FFFFF7F1C3FF763003B
:100FA0000000000000000000000000000000000041
:100FB0000000000000000000000000000000000031
:100FC0000000100002000000000204000000000009
:100FD0000000000000000000000000000000000011
:100FE0000000000000000000000000000000000001
:100FF00018000000010000000000000000000000D8
:101000000000C0E0F03030E0000000C0E0E0E0E0D0
:10101000C000000000C0E0E0E0E0C000000000C050
:10102000E0E0E0E0E0C0000000E0E0C0000080C0E0
:10103000C0C0C08000000080C0C0C0C0C0C0800070
:1010400000000000000000000000000000000000A0
:101050000000000000000000000000000000000090
:10106000001F7F7F7F40403300001F7F7F40407F15
:101070003F1E00001F7F7F40407F3F1E0000072F64
:10108000073F7F7F07070700003F7F7F00003F7F0C
:101090005B5B4B2323000037776742667E7C390019
:1010A0000000000000000000000000000000000040
:1010B0000000000000000000000000000000000030
:1010C00000000060000000080000000000000000B8
:1010D0000000000000000000000000000000000010
:1010E00000020180C0F0C0C0C0C00000000080C08D
:1010F000C0C0C0C0800000000080C0C0C0C0C080B0
:101100000000000080C0C0C0C0C0C00000000000DF
:1011100080C0C0C080000000C0C0800000C080004F
:1011200000000000000000000000000000000000BF
:1011300000000000000000000000000000000000AF
:1011400000003E7FFF301830FFFF7F00000E0F0FC2
:101150007FFFFF0F0F0E00000E0F0F7FFFFF0F0F1F
:101160000E00003E7FFF301830FFFF7F00003CFF85
:10117000FFFF80806700007FFFFF7F1C3FF7630059
:10118000000000000000000000000000000000005F
:10119000000000000000000000000000000000004F
:1011A000000001000400000000100000000000002A
:1011B000000000000000000000000000000000002F
:1011C000000000000000000000000000000000001F
:1011D0000000000008000000000000000000000007
:1011E000080B0002020200000904000001020200D4
:1011F0000005240010010524010101042402060554
:1012000024060001070581031000400904010002C3
:101210000A000000070502024000000705830240A3
:1012200000000403090412010002EF0201404123FF
:10123000368000010102030141726475696E6F20FE
:101240004C4C4300414250313330360023141124BA
:101250001FBECFEFDAE0DEBFCDBF12E0A0E0B1E00D
:10126000ECE4F6E302C005900D92AE31B107D9F778
:1012700027E0AEE1B2E001C01D92A934B207E1F768
:1012800019E0C7E2D9E004C02197FE010E941E1BAD
:10129000C632D107C9F70E9490140C94241B0C94F9
:1012A00000008091340208956F927F928F929F92F6
:1012B000AF92BF92CF92DF92EF92FF920F931F9364
:1012C000CF93DF93DC017A014115510509F49CC0ED
:1012D000FA01149131965491F2E0EF0EF11CC12FF6
:1012E000D0E0222309F1CC24C394D12C852F877020
:1012F00011F4D12CC12CE52FE695E695E695EC0D81
:10130000FD2DF11DEC9FC001ED9F900DFC9F900DF8
:101310001124033011F4880F991F289FF001299F91
:10132000F00D1124EE0EFF1EFD01EC0FFD1F1E1629
:101330001F060CF069C0A038B1050CF065C0CB01E8
:10134000850F911D181619060CF05EC060347105EA
:101350000CF05AC0E114F10409F456C0362F37706E
:10136000CB0177FD079623E0959587952A95E1F7C0
:10137000282F77FF04C0332311F02FEF280F6627A3
:1013800077276A1B7B0BB7FD02C070E060E090E836
:101390009A1BE038F1050CF4912F961BE22F022ED8
:1013A000000CFF0BDE2ED0942F3F0CF0D12C41E02F
:1013B000852F877009F440E0B52EB694B694B694A4
:1013C0004B0DE40FF11D399714F048E0421BB42E89
:1013D000BD182D0D40E82403F0011124AE0FBF1FEE
:1013E000A60FB71F1D9D600D711D1124A701460F8B
:1013F000571FC32E032E000CDD08033009F4C7C0AD
:1014000090F4023009F474C0DF91CF911F910F91D5
:10141000FF90EF90DF90CF90BF90AF909F908F9014
:101420007F906F9008950A3FA1F1B20E0B3F61F7D4
:101430002B1551F3BD0168577D4F10E000E00917EF
:1014400008F09FC0FA01E00FF11FE491F0E04F01B6
:101450000C2C02C0880C991C0A94E2F727FD06C0E8
:10146000FB018081F82CF0948F218083332361F07D
:10147000273054F47B01F0E8EF0EF11CA92CA09466
:10148000F70180818A2180830F5F1F4F6F5F7F4F3D
:10149000D6CFB20E2B1509F4B7CFBD0168577D4FDB
:1014A00010E000E0091708F066C0FA01E00FF11F34
:1014B000E491F0E04F010C2C02C0880C991C0A94B6
:1014C000E2F727FD04C0FB01808188298083332354
:1014D00051F0273044F47B01F0E8EF0EF11CF701E6
:1014E0008081892980830F5F1F4F6F5F7F4FDACF25
:1014F0006FEF70E0032E02C0660F771F0A94E2F7C9
:1015000060957095972E8B2C820E281509F47CCF50
:101510008D0108571D4FF12CE12CE91630F5FA0129
:10152000EE0DFF1DE491F0E03F010C2C02C0660CB3
:10153000771C0A94E2F727FD05C0F8018081862315
:1015400086298083332359F027304CF45801F0E882
:10155000AF0EB11CF5018081892187298083FFEFBF
:10156000EF1AFF0A0F5F1F4FD8CF2F5F4C0F5D1F81
:10157000A058BF4FCACF2F5F4C0F5D1FA058BF4F61
:1015800089CF2F5F4C0F5D1FA058BF4F51CFE92E61
:10159000F12CFA01E60FF71FA857BD4F60E870E085
:1015A0006E197F09CE19DF098E01000F111F41E06E
:1015B00050E07A01032E01C0EE0C0A94EAF7592F8D
:1015C0004B2D892E932ECF93DF93ED01EF96EF965F
:1015D0002296A590C590992059F0AE9C5001CE9CC2
:1015E000600127302CF4F880D094FD20FB28F9927C
:1015F00022233AF0FC90C094FC20FA28FD920C942F
:10160000020B11965A9529F74A9551F0582D2395BA
:101610001124E00FF11DA60FB11DC60FD11DD9CFAA
:10162000DF91CF911124F0CE90E0E8E8F2E0911143
:101630009FEF8FEF91939193919391938150D0F776
:101640000895E8E8F2E0A0E0B8E000800EBC811167
:10165000012C1197A0FDFDCF0192B9F70DB40895AB
:10166000FC0180918702882311F13FB7F89482E052
:101670008093E9002091F200822F90E0181619065D
:1016800014F481E090E0882339F0289844E64093F0
:1016900086024091F1004083222339F02091F2002C
:1016A000211103C02BE62093E8003FBF08958FEF80
:1016B0009FEF08952FB7F89483E08093E90090910D
:1016C000E800892F807295FF04C09091F20080E4B9
:1016D000891B2FBF089580917E0281110DC082E089
:1016E00080937A0284E080937B0210927D021092B4
:1016F0007C0281E080937E028AE792E00895CF9396
:10170000DF931F92CDB7DEB76983DC01ED91FC91C9
:101710000280F381E02D41E050E0BE016F5F7F4F1A
:1017200009950F90DF91CF91089583E08093E900B0
:101730008091F200882319F08AE38093E8000895ED
:101740000E945A0B90E00895CF93DF931F92CDB77C
:10175000DEB7FC018485958597FD08C02FEF3FEF2C
:10176000358724870F90DF91CF910895CE010196A0
:101770000E94300B019719F4898190E0F3CF8FEF2D
:101780009FEFF0CF0F931F93CF93DF931F92CDB7AF
:10179000DEB78C01FC018485958597FF0BC0CE01D7
:1017A00001960E94300B019771F4898190E0F80155
:1017B00095878487F801848595850F90DF91CF9177
:1017C0001F910F9108958FEF9FEFF1CFFC0184855A
:1017D000958597FD0BC09FB7F89482E08093E90050
:1017E0008091F2009FBF90E0019608959FB7F89412
:1017F00082E08093E9008091F2009FBF90E008951D
:1018000040917402509175022091720230917302DE
:1018100042175307B4F49091E8009570E1F390916A
:10182000E80092FD19C08093F100809174029091BC
:10183000750201968F739927892B19F48EEF809387
:10184000E800809174029091750201969093750260
:101850008093740281E0089580E00895DF92EF9212
:10186000FF920F931F93CF93DF93D82E8A01EB0142
:101870007B01E40EF51ECE15DF0559F0D7FE12C030
:10188000FE0184910E94000C21968111F4CF0FEF8C
:101890001FEFC801DF91CF911F910F91FF90EF9043
:1018A000DF9008958881EECF0F931F93CF93DF933E
:1018B0001F92CDB7DEB782E0898342E450E060EE4C
:1018C00071E180E80E942E0C0E946B0BDC011296E5
:1018D0000D911C910115110589F0D801ED91FC9134
:1018E0000280F381E02DBE016F5F7F4FC801099533
:1018F00097FD04C0F80100851185ECCF89810F9018
:10190000DF91CF911F910F910895615030F0209198
:10191000F100FC0120830196F8CF289884E680939B
:1019200086020895A0E3B2E02FB7F8947D918D91DF
:101930009C9166B52FBFA89B05C06F3F18F47F5FD1
:101940008F4F9F4F22E0660F771F881F991F2A95A0
:10195000D1F708950895AF92BF92CF92DF92EF92A0
:10196000FF920F931F93CF93DF936C017B018B0149
:10197000040F151FEB015E01AE18BF08C017D10799
:1019800059F06991D601ED91FC910190F081E02D23
:10199000C6010995892B79F7C501DF91CF911F9178
:1019A0000F91FF90EF90DF90CF90BF90AF90089590
:1019B000FC010E94920C319728F068517C4F8F4FA8
:1019C0009F4FF9CFAB01FC010E94920C6417750781
:1019D0008E079F07C8F308958F929F92AF92BF9290
:1019E000CF92DF92EF92FF920F931F93CF93DF93EB
:1019F0006C017B018A0180910D01882309F45AC092
:101A000080918702882309F455C08091790280FF74
:101A100005C08091E00082608093E000E801B12C75
:101A20008AEFA82E93E0892E2AE3922E209711F4B4
:101A3000BB20C9F10E945A0B811108C0AA94AA20A8
:101A4000C9F181E090E00E94D80CF0CF8C171D0600
:101A500011F00CF08C2F9FB7F8948092E900209140
:101A6000E80025FD02C09FBFE1CF282F30E0C21B58
:101A7000D30BF701815020F041914093F100FACF50
:101A8000E20EF31EBB2021F09092E800B12CEBCFC8
:101A90008091E80085FDE7CF9092E800BB24B394E5
:101AA000209709F3F3CF5D9884E6809378021016AF
:101AB00011063CF081E090E0F6019383828310E010
:101AC00000E0C801DF91CF911F910F91FF90EF903F
:101AD000DF90CF90BF90AF909F908F90089520910E
:101AE0008C06E0918A06F0918B06CF0102969093C6
:101AF0008B0680938A06222319F08591949108958C
:101B0000808191810895CF92DF92EF92FF92CF93DF
:101B1000DF930E946F0D811520E8920791F4809168
:101B200071008D7F809371001092910046984798C4
:101B300010922702DF91CF91FF90EF90DF90CF902E
:101B4000089521E020932702813020E8920751F484
:101B5000809188069091890690938B0680938A06DF
:101B60000E946F0D97FD05C020912602222309F4E3
:101B700054C020912502211150C021E02093280259
:101B8000EC01DF77209709F04BC081E080932902B8
:101B900046983FE9C32E3FE0D32EE12CF12CCAEF4B
:101BA000D0E0E091EB06F091EC060995811103C0BD
:101BB00081E08093290280912802882329F0809176
:101BC0002902882309F43FC047980E946F0D0097AF
:101BD000F1F19C01DE010E94FB1ADC01CB0129E03E
:101BE000B595A795979587952A95D1F7109290006E
:101BF0002AE020939100D0929900C092980080939F
:101C00002A0290932B02A0932C02B0932D02809174
:101C100071008260809371008DCF10922802B0CF46
:101C20009E0150E040E060E472E48FE090E00E94AA
:101C3000A71A69017A0181E0C81AD108E108F10800
:101C400010922902AECF4699BFCF479ABECF8FEFF1
:101C50009FEFDC01CBCF9C01E1E7F0E090819D7F1D
:101C6000908310928C06EDEDF6E0F0938B06E093F6
:101C70008A06F0938906E0938806318320838AE000
:101C800090E09383828380E090E8958384830C9432
:101C9000830D0F9302E00E9454090F9108952D9A2D
:101CA000089590E00C94D80C8FB18095807F669B4E
:101CB00088601C9B846008955C988EBD00000DB404
:101CC00007FEFDCF5C9A089590E1282F81E061FD29
:101CD00084E060FD880F62FD8295687F969FD00149
:101CE0001124A20FA857BD4F0C90082A40FF0826C8
:101CF0000C9208957F928F929F92AF92BF92CF9253
:101D0000DF92EF92FF920F931F93CF93DF936A308E
:101D1000E9F48091670290916802089690936802B6
:101D200080936702109266021092650281E090E053
:101D3000DF91CF911F910F91FF90EF90DF90CF90A7
:101D4000BF90AF909F908F907F9008956D3071F30A
:101D50000091650210916602C801049684389105CD
:101D600008F03FC0E0906702F0906802C701079654
:101D700087349105B0F585E0689FE0011124CF58C4
:101D8000DE4F6801712CC01BD10BFE01EC0DFD1D57
:101D9000E49185E0781201C0E0E0912C812CAE2E18
:101DA000B12C80E8C816D10458F4B701680D791D2C
:101DB0006034710528F44E2F4170C6010E94640EF4
:101DC000F501F595E7958FEF881A980A88E088164F
:101DD000910429F773948FEFC81AD80A86E0781215
:101DE000D4CF0A5F1F4F10936602009365029ECF07
:101DF000CF93C82F0E94540E982F9C2381E09C13F0
:101E000080E0CF91089580E00C94210B8F929F92F7
:101E1000AF92BF92CF92DF92EF92FF920F93CF9348
:101E2000DF935B01EC014C01840E911C6B01C20E2F
:101E3000D11CC815D905ECF47501B7FE02C0F12C10
:101E4000E12CC60121E4C216D10414F080E490E034
:101E5000E816F90664F4C038D10528F4402FB7011C
:101E6000CE010E94640E8FEFE81AF80AEACF21969D
:101E7000E0CFDF91CF910F91FF90EF90DF90CF9067
:101E8000BF90AF909F908F9008950F93CF93DF9363
:101E9000EC019E816A3059F48D818C836985960F9F
:101EA0009E8381E090E0DF91CF910F910895262FDE
:101EB0006A3361F178F46E3279F140F4613251F1B4
:101EC00098859D5F8C81890F8C83EBCF6033C0F345
:101ED0002C5F09C06134A0F36B35D0F08FE9860F19
:101EE00027548A3168F761E0690F062E000C770BE2
:101EF0008C81082E000C990B3F810AEF313009F0DC
:101F00000BEF4CEA50E00E945409DACF20E4EBCF0B
:101F10002154E9CF2EE3E7CF2FE3E5CF80913D02B7
:101F200090913E026AE070E00E940A1B892BA9F49E
:101F300080917002823058F58F5F8093700280919B
:101F40006F02811127C081E080936F0280916D0242
:101F5000811123C081E080936D0280E80E94F80E19
:101F60008823F1F080913D0290913E0265E070E09F
:101F70000E940A1B892BD9F1809147079091640236
:101F800091113BC08230D8F01092470718C01092D0
:101F90007002D5CF10926F02D9CF10926D02DDCFB3
:101FA00080E10E94F80E8111DDCF80E20E94F80EE0
:101FB0008111D8CF80E40E94F80E8111D3CF2091F7
:101FC0003D0230913E0227703327EBEFF6E08AE0C6
:101FD0002115310519F493859F5F9387938592307E
:101FE00008F0138681503D968111F2CF08958091BB
:101FF00047078F5F80934707BFCF843000F382E0AD
:1020000080934707DCCF089590E080E00895FB01BE
:1020100001900020E9F73197AF01461B570BDC0117
:10202000ED91FC910280F381E02D09948F929F92B3
:10203000AF92BF92EF92FF920F931F93CF93DF93D4
:10204000CDB7DEB7A1970FB6F894DEBF0FBECDBFF8
:102050007C01FA01CB0119A2223008F42AE08E019A
:102060000F5D1F4F822E912CB12CA12CBF01A50119
:1020700094010E94D91AF901CA016A300CF5605D19
:10208000D8016E938D01232B242B252B79F790E01B
:1020900080E0109721F0BD01C7010E940710A196B2
:1020A0000FB6F894DEBF0FBECDBFDF91CF911F9169
:1020B0000F91FF90EF90BF90AF909F908F900895F9
:1020C000695CDECF0C94911A0F931F93CF93DF932B
:1020D0008C0181E090E00E94621080FF30C08AE0B5
:1020E00090E00E9462109FEF980F9E3F40F522E320
:1020F00030E0309366022093650228E330E03093AD
:10210000680220936702CBE0D0E0D801ED91FC910A
:102110000190F081E02D682FC8010995CE010E9441
:1021200062102196C131D10581F70E94030F88EE1C
:1021300093E0DF91CF911F910F910C94D80CDF9118
:10214000CF911F910F9108951F920F920FB60F928A
:1021500011248F939F938091E1009091E100937FF0
:102160009093E10083FF0FC01092E90091E09093FB
:10217000EB001092EC0092E39093ED001092870236
:1021800098E09093F00082FF22C093E09093E900E2
:102190009091F200992319F09AE39093E8009091BE
:1021A0007802992341F090917802915090937802AF
:1021B000911101C05D9A90918602992341F090910E
:1021C0008602915090938602911101C0289A84FF53
:1021D00018C08091E2008E7E81608093E200809141
:1021E000E1008F7E8093E100809179028E7E806194
:1021F000809379029F918F910F900FBE0F901F9047
:10220000189580FFF7CF8091E2008E7E80618093E9
:10221000E2008091E1008E7E8093E100809179025E
:102220008E7E8160E5CF1F920F920FB60F92112420
:10223000CF92DF92EF92FF920F931F932F933F93D2
:102240004F935F936F937F938F939F93AF93BF93BE
:10225000EF93FF93CF93DF93CDB7DEB76C97DEBFDD
:10226000CDBF1092E9008091E80083FF25C068E0AF
:10227000CE0145960E94850C82EF8093E8008D89FF
:1022800087FF39C09091E80090FFFCCF982F90769F
:1022900009F034C19E894F89588D2F89F88C91118E
:1022A00031C0803861F5809177028093F1001092FF
:1022B000F1008EEF8093E8006C960FB6F894DEBFC5
:1022C0000FBECDBFDF91CF91FF91EF91BF91AF9145
:1022D0009F918F917F916F915F914F913F912F913E
:1022E0001F910F91FF90EF90DF90CF900F900FBE56
:1022F0000F901F9018959EEF9093E800C7CF109213
:10230000F100D5CF913059F48111D3CF413051052F
:1023100081F6809177028D7F80937702CACF9330C8
:1023200049F48111C6CF4130510519F680917702E9
:102330008260F2CF953041F48091E80080FFFCCFBD
:1023400020682093E300B5CF963009F0A9C00B8D2B
:102350001C8D22E01092E900109275021092740216
:10236000F2122EC010927302109272020E94540C4C
:102370001F8299E09983FA8291E09E8390EA988780
:102380009AEF99872091740230917502275F3F4F31
:102390003C832B838D831092E9001092750210927A
:1023A0007402109373020093720249E050E0BE0180
:1023B0006F5F7F4F80E00E942E0C0E94540C79CFFB
:1023C00010937302009372020E946B0BDC01129651
:1023D0000D911C910115110509F451C1D801ED9120
:1023E000FC910480F581E02DBE016B5E7F4FC8013A
:1023F0000995009709F03EC1F80100851185EACFE3
:10240000F3E0FF120EC08F89882309F440C08230A8
:1024100061F440E867E084E492E10E94F0138111E6
:1024200048CF81E28093EB0047CF813029F440E828
:102430006BE088E392E1F1CF833099F70E946B0B58
:10244000DC011296ED90FC908E010F5F1F4F68012A
:10245000E114F10479F0D701ED91FC910680F78148
:10246000E02DB801C7010995080F111DF701E0849F
:10247000F184EECFD8011C92F60101900020E9F71B
:102480003197BF016C197D0940E0C601C6CF62E2F9
:1024900072E1FB01449150E080E80E942E0C09CFCC
:1024A000973009F4BECF983021F481E08093F10099
:1024B00000CF993009F0FDCE837009F0B2CFE3ED83
:1024C000F1E081E031E096E32191222371F08093E5
:1024D000E9003093EB00DF0111972C912093EC0081
:1024E0009093ED008F5F873079F78EE78093EA0055
:1024F0001092EA008F8980938702DBCE8B8D9C8DB2
:102500001092E90010927502109274029093730277
:1025100080937202898D811192C08E899D89913A32
:1025200049F4813209F07DCF47E050E066E071E088
:1025300080E0B3CF913209F074CF833269F48F8990
:10254000988DB0E0A0E08093020190930301A093E6
:102550000401B0930501ADCE803269F48091E800AA
:1025600082FFFCCF67E086E091E00E94850C8BEF54
:102570008093E8009ECE823209F09BCE8F898093B3
:102580000D01EEEFFFE7859194918B3F9C4D51F14A
:10259000E0E0F8E08091060190910701A091080128
:1025A000B0910901803B9440A105B105F1F48091FF
:1025B0000D0180FD1AC0EE3F8AE0F80789F587E734
:1025C00097E791838083809160008093760288E111
:1025D0009BE00FB6F894A895809360000FBE90938F
:1025E000600067CEEEEFFAE0D5CF8081918187372A
:1025F000974709F05ECEA89580916000886180932E
:1026000060008091760280936000EE3F2AE0F2073E
:1026100089F08091FE0A9091FF0A9183808349CED0
:10262000808191818737980751F29093FF0A8093B8
:10263000FE0AC5CF1092FF0A1092FE0A3ACE0E94FF
:102640006B0BDC0112960D911C910115110509F41B
:10265000E8CED801ED91FC910190F081E02DBE0112
:102660006B5E7F4FC8010995811123CEF80100856B
:102670001185EBCF181619060CF41BCED2CEF1E063
:10268000FF12BECE66E272E104CF0F920FB68F93B7
:102690009F93EF93FF9380912F028D5F8D3708F00A
:1026A0008D5780932F02E7E3F2E080818E4F808385
:1026B00091819F4F918382818F4F828383818F4F3E
:1026C0008383E0E3F2E080818F5F808381818F4F9D
:1026D000818382818F4F828383818F4F83838FB1E8
:1026E0008F6066991C9B88278F3681F480912E021B
:1026F000981B963068F0E0E0F8E087E780838183FC
:1027000088E180936000F0936000FFCF90932E02E9
:10271000FF91EF919F918F910FBE0F9018951F928F
:102720000F920FB60F9211242F933F934F935F9305
:102730006F937F938F939F93AF93BF93EF93FF9389
:1027400080912A0290912B02A0912C02B0912D022F
:10275000892B8A2B8B2B09F440C08091290281118F
:102760000BC088B190E4892788B98091280288231A
:1027700019F088B1805888B980912A0290912B0273
:10278000A0912C02B0912D02181619061A061B06EC
:102790009CF480912A0290912B02A0912C02B0917E
:1027A0002D020197A109B10980932A0290932B026F
:1027B000A0932C02B0932D02FF91EF91BF91AF91A6
:1027C0009F918F917F916F915F914F913F912F9149
:1027D0000F900FBE0F901F9018950E94830DECCFA5
:1027E000EF92FF920F931F93CF93DF93F82E192F41
:1027F000E62E042F81E0860F880F0E94000C83E0F4
:102800000E94000CCF2DD12FEC0EFD2EF11CCE1509
:10281000DF05B9F007FF13C0FE0184910E94000C90
:10282000182F80E00E94000C812321968111EFCFA8
:10283000DF91CF911F910F91FF90EF9008958881C4
:10284000EDCF81E0F5CF1092900610928F0688EEC2
:1028500093E0A0E0B0E08093910690939206A0935D
:102860009306B09394068DED91E090938E0680933D
:102870008D068FEF9FEF90939A068093990682E3DF
:1028800080934207109244071092450782E080939C
:1028900046071092470783E080934807EBEFF6E086
:1028A00022E392E02683108611869287138684871E
:1028B0003D9637E0EC33F307A9F71092FA06109231
:1028C000F9068BEF91E09093F8068093F70610924B
:1028D000F0061092EF068FEE91E09093EE06809353
:1028E000ED0688E08093F60681E08093F50610926D
:1028F000F2061092F3061092F1068093F40681E539
:1029000099E09093EC068093EB0680E090E890933A
:10291000EA068093E90646983E9A47983F9A0895BA
:10292000789483E084BD83E085BD81E080936E0070
:10293000E1E8F0E083E08083E0E881E08083E1E9A2
:1029400083E08083E0E981E08083E1EC87E08083BD
:10295000E3EC81E08083E0EC82E08083E2EC81E0E4
:102960008083EAE787E08083806880831092870213
:1029700010927702109279028091D7008160809343
:10298000D70080EA8093D80089B5806189BD89B578
:10299000826089BD09B400FEFDCF81E090E00E9415
:1029A000D80C8091D8008F7C80618093D800809172
:1029B000E000807F8093E0008091E1008E7E809334
:1029C000E1008DE08093E200559A209A81EC80939B
:1029D0007C0081EF85B987EE84B984E38BB984EFFD
:1029E0008AB9769A6E9880EF81BB10BA80E58CBD6B
:1029F00081E08DBD85E00E94510E5F9A85E00E94C6
:102A0000510E5C98E1E7F6E085918EBD00000DB4B3
:102A100007FEFDCFEE37C1F75C9A81E88093640032
:102A200081E0809365000E94210B80E80E94F80EEF
:102A3000882381F085EA0E945C0E2E982F982D98AD
:102A40008091640080628093640081E083BF8895F8
:102A500013BEFCCF84E00E94F80E882309F445C021
:102A60002D9884E80E94F80E8823D9F00E944F0E1A
:102A700088EC0E94510E2F9882E090E00E94911AFB
:102A80008F3F29F06FEF82E090E00E94991A84EF67
:102A900091E00E94D80C2F9A84E80E94F80E8111D0
:102AA000FBCF84E10E94F80E8823D9F00E944F0EDC
:102AB00088EC0E94510E2E9882E090E00E94911ABC
:102AC000882329F060E082E090E00E94991A84EF68
:102AD00091E00E94D80C2E9A84E10E94F80E811198
:102AE000FBCF88EC0E94510EB5CF0E944F0E82E0C2
:102AF00090E00E946210882309F481C03E9A3F9AB8
:102B000081E08093340281E090E00E946210182FEF
:102B1000147081FF0EC011112E98C1EFDFEF80E419
:102B20000E94F80E882309F46FC02E9A2F9A0E94F3
:102B30004F0E82E30E94510E0E94540E8111F9CF74
:102B400080E1809300010E94140B109268021092A1
:102B5000670210926602109265020E94030F24E63B
:102B600032E051E4E52E52E0F52E4FEF5FEF83E0C7
:102B7000F7015183408384838583F7E0EF0EF11CD6
:102B80002E153F05A9F7EBEFF6E089E084838583F6
:102B900010863D9627E0EF32F207C1F780E490E01F
:102BA00090933D0780933C0780E290E090933F072D
:102BB00080933E0788E080934007809341071092FE
:102BC0006B0210926A0281E08093690222242A94A7
:102BD000322C40E3842E912CA12CB12C12E324E35F
:102BE000422E512C809135028823A9F11092350292
:102BF00080E090E0892BB1F30E940000EFCF1092AB
:102C000034023E983F987FCF112329F0C430D1057C
:102C100011F42E9A2F9881E00E94210B20E04EE7BC
:102C200056E0BE0184E190E00E94490E0E94030F2D
:102C30008FE00E94510E2196C931D10509F06FCF66
:102C4000112311F02F9A2D9880E991E00E94D80C61
:102C50000E944F0E6ECF9091370280913602392F2D
:102C6000381B832F20910001321748F48F5F8217A1
:102C700008F0BECF81E083BF889513BEB9CFC1E015
:102C8000C093350290933602EDE3F2E080819181AA
:102C90000196808391830E94140B10926802109217
:102CA00067021092660210926502D0903F02D092A5
:102CB00040020E94540ED82F80933F020E948E0F34
:102CC000809171028D7F19F5D3FC21C0D3FF1FC005
:102CD00083E08093480780E490E090933D078093E1
:102CE0003C0780E290E090933F0780933E0710926C
:102CF0006B0210926A02C09369021092030710924D
:102D0000100710921D0710922A07C093710280E8E5
:102D10000E94F80E882389F080913E0790913F072A
:102D20008B30910554F0019790933F0780933E07B5
:102D30001092430781E08093640280E10E94F80EC4
:102D4000882389F080913E0790913F078833910551
:102D500054F4019690933F0780933E0782E080935E
:102D600043071092640280E20E94F80E882379F0F3
:102D700080913C0790913D071816190644F401977D
:102D800090933D0780933C0783E08093430780E462
:102D90000E94F80E882379F080913C0790913D07BE
:102DA0008837910544F4019690933D0780933C0742
:102DB00081E08093430788E00E94F80E882399F011
:102DC00080916E0281110FC0E1E4F2E090E080E0BA
:102DD000208131812F3F3F4F09F4E2C2019637969F
:102DE00085309105A9F7809171028130F1F030F0C2
:102DF000823009F499C20E94030FFACE0E948E0F0E
:102E0000209170024EE35CE061E070E083E090E0CE
:102E10000E94490E20916F024CEB5AE06EE270E086
:102E20008EE090E00E94490EE6CFEBEFF6E0D12C69
:102E3000C12C8085811180C00E94391A2DE02C9D03
:102E4000E0012D9DD00D1124C550D94F20910101D5
:102E50002C8721E02887A50194010E94A71A70E021
:102E6000660F771FFB01EE58FE4F80819181998399
:102E700088836E5E7E4FFB01808191819B838A8374
:102E8000CBEFD6E06A817B8103E02B8540E059E0FF
:102E9000888199810E9454092D9647E0CF32D4074A
:102EA00089F780913D0290913E026FE070E00E94B0
:102EB0000A1B892B09F06CC060903C0770903D079D
:102EC000C0903E07D0903F07EBEFF6E0C0E0ABEFDD
:102ED000B6E0D0E0DC1709F451C0808191814D91BA
:102EE0005C9111972481280F392F311D4217530708
:102EF000ECF414962C911497420F511D84179507EA
:102F0000ACF44281538112966D917C911397258187
:102F1000240F352F311D6217730744F415962C9139
:102F20001597620F711D4617570784F08615970590
:102F30000CF4BFC10197BEC12FEFC21AD20A3D9651
:102F400034E0C316D10409F074CF9ACF049791836B
:102F500080838D919C911197049611969C938E93EA
:102F60008281938104979383828312968D919C91A1
:102F70001397049613969C938E931297DF5F1D967A
:102F8000D43009F0A7CFCF5F3D96C43009F09FCF72
:102F900020914307C1E4D2E02E83888199818F3F3D
:102FA0009807B1F0213009F092C101969983888386
:102FB00088819981803891054CF4892B39F08A8178
:102FC0009B818034910514F4892B11F43982288275
:102FD0002796EC16FD0601F781E4C82E82E0D82E74
:102FE000F601808191818F3F980741F0F60162815F
:102FF000738101E023E043E00E94060FF7E0CF0E6B
:10300000D11CCC15DD0561F78091480784302CF484
:10301000833009F06FC110926C0280916E02882398
:1030200019F0815080936E0280914207882319F035
:1030300081508093420760913E0770913F0703E003
:10304000209147074AE75AE080913C0790913D075D
:103050000E94540900E02AE040E870E060E090E05F
:1030600080E00E94060F01E021E040E86AE070E0A5
:1030700090E080E00E94060F03E020916D0244E1A1
:103080005AE070E060E084E690E00E94540902E0BB
:1030900028E040916C0270E060E084E690E00E94DD
:1030A000060FCBEFD6E08C85181684F0809169026C
:1030B000853009F02FC190910101963018F49F5F7F
:1030C0009093010118868F5F80936902288139816E
:1030D00040913C0750913D078C81820F932F911DA9
:1030E000481759070CF065C080914007480F511DE3
:1030F000241735070CF05DC02A813B8140913E07C3
:1031000050913F078D81820F932F911D48175907CA
:103110000CF04FC080914107480F511D241735070F
:103120000CF047C080914207811143C080913B025F
:1031300090913C02019690933C0280933B02109345
:1031400042078BE092E00E942B0E87EA0E945C0E01
:1031500064E170E080E090E0AB01FC010E94920C21
:1031600041505109E109F10928F068517C4F8F4F16
:103170009F4FF6CFAB01FC010E94920C64177507BC
:103180008E079F07C8F386EA0E945C0E809148076D
:1031900018167CF481508093480780916A029091C0
:1031A0006B028B30910528F00A9790936B02809305
:1031B0006A02B091420780916A0290916B02E1E449
:1031C000F2E0A5E0B1112AC0408151816881798186
:1031D0002481240F352F311D62177307FCF42C81D5
:1031E000620F711D46175707CCF4428153816A81E3
:1031F0007B812581240F352F311D6217730774F4ED
:103200002D81620F711D4617570744F401962C85D6
:10321000121614F421502C8731822082A150379647
:10322000A111D0CF90936B0280936A022D9677E024
:10323000CF32D70709F037CF1092F2061092F1067D
:103240001092F30665E072E08DEE96E00E940710A2
:103250008EE18093F2068093F1061092F30640917E
:103260006A0250916B0270E060E02AE08DEE96E019
:103270000E9416108AE38093F2068093F106109262
:10328000F3066EE072E08DEE96E00E94071082E594
:103290008093F2068093F1061092F3064091690242
:1032A00050E070E060E02AE08DEE96E00E9416109B
:1032B000A2CD019691838083828193818C159D0597
:1032C00024F401969383828359CE0197FBCF233058
:1032D00011F401976BCE211106C08A819B81019761
:1032E0009B838A8365CE223009F062CE8A819B81DE
:1032F0000196F6CF823021F489E080936C028DCE66
:10330000813011F481E1F9CF811187CE82E0809381
:10331000710283CE8A3009F4CECE8F3009F4CBCE41
:10332000843109F4C8CECECE20E042E259E06FE00D
:1033300070E084E090E00E94490E20916F024CEB17
:103340005AE063E270E08EE090E00E94490E80E374
:1033500090E09093660280936502509268024092DA
:10336000670266E172E087EF96E00E940710E3E5EE
:10337000F0E0F0936602E09365025092680240929A
:10338000670280916A0290916B022AE0289FA00157
:10339000299F500D112470E060E087EF96E086CF02
:1033A00027E0289FF001299FF00D1124EF5BFD4FCE
:1033B00080913C0790913D079183808380913E07E7
:1033C00090913F070396938382838CED93E00E9454
:1033D0002B0E8AE080936E0206CD8F929F92AF9261
:1033E000BF92CF92DF92EF92FF92CF93DF93EC01E7
:1033F000688179818A819B816115710581059105BB
:1034000021F464E279ED8BE597E02DE133EF41E0C3
:1034100050E00E94A71A49015A019B01AC01A7EA9A
:10342000B1E40E94C61A6B017C01ACEEB4EFA501B9
:1034300094010E94D41AC60ED71EE81EF91EF7FE8C
:1034400006C081E0C81AD108E10880E8F80AC882FD
:10345000D982EA82FB82C701B6019F77DF91CF91C3
:10346000FF90EF90DF90CF90BF90AF909F908F90A4
:1034700008958F929F92AF92BF92CF92DF92EF9278
:10348000FF9260910E0170910F0180911001909157
:103490001101611571058105910521F464E279ED51
:1034A0008BE597E02DE133EF41E050E00E94A71A51
:1034B00049015A019B01AC01A7EAB1E40E94C61A76
:1034C0006B017C01ACEEB4EFA50194010E94D41A0B
:1034D000C60ED71EE81EF91EF7FE06C081E0C81A08
:1034E000D108E10880E8F80AC0920E01D0920F01DD
:1034F000E0921001F0921101C701B6019F77FF9091
:10350000EF90DF90CF90BF90AF909F908F900895F5
:1035100060930E0170930F0180931001909311013D
:103520000895F999FECF92BD81BDF89A992780B58B
:103530000895262FF999FECF1FBA92BD81BD20BDF7
:103540000FB6F894FA9AF99A0FBE01960895052ECF
:1035500097FB1EF400940E94BE1A57FD07D00E94EC
:10356000D91A07FC03D04EF40C94BE1A509540951E
:10357000309521953F4F4F4F5F4F0895909580951F
:10358000709561957F4F8F4F9F4F08950E94FB1A52
:10359000A59F900DB49F900DA49F800D911D1124A7
:1035A0000895B7FF0C94C61A0E94C61A821B930B8B
:1035B0000895A1E21A2EAA1BBB1BFD010DC0AA1F74
:1035C000BB1FEE1FFF1FA217B307E407F50720F08C
:1035D000A21BB30BE40BF50B661F771F881F991F07
:1035E0001A9469F760957095809590959B01AC0150
:1035F000BD01CF010895A29FB001B39FC001A39F59
:10360000700D811D1124911DB29F700D811D11241B
:10361000911D0895AA1BBB1B51E107C0AA1FBB1F28
:10362000A617B70710F0A61BB70B881F991F5A954E
:10363000A9F780959095BC01CD010895EE0FFF1F6D
:103640000590F491E02D0994F894FFCF1003FFFF4B
:10365000FFFF00E100000000000001000000F8FF93
:10366000F8FFF8FFF8FFF8FFF8FFF8FFF8FFF8FFA2
:10367000F8FFF8FFF8FFF8FFF8FFF8FFF8FFF8FF92
:10368000080010001800200028003000380040001A
:10369000400040004000400040004000400040002A
:1036A000400040004000400040004000400040001A
:1036B000380030002800200018001000080000002A
:1036C00008001000180020002800300038004000DA
:1036D00048005000580060006800700078008000CA
:1036E00082008200820082008200820082008000CC
:1036F00078007000680060005800500048004000EA
:1037000038003000280020001800100008000000D9
:10371000F8FFF8FFF8FFF8FFF8FFF8FFF8FF00C127
:103720008081000000000000007F0BEC0CA00B95D6
:103730000BE60BA40BC20B00000000450FAB0C0402
:10374000100310000000007A0EAB0C04100310648C
:1037500010506F696E74733A20004C6576656C3A50
:0A376000200053636F72653A2000E9
:1070000055C000006EC000006CC000006AC00000E7
:1070100068C0000066C0000064C0000062C00000DC
:1070200060C000005EC00000FCC400005AC0000048
:1070300058C0000056C0000054C0000052C00000FC
:1070400050C000005DC000004CC000004AC00000FD
:1070500048C0000046C0000044C0000042C000001C
:1070600040C000003EC000003CC000003AC000002C
:1070700038C0000036C0000034C0000032C000003C
:1070800030C000002EC000002CC000002AC000004C
:1070900028C0000026C0000024C0000022C000005C
:1070A00020C000001EC000001CC0000011241FBE34
:1070B000CFEFDAE0DEBFCDBF11E0A0E0B1E0E6E463
:1070C000FFE702C005900D92A43BB107D9F711E08C
:1070D000A4EBB1E001C01D92AD3CB107E1F74FD385
:1070E00030C78ECFF89410926F001092810081E02B
:1070F00085BF15BE47985D9A289A0C9400000895A4
:107100001F920F920FB60F9211242F938F939F937C
:10711000EF93FF9310928500109284008091B40148
:107120009091B501009741F001979093B50180933C
:10713000B401892B09F45D9A8091B6019091B70151
:10714000009741F001979093B7018093B601892B86
:1071500009F4289A8091BA019091BB01019690930D
:10716000BB018093BA01E0E0F0E0859194918F5FDC
:107170009F4F49F08091B8019091B9010196909389
:10718000B9018093B801FF91EF919F918F912F9159
:107190000F900FBE0F901F90189584E08093E90028
:1071A0000DC08091E8008B778093E80003C08EB318
:1071B000882351F08091E80082FFF9CF8091E800A8
:1071C00085FFEFCF8091F1000895982F83E08093A1
:1071D000E9008091E80085FD0DC08091E8008E7780
:1071E0008093E80003C08EB3882369F08091E800A3
:1071F00080FFF9CF9093F1005D9884E690E0909342
:10720000B5018093B40108954F925F926F927F927F
:107210008F929F92AF92BF92CF92DF92EF92FF92A6
:107220000F931F93CF93DF9384E08093E9008091C5
:10723000E80082FF57C2289884E690E09093B70157
:107240008093B601AADF182F853481F48CE49DE188
:107250009093B9018093B80107B600FCFDCFF9996E
:10726000FECF81E180935700E89503C0843519F47F
:1072700094DF8DE00DC28C34E1F38035D1F3843797
:1072800021F484E4A2DF80E003C2813611F489E5B1
:10729000FFC18134B1F481DF182F7FDF90E0880FC8
:1072A000991FAA2797FDA095BA2F312F330F20E001
:1072B000442737FD4095542F822B932BA42BB52BBD
:1072C000B8C1803711F483E5E3C1833549F4C0E0E8
:1072D000D1E089917ADF21E0C730D207D1F7D9C157
:1072E000863521F481E371DF80E3D2C1833731F445
:1072F00087E86BDF85E969DF8EE1CAC18536B9F4BD
:10730000E0E0F0E093E085E090935700E89507B661
:1073100000FCFDCF80935700E89507B600FCFDCF39
:10732000E058FF4FA0E7E030FA0771F7A2CF8237AD
:1073300039F4E1E0F0E089E0809357008491A8C13E
:10734000863439F4E0E0F0E089E0809357008491DE
:107350009FC18E3439F4E3E0F0E089E08093570078
:10736000849196C1813539F4E2E0F0E089E08093C0
:10737000570084918DC1823631F489E526DF80E0A3
:1073800024DF80E885C1823419F0873609F0E5C032
:107390001092B9011092B80100DF082FFEDEF82E1E
:1073A000FCDE682E8554823008F071C1902F80E099
:1073B000CF2DD0E0C82BD92B10926F00173609F0D3
:1073C0004BC081E180935700E895DD24CC24C39421
:1073D0003FC0E090BD01F090BE010091BF0110914F
:1073E000C001B6E46B16D9F4ED2DF0E0EE29FF29CB
:1073F000E4918E2FEADEDD2081F082E090E0A0E0D3
:10740000B0E0E80EF91E0A1F1B1FE092BD01F092CA
:10741000BE010093BF011093C001DC2418C0D80145
:10742000C701B695A7959795879575D5CEDE82E06D
:1074300090E0A0E0B0E0E80EF91E0A1F1B1FE092EA
:10744000BD01F092BE010093BF011093C0012197CE
:10745000209709F0BECF7DC08090BD019090BE0105
:10746000A090BF01B090C00196E4691609F05DC01C
:1074700083E0F40180935700E89507B600FCFDCF48
:1074800054C0F6E46F1661F5772031F1E090BD014C
:10749000F090BE010091BF011091C0017EDED82E98
:1074A000CC24852D90E08C299D29F7010C01409278
:1074B0005700E895112482E090E0A0E0B0E0E80EEB
:1074C000F91E0A1F1B1FE092BD01F092BE0100933E
:1074D000BF011093C00102C060DE582E742423C087
:1074E000E090BD01F090BE010091BF011091C0017C
:1074F00016950795F794E79450DE682FC70113D5CA
:107500008091BD019091BE01A091BF01B091C001D9
:107510000296A11DB11D8093BD019093BE01A09361
:10752000BF01B093C001219704C05524772444249F
:107530004394209709F0A5CF96E4691641F485E0BD
:10754000F40180935700E89507B600FCFDCF8DE06D
:107550003CDE82E080936F009CC0833471F4009124
:10756000BD011091BE0119DE90E021E0F8010C018F
:1075700020935700E89511247CCE833619F5E090CE
:10758000BD01F090BE010091BF011091C00105DE68
:10759000F701E16090E021E00C0120935700E895AD
:1075A000112482E090E0A0E0B0E0E80EF91E0A1F8E
:1075B0001B1FE092BD01F092BE010093BF0110932A
:1075C000C00157CE8D3661F4E091BD01F091BE014E
:1075D00085E080935700E89507B600FCFDCF49CEC3
:1075E000823551F4E091BD01F091BE0105911491F5
:1075F000812FEBDD802F4CC0843421F5E090BD015C
:10760000F090BE010091BF011091C0011695079541
:10761000F794E794C2DD682FC70185D48091BD013E
:107620009091BE01A091BF01B091C0010296A11D31
:10763000B11D8093BD019093BE01A093BF01B09393
:10764000C00117CE843609F5E090BD01F090BE016F
:107650000091BF011091C001D801C701B695A7954F
:107660009795879558D4B1DD82E090E0A0E0B0E036
:10767000E80EF91E0A1F1B1FE092BD01F092BE0129
:107680000093BF011093C00104C08B3111F08FE350
:107690009CDD83E08093E9009091E8008091E80010
:1076A0008E778093E80095FF04C010C08EB38823C6
:1076B000C9F08091E80080FFF9CF8091E8008E77D3
:1076C0008093E80003C08EB3882361F08091E800C6
:1076D00080FFF9CF84E08093E9008091E8008B7708
:1076E0008093E800DF91CF911F910F91FF90EF9071
:1076F000DF90CF90BF90AF909F908F907F906F90D2
:107700005F904F9008959091C501892F8F778132B6
:1077100049F58091C6018032A1F0813219F5913A84
:1077200009F58091E800877F8093E8008CE091E084
:1077300067E070E027D28091E8008B778093E800C3
:107740000895913279F48091E800877F8093E80072
:107750008CE091E067E070E079D28091E8008E776C
:107760008093E800089582E061EC42E0D1D083E0AC
:1077700061E842E1CDD084E060E842E1C9C01F93F6
:10778000209100081092000844B714BE88E10FB69B
:10779000F89480936000109260000FBE80E8E0E0F3
:1077A000F0E00FB6F89480936100E09361000FBEA3
:1077B00031E035BF92E095BF3F9A209A559A809369
:1077C00061001092610047985D9A289A1092890092
:1077D0008AEF8093880090936F0083E0809381000C
:1077E000859194918F5F9F4F11F03093BC01942F3E
:1077F00041FF19C0809109012817A9F08093000862
:10780000789480911301882339F08091BA01909186
:10781000BB018F5E9240C8F3F8941092000881E09B
:10782000809313010CC090FF04C08091BC01882399
:1078300051F493FF09C080910901281729F0809124
:10784000BC01882309F04EDCD4D078941092B901A1
:107850001092B8011EEF20C0D7DC4BD38091B80145
:107860009091B90181549F4110F0109213018091C1
:10787000C1019091C20101969093C2018093C10110
:10788000292F97FF03C0512F591B252F220F28178F
:1078900010F4479801C0479A809113018823E1F6BC
:1078A0008091E00081608093E0001CDC80E090E04B
:1078B0001F910895FA01923049F0933061F09130B0
:1078C000F9F484E191E022E130E01EC086E291E02B
:1078D0002EE330E019C0882329F484E691E024E007
:1078E00030E012C0813029F488E691E02EE130E0EA
:1078F0000BC0823029F488E891E02AE230E004C02D
:1079000080E090E020E030E091838083C901089519
:107910008093E9008091EB0081608093EB001092EE
:10792000ED006093EC004093ED008091EE00881F25
:107930008827881F08958091C50188238CF403C08F
:107940008EB38823B1F08091E80082FFF9CF809157
:10795000E8008B778093E80008958EB3882349F080
:107960008091E80080FFF9CF8091E8008E778093C6
:10797000E8000895EF92FF920F931F9345D04CD0EB
:1079800008ED10E0F80180818F7780838081806826
:10799000808380818F7D808319BC1EBA1092C301C1
:1079A00080EEE82EF12CF70180818B7F8083F80137
:1079B00080818160808380E060E042E0A9DFE1EEC9
:1079C000F0E080818E7F8083E2EEF0E08081816054
:1079D0008083808188608083F70180818E7F8083AF
:1079E000F8018081806180831F910F91FF90EF905B
:1079F0000895E7EDF0E08081816080838AE482BFB2
:107A000081E08093C401B6CFE8EDF0E080818E7F05
:107A100080831092E20008951092DA001092E10043
:107A200008951F920F920FB60F9211242F933F9338
:107A30004F935F936F937F938F939F93AF93BF9376
:107A4000EF93FF938091DA0080FF1BC08091D800F4
:107A500080FF17C08091DA008E7F8093DA008091DA
:107A6000D90080FF0BC080E189BD82E189BD09B4E6
:107A700000FEFDCF81E08EBB3BD203C019BC1EBA15
:107A800037D28091E10080FF17C08091E20080FF33
:107A900013C08091E2008E7F8093E2008091E2002B
:107AA00080618093E2008091D80080628093D8004A
:107AB00019BC85E08EBB1CD28091E10084FF2CC0F4
:107AC0008091E20084FF28C080E189BD82E189BD08
:107AD00009B400FEFDCF8091D8008F7D8093D8003F
:107AE0008091E1008F7E8093E1008091E2008F7EA3
:107AF0008093E2008091E20081608093E2008091B7
:107B0000C301882331F48091E30087FD02C081E046
:107B100001C084E08EBBECD18091E10083FF21C0E5
:107B20008091E20083FF1DC08091E100877F8093F8
:107B3000E10082E08EBB1092C3018091E1008E7F54
:107B40008093E1008091E2008E7F8093E20080913B
:107B5000E20080618093E20080E060E042E0D8DEF5
:107B6000C7D1FF91EF91BF91AF919F918F917F917D
:107B70006F915F914F913F912F910F900FBE0F909A
:107B80001F9018959C014091CB015091CC01461754
:107B9000570718F4F90190E044C06115710511F020
:107BA000AB01F8CF8091E8008E778093E80040E049
:107BB00050E0F0CF8EB3882309F444C0853009F437
:107BC00043C08091E80083FF02C081E00895809166
:107BD000E80082FD31C08091E80080FF22C08091E2
:107BE000F3009091F200782F60E0292F30E0262BEF
:107BF000372B07C081918093F100415050402F5F97
:107C00003F4F4115510519F02830310598F390E0A8
:107C10002830310509F491E08091E8008E77809357
:107C2000E8004115510531F6992321F605C08EB3C0
:107C3000882341F0853041F08091E80082FFF7CF42
:107C400080E0089582E0089583E008959C01611525
:107C5000710529F48091E8008B778093E800F901A1
:107C600026C08EB3882391F1853091F18091E80090
:107C700083FF02C081E008958091E80082FFF1CF88
:107C800006C08091F10081936150704059F02091BD
:107C9000F3008091F200322F20E090E0822B932BB2
:107CA000892B79F78091E8008B778093E800611544
:107CB0007105B9F605C08EB3882341F0853041F0D7
:107CC0008091E80080FFF7CF80E0089582E008957A
:107CD00083E008950F931F93DF93CF9300D0CDB728
:107CE000DEB7E5ECF1E08091F100819381E0ED3CBD
:107CF000F807C9F708DD8091E80083FFE4C08091B0
:107D0000C5019091C601953009F46DC0963040F4DC
:107D1000913081F1913070F0933009F0D4C02AC0D5
:107D2000983009F4A3C0993009F4B2C0963009F034
:107D3000CAC07CC0803809F4C6C0823809F0C3C00C
:107D40008091C90187708093E9008091EB001092C7
:107D5000E9002091E800277F2093E80090E025E0EB
:107D6000969587952A95E1F781708093F10010929E
:107D7000F10087C0882319F0823009F0A4C08F7108
:107D8000823009F0A0C08091C701882331F520918D
:107D9000C901277009F497C02093E9008091EB0096
:107DA00080FF1BC0933021F48091EB00806213C0F0
:107DB0008091EB0080618093EB0081E090E002C055
:107DC000880F991F2A95E2F78093EA001092EA0043
:107DD0008091EB0088608093EB001092E900809125
:107DE000E800877F51C0882309F06DC01091C7015A
:107DF0001F770FB7F8948091E800877F8093E800A1
:107E00009ADD8091E80080FFFCCF8091E3008078CC
:107E1000812B8093E30080688093E300112311F4A9
:107E200082E001C083E08EBB0FBF4DC0805882301E
:107E300008F049C08091C7019091C8016091C901C3
:107E4000AE014F5F5F4F36DDBC01009709F43BC0C8
:107E50008091E800877F8093E80089819A8192DE93
:107E60008091E8008B778093E8002DC0803859F529
:107E70008091E800877F8093E8008091C301809320
:107E8000F1008091E8008E778093E80054DD1BC0FC
:107E90008823C9F49091C7019230A8F48091E8003A
:107EA000877F8093E8009093C30145DD8091C301F3
:107EB000882331F48091E30087FD02C081E001C096
:107EC00084E08EBB50DC8091E80083FF0AC0809183
:107ED000EB0080628093EB008091E800877F8093C5
:107EE000E8000F900F90CF91DF911F910F910895AF
:107EF00008951F938EB3882361F01091E9001092CA
:107F0000E9008091E80083FF01C0E4DE1770109360
:107F1000E9001F910895F999FECF92BD81BDF89AAD
:107F2000992780B50895262FF999FECF1FBA92BDE3
:107F300081BD20BD0FB6F894FA9AF99A0FBE01964A
:107F40000895F894FFCF4341544552494E4100777C
:107F500000080000000000000801120110010200EA
:107F600000084F1B059201000201000109023E00BA
:107F70000201008032090400000102020100052410
:107F800000100104240204052406000107058203F1
:107F90000800FF09040100020A00000007050402AE
:107FA00010000107058302100001040309041E03E9
:107FB000500072006F0020004D00690063007200E5
:107FC0006F002000350056002000200000002A032A
:107FD00053007000610072006B00460075006E0077
:107FE000200045006C0065006300740072006F00A3
:0A7FF0006E006900630073000000DA
:00000001FF
