:020000040000FA
:100000000C9487040C94AF040C94AF040C94AF04CC
:100010000C94AF040C94AF040C94AF040C94AF0494
:100020000C94AF040C94AF040C94380A0C94A70AF7
:100030000C94AF040C94AF040C94AF040C94AF0474
:100040000C94AF040C94AF040C94AF040C94AF0464
:100050000C94AF040C94AF040C94AF040C94D90C22
:100060000C94AF040C94AF040C94AF040C94AF0444
:100070000C94AF040C94AF040C94AF040C94AF0434
:100080000C94AF040C94AF040C94AF040C94AF0424
:100090000C94AF040C94AF040C94AF040C94AF0414
:1000A0000C94AF040C94AF040C94AF040000000057
:1000B000003E5B4F5B3E3E6B4F6B3E1C3E7C3E1CEE
:1000C000183C7E3C181C577D571C1C5E7F5E1C0034
:1000D000183C1800FFE7C3E7FF0018241800FFE7EB
:1000E000DBE7FF30483A060E2629792926407F05AE
:1000F0000507407F05253F5A3CE73C5A7F3E1C1CC4
:1001000008081C1C3E7F14227F22145F5F005F5F83
:1001100006097F017F006689956A6060606060946F
:10012000A2FFA29408047E040810207E2010080874
:100130002A1C08081C2A08081E101010100C1E0C7F
:100140001E0C30383E3830060E3E0E060000000011
:100150000000005F00000007000700147F147F14F8
:10016000242A7F2A1223130864623649562050003D
:1001700008070300001C2241000041221C002A1C29
:100180007F1C2A08083E0808008070300008080814
:100190000808000060600020100804023E51494534
:1001A0003E00427F400072494949462141494D3352
:1001B0001814127F1027454545393C4A49493141B9
:1001C000211109073649494936464949291E000087
:1001D00014000000403400000008142241141414DC
:1001E0001414004122140802015909063E415D59C8
:1001F0004E7C1211127C7F494949363E41414122D1
:100200007F4141413E7F494949417F090909013EFA
:10021000414151737F0808087F00417F4100204021
:10022000413F017F081422417F404040407F021C33
:10023000027F7F0408107F3E4141413E7F0909094A
:10024000063E4151215E7F09192946264949493216
:1002500003017F01033F4040403F1F2040201F3FDC
:100260004038403F63140814630304780403615961
:10027000494D43007F4141410204081020004141A3
:10028000417F04020102044040404040000307084F
:100290000020545478407F2844443838444444284B
:1002A000384444287F385454541800087E090218F2
:1002B000A4A49C787F0804047800447D400020407A
:1002C000403D007F1028440000417F40007C0478BE
:1002D00004787C080404783844444438FC18242406
:1002E0001818242418FC7C08040408485454542486
:1002F00004043F44243C4040207C1C2040201C3C03
:100300004030403C44281028444C9090907C4464F9
:10031000544C44000836410000007700000041368C
:10032000080002010204023C2623263C1EA1A16112
:10033000123A4040207A3854545559215555794144
:100340002154547841215554784020545579400C1B
:100350001E527212395555555939545454593955FC
:100360005454580000457C410002457D420001453F
:100370007C40F0292429F0F0282528F07C545545AC
:10038000002054547C547C0A097F4932494949323F
:100390003248484832324A4848303A4141217A3A54
:1003A00042402078009DA0A07D39444444393D401E
:1003B00040403D3C24FF2424487E4943662B2FFCCB
:1003C0002F2BFF0929F620C0887E09032054547979
:1003D000410000447D413048484A32384040227A4A
:1003E000007A0A0A727D0D19317D2629292F2826C7
:1003F0002929292630484D402038080808080808CF
:100400000808382F10C8ACBA2F102834FA00007B27
:10041000000008142A142222142A1408950022002D
:1004200095AA005500AAAA55AA55AA000000FF00E7
:10043000101010FF00141414FF001010FF00FF1024
:1004400010F010F0141414FC001414F700FF000056
:10045000FF00FF1414F404FC141417101F10101FD5
:10046000101F1414141F00101010F0000000001FC3
:10047000101010101F10101010F010000000FF10CE
:100480001010101010101010FF10000000FF1400CA
:1004900000FF00FF00001F10170000FC04F41414FC
:1004A0001710171414F404F40000FF00F7141414C8
:1004B00014141414F700F7141414171410101F1048
:1004C0001F141414F4141010F010F000001F101F6B
:1004D0000000001F14000000FC140000F010F010D9
:1004E00010FF10FF141414FF141010101F00000050
:1004F00000F010FFFFFFFFFFF0F0F0F0F0FFFFFF54
:100500000000000000FFFF0F0F0F0F0F38444438AA
:10051000447C2A2A3E147E02020606027E027E02E5
:1005200063554941633844443C04407E201E200604
:10053000027E020299A5E7A5991C2A492A1C4C7241
:1005400001724C304A4D4D303048784830BC625AC8
:10055000463D3E494949007E0101017E2A2A2A2A58
:100560002A44445F444440514A444040444A514034
:100570000000FF0103E080FF000008086B6B0836F5
:1005800012362436060F090F060000181800000066
:100590001010003040FF0101001F01011E00191D55
:1005A0001712003C3C3C3C0000000000D5F08D14CC
:1005B000A1C881CFD9F1AF20008022000000000047
:1005C000000004068E8E9B59567C5858404080800F
:1005D000000000000000000000000000000000001B
:1005E000000000000000000000000000000000000B
:1005F00000000000000000000000000000000000FB
:1006000000000000000000000000000000000000EA
:1006100000000000000000000000000000000000DA
:1006200000000000000000000000000000000000CA
:1006300000000000000000000000000000000000BA
:10064000E05C46213514D6D2101617171016D4D5F3
:100650001D314658E000C0408000000000000080CE
:100660004020101020408000E0101010101020C01A
:1006700000F01010101020408000F000000000007A
:1006800000F000E0101010101020C000C02010106A
:10069000101020C000F00000000000F0000000007A
:1006A000000000000000000000000000000000004A
:1006B000000000000000000000000000000000003A
:1006C000FF0000C00004091938F8F8F8F8F8F9F943
:1006D000F80480C043221110090E00000000007FC2
:1006E0000404040404047F007F0404040C14224165
:1006F000007F4040404020100F001F2040404040FD
:10070000201F007F42424242424538001F204040A5
:100710004040201F000001027C0201000000000098
:1007200000000000000000000000000000000000C9
:1007300000000000000000000000000000307058C1
:100740004F4020608182868E5F3F3F3F3F3F5F8FFB
:100750008380887700000000000000000000000097
:100760000000000000000000000000000000000089
:100770000000000000000000000000000000000079
:100780000000000000000000000000000000000069
:100790000000000000000000000000000000000059
:1007A0000000000000000000000000000000000049
:1007B0000000000000000000000000000000000039
:1007C0000000000000000000000000000000000029
:1007D0000000000000000000000000000000000019
:1007E0000000000000000000000000000000000009
:1007F00000000000000000000000000000000000F9
:1008000000000000000000000000000000000000E8
:1008100000000000000000000000000000000000D8
:1008200000000000000000000000000000000000C8
:10083000000000000000000000000008083CFF422B
:10084000FF8DFFA1FF8DFF42FF3CFF00FF30FF48FF
:10085000FF94FF84FF84FF94FF48FF30FF080800E7
:10086000FF17FFF9FF7FFF7FFF79FF17FF20FF20B2
:10087000FF17FF79FF7FFF7FFFF9FF17FF00FF00E2
:10088000FF17FFFFFF47FF47FF7FFF17FF20FF20F6
:10089000FF17FF7FFF47FF47FFFFFF17FF00FF081E
:1008A0000B00020202000009040000010202000025
:1008B0000524001001052401010104240206052479
:1008C0000600010705810310004009040100020A27
:1008D00000000007050202400000070583024000F7
:1008E000000403090412010002EF02014041233613
:1008F0008000010102030141726475696E6F204C32
:100900004C4300414250313330360000560D112423
:100910001FBECFEFDAE0DEBFCDBF11E0A0E0B1E057
:10092000EAE5F4E202C005900D92A433B107D9F7CD
:1009300025E0A4E3B1E001C01D92A03FB207E1F7BA
:1009400014E0C7E8D4E004C02197FE010E942512FC
:10095000C638D107C9F70E948A0D0C942B120C944B
:10096000000090E0ECE8F1E091119FEF8FEF9193A0
:100970009193919391938150D0F70895ECE8F1E031
:10098000A0E0B8E000800EBC8111012C1197A0FD01
:10099000FDCF0192B9F70DB40895FC0180918B0150
:1009A000882311F13FB7F89482E08093E900209109
:1009B000F200822F90E01816190614F481E090E0FE
:1009C000882339F0289844E640938A014091F10049
:1009D0004083222339F02091F200211103C02BE63D
:1009E0002093E8003FBF08958FEF9FEF08952FB742
:1009F000F89483E08093E9009091E800892F807259
:100A000095FF04C09091F20080E4891B2FBF0895E8
:100A10008091820181110DC082E080937E0184E08B
:100A200080937F01109281011092800181E0809378
:100A300082018EE791E00895CF93DF931F92CDB7A7
:100A4000DEB76983DC01ED91FC910280F381E02D3A
:100A500041E050E0BE016F5F7F4F09950F90DF913D
:100A6000CF91089583E08093E9008091F20088237C
:100A700019F08AE38093E80008950E94F70490E05B
:100A80000895CF93DF931F92CDB7DEB7FC01848525
:100A9000958597FD08C02FEF3FEF358724870F908E
:100AA000DF91CF910895CE0101960E94CD04019768
:100AB00019F4898190E0F3CF8FEF9FEFF0CF0F9380
:100AC0001F93CF93DF931F92CDB7DEB78C01FC014C
:100AD0008485958597FF0BC0CE0101960E94CD04B9
:100AE000019771F4898190E0F80195878487F80176
:100AF000848595850F90DF91CF911F910F91089577
:100B00008FEF9FEFF1CFFC018485958597FD0BC09A
:100B10009FB7F89482E08093E9008091F2009FBF34
:100B200090E0019608959FB7F89482E08093E900E1
:100B30008091F2009FBF90E008954091780150911C
:100B40007901209176013091770142175307B4F46F
:100B50009091E8009570E1F39091E80092FD19C042
:100B60008093F100809178019091790101968F73C3
:100B70009927892B19F48EEF8093E80080917801F2
:100B8000909179010196909379018093780181E0A9
:100B9000089580E00895DF92EF92FF920F931F93E4
:100BA000CF93DF93D82E8A01EB017B01E40EF51E73
:100BB000CE15DF0559F0D7FE12C0FE0184910E94C8
:100BC0009D0521968111F4CF0FEF1FEFC801DF9132
:100BD000CF911F910F91FF90EF90DF900895888142
:100BE000EECF0F931F93CF93DF931F92CDB7DEB756
:100BF00082E0898342E450E06FE978E080E80E9477
:100C0000CB050E940805DC0112960D911C9101157F
:100C1000110589F0D801ED91FC910280F381E02D5E
:100C2000BE016F5F7F4FC801099597FD04C0F801B1
:100C300000851185ECCF89810F90DF91CF911F91B5
:100C40000F910895615030F02091F100FC01208354
:100C50000196F8CF289884E680938A010895089534
:100C6000AF92BF92CF92DF92EF92FF920F931F93BA
:100C7000CF93DF936C017B018B01040F151FEB01F8
:100C80005E01AE18BF08C017D10759F06991D601AF
:100C9000ED91FC910190F081E02DC6010995892B21
:100CA00079F7C501DF91CF911F910F91FF90EF90E0
:100CB000DF90CF90BF90AF900895FC010E94F406A2
:100CC000319728F068517C4F8F4F9F4FF9CFAB0180
:100CD000FC010E94F406641775078E079F07C8F38E
:100CE00008958F929F92AF92BF92CF92DF92EF9230
:100CF000FF920F931F93CF93DF936C017B018A01C7
:100D000080910C01882309F45AC080918B018823BB
:100D100009F455C080917D0180FF05C08091E000FD
:100D200082608093E000E801B12C8AEFA82E93E066
:100D3000892E2AE3922E209711F4BB20C9F10E943C
:100D4000F704811108C0AA94AA20C9F181E090E0BB
:100D50000E945D06F0CF8C171D0611F00CF08C2F51
:100D60009FB7F8948092E9002091E80025FD02C029
:100D70009FBFE1CF282F30E0C21BD30BF70181507A
:100D800020F041914093F100FACFE20EF31EBB2018
:100D900021F09092E800B12CEBCF8091E80085FD26
:100DA000E7CF9092E800BB24B394209709F3F3CFE8
:100DB0005D9884E680937C01101611063CF081E07A
:100DC00090E0F6019383828310E000E0C801DF9198
:100DD000CF911F910F91FF90EF90DF90CF90BF9038
:100DE000AF909F908F900895ACE3B1E02FB7F89447
:100DF0007D918D919C9166B52FBFA89B05C06F3FDB
:100E000018F47F5F8F4F9F4F22E0660F771F881F78
:100E1000991F2A95D1F708954F925F926F927F9212
:100E20008F929F92AF92BF92CF92DF92EF92FF92FA
:100E30000F931F93CF93DF934C015901FC2DC02FCB
:100E4000D0E0CE01880D991D181619060CF06CC063
:100E500020E8821691040CF067C09B012E0D311D15
:100E6000121613060CF060C0603471050CF05CC003
:100E70004115510509F458C0E62FE770FE2EDB013D
:100E800077FD179633E0B595A7953A95E1F73A2F98
:100E900077FF04C0FF2011F03FEF3A0F6627772756
:100EA0006819790997FC02C070E060E0803891050C
:100EB0000CF44BC090E89819961BA32F032E000C3E
:100EC000BB0B1A2F10953F3F0CF010E021E08E2D48
:100ED000877009F420E0E694E694E694E20EAE0D05
:100EE000B11D19971CF028E0E22EE31AE11A310F28
:100EF00020E83203D0011124A80DB91DA60FB71F99
:100F0000019F600D711D1124460F571F0F2D0F2CCF
:100F1000000C110BF33009F41CC1C8F4F13009F4D2
:100F2000D0C0F23009F47CC0DF91CF911F910F91B6
:100F3000FF90EF90DF90CF90BF90AF909F908F90F9
:100F40007F906F905F904F900895902FB5CFFA3FAC
:100F5000B1F1232F2E0DFB3F39F7321729F3BD01D5
:100F600064577E4FD12CC12CC91608F0A4C0FA01D9
:100F7000EC0DFD1DE491F0E04F01002E02C0880C45
:100F8000991C0A94E2F737FD06C0FB018081E82C2A
:100F9000E0948E218083FF2061F0373054F45B01B0
:100FA000F0E8AF0EB11CE92CE094F50180818E21B0
:100FB0008083FFEFCF1ADF0A6F5F7F4FD5CF232FDC
:100FC0002E0D321709F4B0CFBD0164577E4FD12CDE
:100FD000C12CC91608F069C0FA01EC0DFD1DE491A1
:100FE000F0E04F01002E02C0880C991C0A94E2F731
:100FF00037FD04C0FB01808188298083FF2051F0E8
:10100000373044F45B01F0E8AF0EB11CF50180818C
:1010100089298083FFEFCF1ADF0A6F5F7F4FD9CF17
:101020006FEF70E00F2C02C0660F771F0A94E2F793
:1010300060957095772E232F2E0D321709F474CFFB
:10104000FD01E457FE4F6F01B12CA12CA91638F514
:10105000FA01EA0DFB1DE491F0E02F01002E02C021
:10106000440C551C0A94E2F737FD05C0F601808157
:10107000862384298083FF2059F037304CF44601C1
:10108000F0E88F0E911CF4018081872185298083EF
:10109000FFEFAF1ABF0A8FEFC81AD80AD7CF3F5F4A
:1010A0004C0F5D1FA058BF4FC8CF3F5F4C0F5D1F57
:1010B000A058BF4F86CF3F5F4C0F5D1FA058BF4F5A
:1010C0004CCF6A0D7B1D232F2E0D321709F42CCF28
:1010D000FD01E457FE4F6F01B12CA12CA91688F534
:1010E000FB01EA0DFB1D8490912C002E02C0880CA0
:1010F000991C0A94E2F780949094FA01EA0DFB1D82
:101100006490712C002E02C0660C771C0A94E2F7E2
:1011100037FD05C0F6018081882186298083FF2064
:1011200049F037303CF4F601E058FF4F80818921C7
:1011300087298083FFEFAF1ABF0A8FEFC81AD80A3A
:10114000CDCF3F5F4C0F5D1F6C0F7D1FA058BF4F71
:10115000BCCFC92ED12CFA01E60FF71FA457BE4F02
:1011600000E810E00C191D09CC19DD09BE01660F5D
:10117000771F41E050E06A010F2C01C0CC0C0A94AB
:10118000EAF7592F2E2D792ECF93DF93ED01EF96AD
:10119000EF9622968590A590FF2059F08C9C4001F7
:1011A000AC9C500137302CF4E880B094EB20E92857
:1011B000E99233233AF0EC90A094EA20E828ED92EB
:1011C0000C94E30811965A9529F72A9551F0572D5A
:1011D00033951124E60FF11DA00FB11DC00FD11DD5
:1011E000D9CFDF91CF9111249FCE2D9A089590E011
:1011F0000C945D068FB18095807F669B88601C9BF8
:101200008460089590E1282F81E061FD84E060FD15
:10121000880F62FD8295687F969FD0011124A20FEE
:10122000A457BE4F0C90082A40FF08260C92089540
:101230007F928F929F92AF92BF92CF92DF92EF9266
:10124000FF920F931F93CF93DF936A30E9F480915D
:101250006F019091700108969093700180936F01D7
:1012600010926E0110926D0181E090E0DF91CF91BC
:101270001F910F91FF90EF90DF90CF90BF90AF90B4
:101280009F908F907F9008956D3071F300916D0164
:1012900010916E01C80104968438910508F03FC092
:1012A000E0906F01F0907001C701079687349105B7
:1012B000B0F585E0689FE0011124C455DF4F680157
:1012C000712CC01BD10BFE01EC0DFD1DE49185E0DE
:1012D000781201C0E0E0912C812CAE2EB12C80E878
:1012E000C816D10458F4B701680D791D6034710532
:1012F00028F44E2F4170C6010E940209F501F595B0
:10130000E7958FEF881A980A88E08816910429F7E4
:1013100073948FEFC81AD80A86E07812D4CF0A5F88
:101320001F4F10936E0100936D019ECFCF93C82F76
:101330000E94FA08982F9C2381E09C1380E0CF91B3
:10134000089580E00C94BE04089590E080E0089534
:101350008F929F92AF92BF920F931F93CF93DF9381
:10136000CDB7DEB7A1970FB6F894DEBF0FBECDBFE5
:1013700019A2423008F44AE08E010F5D1F4F842EFF
:10138000912CB12CA12CA50194010E94EF11E62F04
:10139000B901CA01EA3044F5E05DD801EE938D0150
:1013A000232B242B252B79F790E080E0109769F010
:1013B000FD0101900020E9F73197AF014A1B5B0B5B
:1013C000BD018CEE95E00E943006A1960FB6F89410
:1013D000DEBF0FBECDBFDF91CF911F910F91BF90A8
:1013E000AF909F908F900895E95CD7CF0C94D9115E
:1013F0000F931F93CF93DF938C0181E090E00E94C5
:10140000F60980FF30C08AE090E00E94F6099FEF65
:10141000980F9E3F40F522E330E030936E01209319
:101420006D0128E330E03093700120936F01CBE031
:10143000D0E0D801ED91FC910190F081E02D682F72
:10144000C8010995CE010E94F6092196C131D10546
:1014500081F70E94A10988EE93E0DF91CF911F915F
:101460000F910C945D06DF91CF911F910F9108951C
:101470001F920F920FB60F9211248F939F9380911A
:10148000E1009091E100937F9093E10083FF0FC012
:101490001092E90091E09093EB001092EC0092E33F
:1014A0009093ED0010928B0198E09093F00082FFF2
:1014B00022C093E09093E9009091F200992319F0F3
:1014C0009AE39093E80090917C01992341F09091E8
:1014D0007C01915090937C01911101C05D9A909193
:1014E0008A01992341F090918A01915090938A0149
:1014F000911101C0289A84FF18C08091E2008E7E6D
:1015000081608093E2008091E1008F7E8093E10012
:1015100080917D018E7E806180937D019F918F916E
:101520000F900FBE0F901F90189580FFF7CF8091FE
:10153000E2008E7E80618093E2008091E1008E7EE9
:101540008093E10080917D018E7E8160E5CF1F92C6
:101550000F920FB60F921124CF92DF92EF92FF926B
:101560000F931F932F933F934F935F936F937F93AB
:101570008F939F93AF93BF93EF93FF93CF93DF939B
:10158000CDB7DEB76C97DEBFCDBF1092E90080917A
:10159000E80083FF25C068E0CE0145960E94220640
:1015A00082EF8093E8008D8987FF39C09091E80031
:1015B00090FFFCCF982F907609F034C19E894F8917
:1015C000588D2F89F88C911131C0803861F5809148
:1015D0007B018093F1001092F1008EEF8093E80080
:1015E0006C960FB6F894DEBF0FBECDBFDF91CF91E2
:1015F000FF91EF91BF91AF919F918F917F916F91EB
:101600005F914F913F912F911F910F91FF90EF901C
:10161000DF90CF900F900FBE0F901F9018959EEF08
:101620009093E800C7CF1092F100D5CF913059F4D4
:101630008111D3CF4130510581F680917B018D7F9F
:1016400080937B01CACF933049F48111C6CF4130DA
:10165000510519F680917B018260F2CF953041F4FB
:101660008091E80080FFFCCF20682093E300B5CF95
:10167000963009F0A9C00B8D1C8D22E01092E90074
:101680001092790110927801F2122EC01092770117
:10169000109276010E94F1051F8299E09983FA82E7
:1016A00091E09E8390EA98879AEF9987209178013C
:1016B00030917901275F3F4F3C832B838D831092BC
:1016C000E90010927901109278011093770100934C
:1016D000760149E050E0BE016F5F7F4F80E00E94DD
:1016E000CB050E94F10579CF109377010093760125
:1016F0000E940805DC0112960D911C91011511053F
:1017000009F451C1D801ED91FC910480F581E02DDF
:10171000BE016B5E7F4FC8010995009709F03EC17D
:10172000F80100851185EACFF3E0FF120EC08F8922
:10173000882309F440C0823061F440E867E083E028
:1017400099E00E94230D811148CF81E28093EB0044
:1017500047CF813029F440E86BE087EF98E0F1CF84
:10176000833099F70E940805DC011296ED90FC90F9
:101770008E010F5F1F4F6801E114F10479F0D7016A
:10178000ED91FC910680F781E02DB801C701099524
:10179000080F111DF701E084F184EECFD8011C92EF
:1017A000F60101900020E9F73197BF016C197D091E
:1017B00040E0C601C6CF61EE78E0FB01449150E005
:1017C00080E80E94CB0509CF973009F4BECF98304E
:1017D00021F481E08093F10000CF993009F0FDCE33
:1017E000837009F0B2CFEEE0F1E081E031E096E302
:1017F0002191222371F08093E9003093EB00DF0107
:1018000011972C912093EC009093ED008F5F87301F
:1018100079F78EE78093EA001092EA008F8980932F
:101820008B01DBCE8B8D9C8D1092E900109279019B
:10183000109278019093770180937601898D8111C0
:1018400092C08E899D89913A49F4813209F07DCF09
:1018500047E050E065E071E080E0B3CF913209F0FD
:1018600074CF833269F48F89988DB0E0A0E08093C3
:10187000010190930201A0930301B0930401ADCE46
:10188000803269F48091E80082FFFCCF67E085E058
:1018900091E00E9422068BEF8093E8009ECE823278
:1018A00009F09BCE8F8980930C01EEEFFFE78591C5
:1018B00094918B3F9C4D51F1E0E0F8E0809105015F
:1018C00090910601A0910701B0910801803B9440DE
:1018D000A105B105F1F480910C0180FD1AC0EE3F25
:1018E0008AE0F80789F587E797E7918380838091FD
:1018F000600080937A0188E19BE00FB6F894A89588
:10190000809360000FBE9093600067CEEEEFFAE028
:10191000D5CF808191818737974709F05ECEA89512
:101920008091600088618093600080917A0180934B
:101930006000EE3F2AE0F20789F08091FE0A909164
:10194000FF0A9183808349CE8081918187379807F0
:1019500051F29093FF0A8093FE0AC5CF1092FF0ABE
:101960001092FE0A3ACE0E940805DC0112960D91F3
:101970001C910115110509F4E8CED801ED91FC91F7
:101980000190F081E02DBE016B5E7F4FC80109958B
:10199000811123CEF80100851185EBCF18161906A9
:1019A0000CF41BCED2CEF1E0FF12BECE65EE78E095
:1019B00004CF0F920FB68F939F93EF93FF93809175
:1019C0003B018D5F8D3708F08D5780933B01E2E43A
:1019D000F1E080818E4F808391819F4F918382813E
:1019E0008F4F828383818F4F8383ECE3F1E080818B
:1019F0008F5F808381818F4F818382818F4F82832C
:101A000083818F4F83838FB18F6066991C9B88275A
:101A10008F3681F480913A01981B963068F0E0E0AF
:101A2000F8E087E78083818388E180936000F0930A
:101A30006000FFCF90933A01FF91EF919F918F91BA
:101A40000FBE0F901895EF92FF920F931F93CF93B5
:101A5000DF93F82E192FE62E042F81E0860F880FD2
:101A60000E949D0583E00E949D05CF2DD12FEC0E95
:101A7000FD2EF11CCE15DF05B9F007FF13C0FE01E6
:101A800084910E949D05182F80E00E949D0581236E
:101A900021968111EFCFDF91CF911F910F91FF9090
:101AA000EF9008958881EDCF81E0F5CFECE8F5E087
:101AB0001382128288EE93E0A0E0B0E084839583E5
:101AC000A683B78388E191E0918380838FEF9FEFB6
:101AD00095878487ECEEF5E0138212828AE291E02A
:101AE00091838083E4EEF5E088E08083818340E4A5
:101AF000428330E2338322E3248392E09683178289
:101B0000ECEDF5E0808381834283338324839683E5
:101B10001782089500D000D0CDB7DEB7789483E067
:101B200084BD83E085BD81E080936E00E1E8F0E054
:101B300083E08083E0E881E08083E1E983E08083E3
:101B4000E0E981E08083E1EC87E08083E3EC81E001
:101B50008083E0EC82E08083E2EC81E08083EAE74E
:101B600087E080838068808310928B0110927B01D4
:101B700010927D018091D70081608093D70080EA28
:101B80008093D80089B5806189BD89B5826089BD9F
:101B900009B400FEFDCF81E090E00E945D068091D7
:101BA000D8008F7C80618093D8008091E000807F96
:101BB0008093E0008091E1008E7E8093E1008DE0D3
:101BC0008093E200559A209A81EC80937C0081EF0B
:101BD00085B987EE84B984E38BB984EF8AB9769AA4
:101BE0006E9880EF81BB10BA80E58CBD81E08DBD21
:101BF00085E00E94F7085F9A85E00E94F7085C98EC
:101C0000ECEAF5E085918EBD00000DB407FEFDCF36
:101C1000E93BC1F75C9A81E88093640081E080939E
:101C200065000E94BE0480E80E9496098823A9F0FE
:101C30005C9885EA8EBD00000DB407FEFDCF5C9A6E
:101C40002E982F982D988091640080628093640074
:101C500081E083BF889513BEFCCF84E00E94960983
:101C6000882309F445C02D9884E80E9496098823AA
:101C7000D9F00E94F50888EC0E94F7082F9882E0BE
:101C800090E00E94D9118F3F29F06FEF82E090E041
:101C90000E94E11184EF91E00E945D062F9A84E892
:101CA0000E9496098111FBCF84E10E949609882346
:101CB000D9F00E94F50888EC0E94F7082E9882E07F
:101CC00090E00E94D911882329F060E082E090E042
:101CD0000E94E11184EF91E00E945D062E9A84E15A
:101CE0000E9496098111FBCF88EC0E94F708B5CFBE
:101CF0000E94F50882E090E00E94F609882309F42A
:101D000066C03E9A3F9A81E090E00E94F609182F43
:101D1000147081FF18C011112E9821EF3FEF3A8304
:101D2000298329EB822E25E0922E3AEBA32E35E073
:101D3000B32E80E40E949609882309F44BC02E9AA2
:101D40002F9A0E94F50882E30E94F7080E94FA0881
:101D50008111F9CF80E1809300010E94B1041092BB
:101D6000700110926F0110926E0110926D010E942D
:101D7000A1092CE631E089E4682E81E0782E4FEF4E
:101D80005FEF83E0F3015183408384838583F7E031
:101D90006F0E711C26153705A9F788E78093DE05BD
:101DA0008EE18093DF0515E0412E512C22242A94E8
:101DB000322C80914001882309F442C010924001E6
:101DC00080E090E0892BA9F30E940000F2CF3E98BA
:101DD0003F9899CF112339F049815A8144305105F8
:101DE00011F42E9A2F9881E00E94BE04F401049110
:101DF000F501E49092E0C92E30E020E04BEB55E095
:101E000069817A8184E190E00E940C070E94A10917
:101E10008FE00E94F70829813A812F5F3F4F3A8374
:101E200029832931310509F084CF112311F02F9A2C
:101E30002D9880E991E00E945D060E94F50883CF0D
:101E40009091420180914101292F281B822F2091DE
:101E50000001821748F48F5F821708F0B1CF81E04C
:101E600083BF889513BEACCF81E0809340019093EF
:101E70004101E6E4F1E080819181019680839183C4
:101E80000E94B1041092700110926F0110926E01C5
:101E900010926D0180E80E9496098823A9F0809134
:101EA000460190914701B2010E941112892B09F459
:101EB00021C18091EB0590916C0191115CC282303F
:101EC00090F01092EB050FC080E10E9496098111FD
:101ED000E6CF80E20E9496098111E1CF80E40E9462
:101EE00096098111DCCF8091460190914701B201A2
:101EF0000E941112892B29F48091E3058F5F809352
:101F0000E3058091E305823010F01092E3050E9412
:101F1000FA088093480180E80E949609882361F0BE
:101F20008091E705882341F081508093E705109266
:101F3000E90581E080936C0180E10E949609882385
:101F400099F02091E7058091E50540E450E0481BB9
:101F500051092417150644F42F5F2093E70582E00A
:101F60008093E90510926C0180E20E949609882313
:101F700051F08091E605882331F081508093E60589
:101F800083E08093E90580E40E949609882389F024
:101F90002091E6053091E40580E890E0831B9109EB
:101FA0002817190634F42F5F2093E60581E080930B
:101FB000E90588E00E949609882399F080917501CF
:101FC00081110FC0E9E4F1E090E080E020813181EF
:101FD0002F3F3F4F09F4D6C10196379685309105C2
:101FE000A9F780914601909147016AE070E00E9454
:101FF0001112892BA1F48091DE059091E6058917D5
:1020000008F07EC08F5F8093DE058091DF059091A0
:10201000E705891708F076C08F5F8093DF05209170
:10202000E90589E491E09C838B83EB81FC81268325
:10203000808191818F3F9807E1F0213009F064C0E1
:102040000196EB81FC8191838083EB81FC8180810F
:102050009181803891054CF4892B39F082819381EC
:102060008034910514F4892B21F4EB81FC813182B9
:1020700020824B815C81495F5F4F5C834B83641698
:10208000750699F6B9E4EB2EB1E0FB2EF70100815D
:1020900011810F3F100709F451C0F701A280B380EE
:1020A00098012D5F3F4F3A832983450133E0830E2A
:1020B000911C49815A810417150709F43FC0650135
:1020C000B7FE02C0D12CC12CC40151E48516910485
:1020D00014F080E490E0C816D9066CF500381105BC
:1020E00028F441E0B601C8010E9402098FEFC81A26
:1020F000D80AEACF8091EB058F5F8093EB05D9CEAC
:10210000815081CF815089CF233011F4019799CF2D
:10211000211108C0EB81FC81828193810197938317
:10212000828393CF223009F090CFEB81FC818281B2
:1021300093810196F4CF0F5F1F4FBBCF97E0E90E5D
:10214000F11CEB81FC81EE15FF0509F09FCF80911A
:102150007501882319F08150809375018091E805FD
:10216000882319F081508093E8052091EB05609158
:10217000E70570E08091E60590E0EDE5F8E0049178
:10218000EEE5F8E0E4904FE558E02223F1F041E07D
:1021900050E03E2D377011F450E040E03E2D369572
:1021A00036953695430F511D049FF001059FF00DA4
:1021B000112430E0220F331FE29FA001E39F500D56
:1021C000F29F500D1124415A574FE3E0CE2E30E0DC
:1021D00020E00E940C072091E3056091DF0570E08C
:1021E0008091DE0590E0EBE3F8E00491ECE3F8E0A9
:1021F000E4904DE358E02223F1F041E050E03E2D21
:10220000377011F450E040E03E2D36953695369506
:10221000430F511D049FF001059FF00D112430E084
:10222000220F331FE29FA001E39F500DF29F500D3C
:102230001124435C574F23E0C22E30E020E00E947F
:102240000C07E091E5055091E4054091E7056091A8
:10225000E60570E08091DF0590E02091DE0530E03A
:10226000D90118966A177B0714F5650F711D26179B
:102270003707ECF450E0BC01685F7F4F4617570703
:10228000B4F44E0F511D841795078CF44091E80566
:1022900041110DC040917101509172014F5F5F4F2C
:1022A000509372014093710142E34093E8056091BD
:1022B000730170917401E9E4F1E08C01085F1F4F34
:1022C000E080F18044814E0D5F2D511D24173507AC
:1022D0009CF4EA16FB0684F4E280F38045814E0DFF
:1022E0005F2D511D841795073CF4E016F10624F488
:1022F0006F5F7F4F3182208237964B815C814E1712
:102300005F07F1F6709374016093730110926E0190
:1023100010926D011092700110926F0190E080E0B8
:102320004AE00E94A80910926E0110926D0188E0A7
:1023300090E09093700180936F01609171017091B2
:10234000720190E080E04AE00E94A80910926E01BC
:1023500010926D0180E190E09093700180936F0185
:102360006091E80570E090E080E04AE00E94A809F2
:102370000E94A10925CD843008F4B5CD82E0809378
:10238000EB05B1CD27E0289FF001299FF00D112426
:10239000E75BFE4F8091E60590E09183808380911A
:1023A000E70590E00396938382838AE0809375012A
:1023B00018CEF999FECF92BD81BDF89A992780B5C4
:1023C0000895262FF999FECF1FBA92BD81BD20BD79
:1023D0000FB6F894FA9AF99A0FBE01960895A1E201
:1023E0001A2EAA1BBB1BFD010DC0AA1FBB1FEE1F8F
:1023F000FF1FA217B307E407F50720F0A21BB30BDA
:10240000E40BF50B661F771F881F991F1A9469F755
:1024100060957095809590959B01AC01BD01CF01B1
:102420000895AA1BBB1B51E107C0AA1FBB1FA6171B
:10243000B70710F0A61BB70B881F991F5A95A9F76D
:1024400080959095BC01CD010895EE0FFF1F05907A
:10245000F491E02D0994F894FFCF10FFFFFFFF00E7
:10246000E100000000000000C180810000000000C9
:1024700000001C0571063D053205830541055F0519
:0E2480000000000018093006A509A409F8099B
:1070000055C000006EC000006CC000006AC00000E7
:1070100068C0000066C0000064C0000062C00000DC
:1070200060C000005EC00000FCC400005AC0000048
:1070300058C0000056C0000054C0000052C00000FC
:1070400050C000005DC000004CC000004AC00000FD
:1070500048C0000046C0000044C0000042C000001C
:1070600040C000003EC000003CC000003AC000002C
:1070700038C0000036C0000034C0000032C000003C
:1070800030C000002EC000002CC000002AC000004C
:1070900028C0000026C0000024C0000022C000005C
:1070A00020C000001EC000001CC0000011241FBE34
:1070B000CFEFDAE0DEBFCDBF11E0A0E0B1E0E6E463
:1070C000FFE702C005900D92A43BB107D9F711E08C
:1070D000A4EBB1E001C01D92AD3CB107E1F74FD385
:1070E00030C78ECFF89410926F001092810081E02B
:1070F00085BF15BE47985D9A289A0C9400000895A4
:107100001F920F920FB60F9211242F938F939F937C
:10711000EF93FF9310928500109284008091B40148
:107120009091B501009741F001979093B50180933C
:10713000B401892B09F45D9A8091B6019091B70151
:10714000009741F001979093B7018093B601892B86
:1071500009F4289A8091BA019091BB01019690930D
:10716000BB018093BA01E0E0F0E0859194918F5FDC
:107170009F4F49F08091B8019091B9010196909389
:10718000B9018093B801FF91EF919F918F912F9159
:107190000F900FBE0F901F90189584E08093E90028
:1071A0000DC08091E8008B778093E80003C08EB318
:1071B000882351F08091E80082FFF9CF8091E800A8
:1071C00085FFEFCF8091F1000895982F83E08093A1
:1071D000E9008091E80085FD0DC08091E8008E7780
:1071E0008093E80003C08EB3882369F08091E800A3
:1071F00080FFF9CF9093F1005D9884E690E0909342
:10720000B5018093B40108954F925F926F927F927F
:107210008F929F92AF92BF92CF92DF92EF92FF92A6
:107220000F931F93CF93DF9384E08093E9008091C5
:10723000E80082FF57C2289884E690E09093B70157
:107240008093B601AADF182F853481F48CE49DE188
:107250009093B9018093B80107B600FCFDCFF9996E
:10726000FECF81E180935700E89503C0843519F47F
:1072700094DF8DE00DC28C34E1F38035D1F3843797
:1072800021F484E4A2DF80E003C2813611F489E5B1
:10729000FFC18134B1F481DF182F7FDF90E0880FC8
:1072A000991FAA2797FDA095BA2F312F330F20E001
:1072B000442737FD4095542F822B932BA42BB52BBD
:1072C000B8C1803711F483E5E3C1833549F4C0E0E8
:1072D000D1E089917ADF21E0C730D207D1F7D9C157
:1072E000863521F481E371DF80E3D2C1833731F445
:1072F00087E86BDF85E969DF8EE1CAC18536B9F4BD
:10730000E0E0F0E093E085E090935700E89507B661
:1073100000FCFDCF80935700E89507B600FCFDCF39
:10732000E058FF4FA0E7E030FA0771F7A2CF8237AD
:1073300039F4E1E0F0E089E0809357008491A8C13E
:10734000863439F4E0E0F0E089E0809357008491DE
:107350009FC18E3439F4E3E0F0E089E08093570078
:10736000849196C1813539F4E2E0F0E089E08093C0
:10737000570084918DC1823631F489E526DF80E0A3
:1073800024DF80E885C1823419F0873609F0E5C032
:107390001092B9011092B80100DF082FFEDEF82E1E
:1073A000FCDE682E8554823008F071C1902F80E099
:1073B000CF2DD0E0C82BD92B10926F00173609F0D3
:1073C0004BC081E180935700E895DD24CC24C39421
:1073D0003FC0E090BD01F090BE010091BF0110914F
:1073E000C001B6E46B16D9F4ED2DF0E0EE29FF29CB
:1073F000E4918E2FEADEDD2081F082E090E0A0E0D3
:10740000B0E0E80EF91E0A1F1B1FE092BD01F092CA
:10741000BE010093BF011093C001DC2418C0D80145
:10742000C701B695A7959795879575D5CEDE82E06D
:1074300090E0A0E0B0E0E80EF91E0A1F1B1FE092EA
:10744000BD01F092BE010093BF011093C0012197CE
:10745000209709F0BECF7DC08090BD019090BE0105
:10746000A090BF01B090C00196E4691609F05DC01C
:1074700083E0F40180935700E89507B600FCFDCF48
:1074800054C0F6E46F1661F5772031F1E090BD014C
:10749000F090BE010091BF011091C0017EDED82E98
:1074A000CC24852D90E08C299D29F7010C01409278
:1074B0005700E895112482E090E0A0E0B0E0E80EEB
:1074C000F91E0A1F1B1FE092BD01F092BE0100933E
:1074D000BF011093C00102C060DE582E742423C087
:1074E000E090BD01F090BE010091BF011091C0017C
:1074F00016950795F794E79450DE682FC70113D5CA
:107500008091BD019091BE01A091BF01B091C001D9
:107510000296A11DB11D8093BD019093BE01A09361
:10752000BF01B093C001219704C05524772444249F
:107530004394209709F0A5CF96E4691641F485E0BD
:10754000F40180935700E89507B600FCFDCF8DE06D
:107550003CDE82E080936F009CC0833471F4009124
:10756000BD011091BE0119DE90E021E0F8010C018F
:1075700020935700E89511247CCE833619F5E090CE
:10758000BD01F090BE010091BF011091C00105DE68
:10759000F701E16090E021E00C0120935700E895AD
:1075A000112482E090E0A0E0B0E0E80EF91E0A1F8E
:1075B0001B1FE092BD01F092BE010093BF0110932A
:1075C000C00157CE8D3661F4E091BD01F091BE014E
:1075D00085E080935700E89507B600FCFDCF49CEC3
:1075E000823551F4E091BD01F091BE0105911491F5
:1075F000812FEBDD802F4CC0843421F5E090BD015C
:10760000F090BE010091BF011091C0011695079541
:10761000F794E794C2DD682FC70185D48091BD013E
:107620009091BE01A091BF01B091C0010296A11D31
:10763000B11D8093BD019093BE01A093BF01B09393
:10764000C00117CE843609F5E090BD01F090BE016F
:107650000091BF011091C001D801C701B695A7954F
:107660009795879558D4B1DD82E090E0A0E0B0E036
:10767000E80EF91E0A1F1B1FE092BD01F092BE0129
:107680000093BF011093C00104C08B3111F08FE350
:107690009CDD83E08093E9009091E8008091E80010
:1076A0008E778093E80095FF04C010C08EB38823C6
:1076B000C9F08091E80080FFF9CF8091E8008E77D3
:1076C0008093E80003C08EB3882361F08091E800C6
:1076D00080FFF9CF84E08093E9008091E8008B7708
:1076E0008093E800DF91CF911F910F91FF90EF9071
:1076F000DF90CF90BF90AF909F908F907F906F90D2
:107700005F904F9008959091C501892F8F778132B6
:1077100049F58091C6018032A1F0813219F5913A84
:1077200009F58091E800877F8093E8008CE091E084
:1077300067E070E027D28091E8008B778093E800C3
:107740000895913279F48091E800877F8093E80072
:107750008CE091E067E070E079D28091E8008E776C
:107760008093E800089582E061EC42E0D1D083E0AC
:1077700061E842E1CDD084E060E842E1C9C01F93F6
:10778000209100081092000844B714BE88E10FB69B
:10779000F89480936000109260000FBE80E8E0E0F3
:1077A000F0E00FB6F89480936100E09361000FBEA3
:1077B00031E035BF92E095BF3F9A209A559A809369
:1077C00061001092610047985D9A289A1092890092
:1077D0008AEF8093880090936F0083E0809381000C
:1077E000859194918F5F9F4F11F03093BC01942F3E
:1077F00041FF19C0809109012817A9F08093000862
:10780000789480911301882339F08091BA01909186
:10781000BB018F5E9240C8F3F8941092000881E09B
:10782000809313010CC090FF04C08091BC01882399
:1078300051F493FF09C080910901281729F0809124
:10784000BC01882309F04EDCD4D078941092B901A1
:107850001092B8011EEF20C0D7DC4BD38091B80145
:107860009091B90181549F4110F0109213018091C1
:10787000C1019091C20101969093C2018093C10110
:10788000292F97FF03C0512F591B252F220F28178F
:1078900010F4479801C0479A809113018823E1F6BC
:1078A0008091E00081608093E0001CDC80E090E04B
:1078B0001F910895FA01923049F0933061F09130B0
:1078C000F9F484E191E022E130E01EC086E291E02B
:1078D0002EE330E019C0882329F484E691E024E007
:1078E00030E012C0813029F488E691E02EE130E0EA
:1078F0000BC0823029F488E891E02AE230E004C02D
:1079000080E090E020E030E091838083C901089519
:107910008093E9008091EB0081608093EB001092EE
:10792000ED006093EC004093ED008091EE00881F25
:107930008827881F08958091C50188238CF403C08F
:107940008EB38823B1F08091E80082FFF9CF809157
:10795000E8008B778093E80008958EB3882349F080
:107960008091E80080FFF9CF8091E8008E778093C6
:10797000E8000895EF92FF920F931F9345D04CD0EB
:1079800008ED10E0F80180818F7780838081806826
:10799000808380818F7D808319BC1EBA1092C301C1
:1079A00080EEE82EF12CF70180818B7F8083F80137
:1079B00080818160808380E060E042E0A9DFE1EEC9
:1079C000F0E080818E7F8083E2EEF0E08081816054
:1079D0008083808188608083F70180818E7F8083AF
:1079E000F8018081806180831F910F91FF90EF905B
:1079F0000895E7EDF0E08081816080838AE482BFB2
:107A000081E08093C401B6CFE8EDF0E080818E7F05
:107A100080831092E20008951092DA001092E10043
:107A200008951F920F920FB60F9211242F933F9338
:107A30004F935F936F937F938F939F93AF93BF9376
:107A4000EF93FF938091DA0080FF1BC08091D800F4
:107A500080FF17C08091DA008E7F8093DA008091DA
:107A6000D90080FF0BC080E189BD82E189BD09B4E6
:107A700000FEFDCF81E08EBB3BD203C019BC1EBA15
:107A800037D28091E10080FF17C08091E20080FF33
:107A900013C08091E2008E7F8093E2008091E2002B
:107AA00080618093E2008091D80080628093D8004A
:107AB00019BC85E08EBB1CD28091E10084FF2CC0F4
:107AC0008091E20084FF28C080E189BD82E189BD08
:107AD00009B400FEFDCF8091D8008F7D8093D8003F
:107AE0008091E1008F7E8093E1008091E2008F7EA3
:107AF0008093E2008091E20081608093E2008091B7
:107B0000C301882331F48091E30087FD02C081E046
:107B100001C084E08EBBECD18091E10083FF21C0E5
:107B20008091E20083FF1DC08091E100877F8093F8
:107B3000E10082E08EBB1092C3018091E1008E7F54
:107B40008093E1008091E2008E7F8093E20080913B
:107B5000E20080618093E20080E060E042E0D8DEF5
:107B6000C7D1FF91EF91BF91AF919F918F917F917D
:107B70006F915F914F913F912F910F900FBE0F909A
:107B80001F9018959C014091CB015091CC01461754
:107B9000570718F4F90190E044C06115710511F020
:107BA000AB01F8CF8091E8008E778093E80040E049
:107BB00050E0F0CF8EB3882309F444C0853009F437
:107BC00043C08091E80083FF02C081E00895809166
:107BD000E80082FD31C08091E80080FF22C08091E2
:107BE000F3009091F200782F60E0292F30E0262BEF
:107BF000372B07C081918093F100415050402F5F97
:107C00003F4F4115510519F02830310598F390E0A8
:107C10002830310509F491E08091E8008E77809357
:107C2000E8004115510531F6992321F605C08EB3C0
:107C3000882341F0853041F08091E80082FFF7CF42
:107C400080E0089582E0089583E008959C01611525
:107C5000710529F48091E8008B778093E800F901A1
:107C600026C08EB3882391F1853091F18091E80090
:107C700083FF02C081E008958091E80082FFF1CF88
:107C800006C08091F10081936150704059F02091BD
:107C9000F3008091F200322F20E090E0822B932BB2
:107CA000892B79F78091E8008B778093E800611544
:107CB0007105B9F605C08EB3882341F0853041F0D7
:107CC0008091E80080FFF7CF80E0089582E008957A
:107CD00083E008950F931F93DF93CF9300D0CDB728
:107CE000DEB7E5ECF1E08091F100819381E0ED3CBD
:107CF000F807C9F708DD8091E80083FFE4C08091B0
:107D0000C5019091C601953009F46DC0963040F4DC
:107D1000913081F1913070F0933009F0D4C02AC0D5
:107D2000983009F4A3C0993009F4B2C0963009F034
:107D3000CAC07CC0803809F4C6C0823809F0C3C00C
:107D40008091C90187708093E9008091EB001092C7
:107D5000E9002091E800277F2093E80090E025E0EB
:107D6000969587952A95E1F781708093F10010929E
:107D7000F10087C0882319F0823009F0A4C08F7108
:107D8000823009F0A0C08091C701882331F520918D
:107D9000C901277009F497C02093E9008091EB0096
:107DA00080FF1BC0933021F48091EB00806213C0F0
:107DB0008091EB0080618093EB0081E090E002C055
:107DC000880F991F2A95E2F78093EA001092EA0043
:107DD0008091EB0088608093EB001092E900809125
:107DE000E800877F51C0882309F06DC01091C7015A
:107DF0001F770FB7F8948091E800877F8093E800A1
:107E00009ADD8091E80080FFFCCF8091E3008078CC
:107E1000812B8093E30080688093E300112311F4A9
:107E200082E001C083E08EBB0FBF4DC0805882301E
:107E300008F049C08091C7019091C8016091C901C3
:107E4000AE014F5F5F4F36DDBC01009709F43BC0C8
:107E50008091E800877F8093E80089819A8192DE93
:107E60008091E8008B778093E8002DC0803859F529
:107E70008091E800877F8093E8008091C301809320
:107E8000F1008091E8008E778093E80054DD1BC0FC
:107E90008823C9F49091C7019230A8F48091E8003A
:107EA000877F8093E8009093C30145DD8091C301F3
:107EB000882331F48091E30087FD02C081E001C096
:107EC00084E08EBB50DC8091E80083FF0AC0809183
:107ED000EB0080628093EB008091E800877F8093C5
:107EE000E8000F900F90CF91DF911F910F910895AF
:107EF00008951F938EB3882361F01091E9001092CA
:107F0000E9008091E80083FF01C0E4DE1770109360
:107F1000E9001F910895F999FECF92BD81BDF89AAD
:107F2000992780B50895262FF999FECF1FBA92BDE3
:107F300081BD20BD0FB6F894FA9AF99A0FBE01964A
:107F40000895F894FFCF4341544552494E4100777C
:107F500000080000000000000801120110010200EA
:107F600000084F1B059201000201000109023E00BA
:107F70000201008032090400000102020100052410
:107F800000100104240204052406000107058203F1
:107F90000800FF09040100020A00000007050402AE
:107FA00010000107058302100001040309041E03E9
:107FB000500072006F0020004D00690063007200E5
:107FC0006F002000350056002000200000002A032A
:107FD00053007000610072006B00460075006E0077
:107FE000200045006C0065006300740072006F00A3
:0A7FF0006E006900630073000000DA
:00000001FF
