:100000000C9487040C94AF040C94AF040C94AF04CC
:100010000C94AF040C94AF040C94AF040C94AF0494
:100020000C94AF040C94AF040C94980A0C94070B36
:100030000C94AF040C94AF040C94AF040C94AF0474
:100040000C94AF040C94AF040C94AF040C94AF0464
:100050000C94AF040C94AF040C94AF040C94390DC1
:100060000C94AF040C94AF040C94AF040C94AF0444
:100070000C94AF040C94AF040C94AF040C94AF0434
:100080000C94AF040C94AF040C94AF040C94AF0424
:100090000C94AF040C94AF040C94AF040C94AF0414
:1000A0000C94AF040C94AF040C94AF040000000057
:1000B000003E5B4F5B3E3E6B4F6B3E1C3E7C3E1CEE
:1000C000183C7E3C181C577D571C1C5E7F5E1C0034
:1000D000183C1800FFE7C3E7FF0018241800FFE7EB
:1000E000DBE7FF30483A060E2629792926407F05AE
:1000F0000507407F05253F5A3CE73C5A7F3E1C1CC4
:1001000008081C1C3E7F14227F22145F5F005F5F83
:1001100006097F017F006689956A6060606060946F
:10012000A2FFA29408047E040810207E2010080874
:100130002A1C08081C2A08081E101010100C1E0C7F
:100140001E0C30383E3830060E3E0E060000000011
:100150000000005F00000007000700147F147F14F8
:10016000242A7F2A1223130864623649562050003D
:1001700008070300001C2241000041221C002A1C29
:100180007F1C2A08083E0808008070300008080814
:100190000808000060600020100804023E51494534
:1001A0003E00427F400072494949462141494D3352
:1001B0001814127F1027454545393C4A49493141B9
:1001C000211109073649494936464949291E000087
:1001D00014000000403400000008142241141414DC
:1001E0001414004122140802015909063E415D59C8
:1001F0004E7C1211127C7F494949363E41414122D1
:100200007F4141413E7F494949417F090909013EFA
:10021000414151737F0808087F00417F4100204021
:10022000413F017F081422417F404040407F021C33
:10023000027F7F0408107F3E4141413E7F0909094A
:10024000063E4151215E7F09192946264949493216
:1002500003017F01033F4040403F1F2040201F3FDC
:100260004038403F63140814630304780403615961
:10027000494D43007F4141410204081020004141A3
:10028000417F04020102044040404040000307084F
:100290000020545478407F2844443838444444284B
:1002A000384444287F385454541800087E090218F2
:1002B000A4A49C787F0804047800447D400020407A
:1002C000403D007F1028440000417F40007C0478BE
:1002D00004787C080404783844444438FC18242406
:1002E0001818242418FC7C08040408485454542486
:1002F00004043F44243C4040207C1C2040201C3C03
:100300004030403C44281028444C9090907C4464F9
:10031000544C44000836410000007700000041368C
:10032000080002010204023C2623263C1EA1A16112
:10033000123A4040207A3854545559215555794144
:100340002154547841215554784020545579400C1B
:100350001E527212395555555939545454593955FC
:100360005454580000457C410002457D420001453F
:100370007C40F0292429F0F0282528F07C545545AC
:10038000002054547C547C0A097F4932494949323F
:100390003248484832324A4848303A4141217A3A54
:1003A00042402078009DA0A07D39444444393D401E
:1003B00040403D3C24FF2424487E4943662B2FFCCB
:1003C0002F2BFF0929F620C0887E09032054547979
:1003D000410000447D413048484A32384040227A4A
:1003E000007A0A0A727D0D19317D2629292F2826C7
:1003F0002929292630484D402038080808080808CF
:100400000808382F10C8ACBA2F102834FA00007B27
:10041000000008142A142222142A1408950022002D
:1004200095AA005500AAAA55AA55AA000000FF00E7
:10043000101010FF00141414FF001010FF00FF1024
:1004400010F010F0141414FC001414F700FF000056
:10045000FF00FF1414F404FC141417101F10101FD5
:10046000101F1414141F00101010F0000000001FC3
:10047000101010101F10101010F010000000FF10CE
:100480001010101010101010FF10000000FF1400CA
:1004900000FF00FF00001F10170000FC04F41414FC
:1004A0001710171414F404F40000FF00F7141414C8
:1004B00014141414F700F7141414171410101F1048
:1004C0001F141414F4141010F010F000001F101F6B
:1004D0000000001F14000000FC140000F010F010D9
:1004E00010FF10FF141414FF141010101F00000050
:1004F00000F010FFFFFFFFFFF0F0F0F0F0FFFFFF54
:100500000000000000FFFF0F0F0F0F0F38444438AA
:10051000447C2A2A3E147E02020606027E027E02E5
:1005200063554941633844443C04407E201E200604
:10053000027E020299A5E7A5991C2A492A1C4C7241
:1005400001724C304A4D4D303048784830BC625AC8
:10055000463D3E494949007E0101017E2A2A2A2A58
:100560002A44445F444440514A444040444A514034
:100570000000FF0103E080FF000008086B6B0836F5
:1005800012362436060F090F060000181800000066
:100590001010003040FF0101001F01011E00191D55
:1005A0001712003C3C3C3C0000000000D5F08D14CC
:1005B000A1C881CFD9F1AF20008022000000000047
:1005C000000004068E8E9B59567C5858404080800F
:1005D000000000000000000000000000000000001B
:1005E000000000000000000000000000000000000B
:1005F00000000000000000000000000000000000FB
:1006000000000000000000000000000000000000EA
:1006100000000000000000000000000000000000DA
:1006200000000000000000000000000000000000CA
:1006300000000000000000000000000000000000BA
:10064000E05C46213514D6D2101617171016D4D5F3
:100650001D314658E000C0408000000000000080CE
:100660004020101020408000E0101010101020C01A
:1006700000F01010101020408000F000000000007A
:1006800000F000E0101010101020C000C02010106A
:10069000101020C000F00000000000F0000000007A
:1006A000000000000000000000000000000000004A
:1006B000000000000000000000000000000000003A
:1006C000FF0000C00004091938F8F8F8F8F8F9F943
:1006D000F80480C043221110090E00000000007FC2
:1006E0000404040404047F007F0404040C14224165
:1006F000007F4040404020100F001F2040404040FD
:10070000201F007F42424242424538001F204040A5
:100710004040201F000001027C0201000000000098
:1007200000000000000000000000000000000000C9
:1007300000000000000000000000000000307058C1
:100740004F4020608182868E5F3F3F3F3F3F5F8FFB
:100750008380887700000000000000000000000097
:100760000000000000000000000000000000000089
:100770000000000000000000000000000000000079
:100780000000000000000000000000000000000069
:100790000000000000000000000000000000000059
:1007A0000000000000000000000000000000000049
:1007B0000000000000000000000000000000000039
:1007C0000000000000000000000000000000000029
:1007D0000000000000000000000000000000000019
:1007E0000000000000000000000000000000000009
:1007F00000000000000000000000000000000000F9
:1008000000000000000000000000000000000000E8
:1008100000000000000000000000000000000000D8
:1008200000000000000000000000000000000000C8
:10083000000000000000000000000008083CFF422B
:10084000FF8DFFA1FF8DFF42FF3CFF00FF30FF48FF
:10085000FF94FF84FF84FF94FF48FF30FF080800E7
:10086000FF17FFF9FF7FFF7FFF79FF17FF20FF20B2
:10087000FF17FF79FF7FFF7FFFF9FF17FF00FF00E2
:10088000FF17FFFFFF47FF47FF7FFF17FF20FF20F6
:10089000FF17FF7FFF47FF47FFFFFF17FF00FF081E
:1008A0000B00020202000009040000010202000025
:1008B0000524001001052401010104240206052479
:1008C0000600010705810310004009040100020A27
:1008D00000000007050202400000070583024000F7
:1008E000000403090412010002EF02014041233613
:1008F0008000010102030141726475696E6F204C32
:100900004C4300414250313330360000B60D1124C3
:100910001FBECFEFDAE0DEBFCDBF11E0A0E0B1E057
:10092000E2E5F4E202C005900D92A034B107D9F7D8
:1009300025E0A0E4B1E001C01D92AE3EB207E1F7B0
:1009400014E0C7E8D4E004C02197FE010E94211200
:10095000C638D107C9F70E94E00D0C9427120C94F9
:10096000000090E0E4E9F1E091119FEF8FEF9193A7
:100970009193919391938150D0F708959C01295FB1
:100980003F4F2738310578F59C0197FF02C030E0D2
:1009900020E008968138910514F080E890E0821BF1
:1009A000AB014770552791E001C0990F4A95EAF7CE
:1009B00077FF02C0695F7F4FFB0143E0F595E79544
:1009C0004A95E1F7F695FE2FEE27F795E795E20FAA
:1009D000F31FEC56FE4F815030F02191DF0111974B
:1009E000292B2C93F8CF0895E4E9F1E0A0E0B8E0DA
:1009F00000800EBC8111012C1197A0FDFDCF01924A
:100A0000B9F70DB40895FC0180919301882311F189
:100A10003FB7F89482E08093E9002091F200822FA2
:100A200090E01816190614F481E090E0882339F05C
:100A3000289844E6409392014091F100408322239C
:100A400039F02091F200211103C02BE62093E80039
:100A50003FBF08958FEF9FEF08952FB7F89483E07D
:100A60008093E9009091E800892F807295FF04C07F
:100A70009091F20080E4891B2FBF089580918A0134
:100A800081110DC082E08093860184E0809387010C
:100A9000109289011092880181E080938A0186E892
:100AA00091E00895CF93DF931F92CDB7DEB76983AE
:100AB000DC01ED91FC910280F381E02D41E050E0FA
:100AC000BE016F5F7F4F09950F90DF91CF91089521
:100AD00083E08093E9008091F200882319F08AE393
:100AE0008093E80008950E942D0590E00895CF932B
:100AF000DF931F92CDB7DEB7FC018485958597FD06
:100B000008C02FEF3FEF358724870F90DF91CF91FB
:100B10000895CE0101960E940305019719F4898179
:100B200090E0F3CF8FEF9FEFF0CF0F931F93CF9312
:100B3000DF931F92CDB7DEB78C01FC0184859585CC
:100B400097FF0BC0CE0101960E940305019771F437
:100B5000898190E0F80195878487F80184859585DF
:100B60000F90DF91CF911F910F9108958FEF9FEF1D
:100B7000F1CFFC018485958597FD0BC09FB7F89454
:100B800082E08093E9008091F2009FBF90E001969F
:100B900008959FB7F89482E08093E9008091F20075
:100BA0009FBF90E008954091800150918101209174
:100BB0007E0130917F0142175307B4F49091E80011
:100BC0009570E1F39091E80092FD19C08093F100D7
:100BD000809180019091810101968F739927892BD3
:100BE00019F48EEF8093E80080918001909181014B
:100BF0000196909381018093800181E0089580E0C7
:100C00000895DF92EF92FF920F931F93CF93DF939C
:100C1000D82E8A01EB017B01E40EF51ECE15DF050F
:100C200059F0D7FE12C0FE0184910E94D30521968F
:100C30008111F4CF0FEF1FEFC801DF91CF911F910A
:100C40000F91FF90EF90DF9008958881EECF0F9382
:100C50001F93CF93DF931F92CDB7DEB782E08983D6
:100C600042E450E06FE978E080E80E9401060E94CB
:100C70003E05DC0112960D911C910115110589F0BC
:100C8000D801ED91FC910280F381E02DBE016F5FF0
:100C90007F4FC801099597FD04C0F80100851185B3
:100CA000ECCF89810F90DF91CF911F910F91089523
:100CB000615030F02091F100FC0120830196F8CFC3
:100CC000289884E68093920108950895AF92BF9288
:100CD000CF92DF92EF92FF920F931F93CF93DF9308
:100CE0006C017B018B01040F151FEB015E01AE1837
:100CF000BF08C017D10759F06991D601ED91FC9159
:100D00000190F081E02DC6010995892B79F7C50185
:100D1000DF91CF911F910F91FF90EF90DF90CF90D7
:100D2000BF90AF900895FC010E942A07319728F0E8
:100D300068517C4F8F4F9F4FF9CFAB01FC010E9450
:100D40002A07641775078E079F07C8F308958F92C7
:100D50009F92AF92BF92CF92DF92EF92FF920F934A
:100D60001F93CF93DF936C017B018A01809118015F
:100D7000882309F45AC080919301882309F455C04F
:100D80008091850180FF05C08091E00082608093A2
:100D9000E000E801B12C8AEFA82E93E0892E2AE327
:100DA000922E209711F4BB20C9F10E942D058111CC
:100DB00008C0AA94AA20C9F181E090E00E9493069D
:100DC000F0CF8C171D0611F00CF08C2F9FB7F89404
:100DD0008092E9002091E80025FD02C09FBFE1CF8D
:100DE000282F30E0C21BD30BF701815020F0419136
:100DF0004093F100FACFE20EF31EBB2021F0909257
:100E0000E800B12CEBCF8091E80085FDE7CF909210
:100E1000E800BB24B394209709F3F3CF5D9884E6F0
:100E200080938401101611063CF081E090E0F601F9
:100E30009383828310E000E0C801DF91CF911F917E
:100E40000F91FF90EF90DF90CF90BF90AF909F9069
:100E50008F900895A8E4B1E02FB7F8947D918D911B
:100E60009C9166B52FBFA89B05C06F3F18F47F5FAC
:100E70008F4F9F4F22E0660F771F881F991F2A957B
:100E8000D1F708954F925F926F927F928F929F92C7
:100E9000AF92BF92CF92DF92EF92FF920F931F9388
:100EA000CF93DF934C015901FC2DC02FD0E0CE0130
:100EB000880D991D181619060CF06CC020E88216D2
:100EC00091040CF067C09B012E0D311D1216130604
:100ED0000CF060C0603471050CF05CC04115510528
:100EE00009F458C0E62FE770FE2EDB0177FD179658
:100EF00033E0B595A7953A95E1F73A2F77FF04C00F
:100F0000FF2011F03FEF3A0F66277727681979091C
:100F100097FC02C070E060E0803891050CF44BC093
:100F200090E89819961BA32F032E000CBB0B1A2FC9
:100F300010953F3F0CF010E021E08E2D877009F4F2
:100F400020E0E694E694E694E20EAE0DB11D19970A
:100F50001CF028E0E22EE31AE11A310F20E83203F8
:100F6000D0011124A80DB91DA60FB71F019F600D58
:100F7000711D1124460F571F0F2D0F2C000C110B44
:100F8000F33009F41CC1C8F4F13009F4D0C0F230D8
:100F900009F47CC0DF91CF911F910F91FF90EF90EA
:100FA000DF90CF90BF90AF909F908F907F906F9089
:100FB0005F904F900895902FB5CFFA3FB1F1232F56
:100FC0002E0DFB3F39F7321729F3BD016C567E4FCA
:100FD000D12CC12CC91608F0A4C0FA01EC0DFD1DDE
:100FE000E491F0E04F01002E02C0880C991C0A9495
:100FF000E2F737FD06C0FB018081E82CE0948E21EA
:101000008083FF2061F0373054F45B01F0E8AF0ECD
:10101000B11CE92CE094F50180818E218083FFEFE3
:10102000CF1ADF0A6F5F7F4FD5CF232F2E0D3217D8
:1010300009F4B0CFBD016C567E4FD12CC12CC9161E
:1010400008F069C0FA01EC0DFD1DE491F0E04F01DC
:10105000002E02C0880C991C0A94E2F737FD04C0E8
:10106000FB01808188298083FF2051F0373044F4D0
:101070005B01F0E8AF0EB11CF50180818929808306
:10108000FFEFCF1ADF0A6F5F7F4FD9CF6FEF70E0AE
:101090000F2C02C0660F771F0A94E2F760957095D7
:1010A000772E232F2E0D321709F474CFFD01EC5645
:1010B000FE4F6F01B12CA12CA91638F5FA01EA0DEB
:1010C000FB1DE491F0E02F01002E02C0440C551CE2
:1010D0000A94E2F737FD05C0F60180818623842952
:1010E0008083FF2059F037304CF44601F0E88F0E32
:1010F000911CF4018081872185298083FFEFAF1A3D
:10110000BF0A8FEFC81AD80AD7CF3F5F4C0F5D1FB9
:10111000A058BF4FC8CF3F5F4C0F5D1FA058BF4FB7
:1011200086CF3F5F4C0F5D1FA058BF4F4CCF6A0D5D
:101130007B1D232F2E0D321709F42CCFFD01EC5609
:10114000FE4F6F01B12CA12CA91688F5FB01EA0D09
:10115000FB1D8490912C002E02C0880C991C0A94CF
:10116000E2F780949094FA01EA0DFB1D6490712CD3
:10117000002E02C0660C771C0A94E2F737FD05C00A
:10118000F6018081882186298083FF2049F037304D
:101190003CF4F601E058FF4F808189218729808344
:1011A000FFEFAF1ABF0A8FEFC81AD80ACDCF3F5F43
:1011B0004C0F5D1F6C0F7D1FA058BF4FBCCFC92EB9
:1011C000D12CFA01E60FF71FAC56BE4F00E810E035
:1011D0000C191D09CC19DD09BE01660F771F41E00E
:1011E00050E06A010F2C01C0CC0C0A94EAF7592F89
:1011F0002E2D792ECF93DF93ED01EF96EF96229669
:101200008590A590FF2059F08C9C4001AC9C50012A
:1012100037302CF4E880B094EB20E928E9923323AE
:101220003AF0EC90A094EA20E828ED920C94190989
:1012300011965A9529F72A9551F0572D3395112477
:10124000E60FF11DA00FB11DC00FD11DD9CFDF9149
:10125000CF9111249FCE2D9A089590E00C9493067F
:101260008FB18095807F669B88601C9B8460089509
:1012700090E1282F81E061FD84E060FD880F62FD30
:101280008295687F969FD0011124A20FAC56BE4F65
:101290000C90082A40FF08260C920895EF92FF92C6
:1012A0000F931F93CF93DF937C018B01040F111DCC
:1012B000EB0177FF02C0D0E0C0E0C80101341105A6
:1012C00014F080E490E0C817D9075CF480E8E816D1
:1012D000F10428F441E0BE01C7010E9438092196BB
:1012E000ECCFDF91CF911F910F91FF90EF90089578
:1012F0007F928F929F92AF92BF92CF92DF92EF92A6
:10130000FF920F931F93CF93DF936A30E9F480919C
:10131000790190917A01089690937A0180937901EE
:10132000109278011092770181E090E0DF91CF91E7
:101330001F910F91FF90EF90DF90CF90BF90AF90F3
:101340009F908F907F9008956D3071F30091770199
:1013500010917801C80104968438910508F03FC0C7
:10136000E0907901F0907A01C701079687349105E2
:10137000B0F585E0689FE0011124C455DF4F680196
:10138000712CC01BD10BFE01EC0DFD1DE49185E01D
:10139000781201C0E0E0912C812CAE2EB12C80E8B7
:1013A000C816D10458F4B701680D791D6034710571
:1013B00028F44E2F4170C6010E943809F501F595B9
:1013C000E7958FEF881A980A88E08816910429F724
:1013D00073948FEFC81AD80A86E07812D4CF0A5FC8
:1013E0001F4F10937801009377019ECFCF93C82FA2
:1013F0000E943009982F9C2381E09C1380E0CF91BC
:10140000089580E00C94F404089590E080E008953D
:101410008F929F92AF92BF920F931F93CF93DF93C0
:10142000CDB7DEB7A1970FB6F894DEBF0FBECDBF24
:1014300019A2423008F44AE08E010F5D1F4F842E3E
:10144000912CB12CA12CA50194010E94EB11E62F47
:10145000B901CA01EA3044F5E05DD801EE938D018F
:10146000232B242B252B79F790E080E0109769F04F
:10147000FD0101900020E9F73197AF014A1B5B0B9A
:10148000BD0184EE95E00E946606A1960FB6F89421
:10149000DEBF0FBECDBFDF91CF911F910F91BF90E7
:1014A000AF909F908F900895E95CD7CF0C94D511A1
:1014B0000F931F93CF93DF938C0181E090E00E9404
:1014C000560A80FF30C08AE090E00E94560A9FEFE3
:1014D000980F9E3F40F522E330E03093780120934F
:1014E000770128E330E030937A0120937901CBE053
:1014F000D0E0D801ED91FC910190F081E02D682FB2
:10150000C8010995CE010E94560A2196C131D10524
:1015100081F70E94010A88EE93E0DF91CF911F913D
:101520000F910C949306DF91CF911F910F91089525
:101530001F920F920FB60F9211248F939F93809159
:10154000E1009091E100937F9093E10083FF0FC051
:101550001092E90091E09093EB001092EC0092E37E
:101560009093ED001092930198E09093F00082FF29
:1015700022C093E09093E9009091F200992319F032
:101580009AE39093E80090918401992341F090911F
:101590008401915090938401911101C05D9A9091C2
:1015A0009201992341F09091920191509093920170
:1015B000911101C0289A84FF18C08091E2008E7EAC
:1015C00081608093E2008091E1008F7E8093E10052
:1015D000809185018E7E8061809385019F918F919E
:1015E0000F900FBE0F901F90189580FFF7CF80913E
:1015F000E2008E7E80618093E2008091E1008E7E29
:101600008093E100809185018E7E8160E5CF1F92FD
:101610000F920FB60F921124CF92DF92EF92FF92AA
:101620000F931F932F933F934F935F936F937F93EA
:101630008F939F93AF93BF93EF93FF93CF93DF93DA
:10164000CDB7DEB76C97DEBFCDBF1092E9008091B9
:10165000E80083FF25C068E0CE0145960E94580649
:1016600082EF8093E8008D8987FF39C09091E80070
:1016700090FFFCCF982F907609F034C19E894F8956
:10168000588D2F89F88C911131C0803861F5809187
:1016900083018093F1001092F1008EEF8093E800B7
:1016A0006C960FB6F894DEBF0FBECDBFDF91CF9121
:1016B000FF91EF91BF91AF919F918F917F916F912A
:1016C0005F914F913F912F911F910F91FF90EF905C
:1016D000DF90CF900F900FBE0F901F9018959EEF48
:1016E0009093E800C7CF1092F100D5CF913059F414
:1016F0008111D3CF4130510581F6809183018D7FD7
:1017000080938301CACF933049F48111C6CF413011
:10171000510519F6809183018260F2CF953041F432
:101720008091E80080FFFCCF20682093E300B5CFD4
:10173000963009F0A9C00B8D1C8D22E01092E900B3
:101740001092810110928001F2122EC010927F013E
:1017500010927E010E9427061F8299E09983FA82E7
:1017600091E09E8390EA98879AEF99872091800173
:1017700030918101275F3F4F3C832B838D831092F3
:10178000E900109281011092800110937F01009373
:101790007E0149E050E0BE016F5F7F4F80E00E9414
:1017A00001060E94270679CF10937F0100937E01E6
:1017B0000E943E05DC0112960D911C910115110548
:1017C00009F451C1D801ED91FC910480F581E02D1F
:1017D000BE016B5E7F4FC8010995009709F03EC1BD
:1017E000F80100851185EACFF3E0FF120EC08F8962
:1017F000882309F440C0823061F440E867E083E068
:1018000099E00E94830D811148CF81E28093EB0023
:1018100047CF813029F440E86BE087EF98E0F1CFC3
:10182000833099F70E943E05DC011296ED90FC9002
:101830008E010F5F1F4F6801E114F10479F0D701A9
:10184000ED91FC910680F781E02DB801C701099563
:10185000080F111DF701E084F184EECFD8011C922E
:10186000F60101900020E9F73197BF016C197D095D
:1018700040E0C601C6CF61EE78E0FB01449150E044
:1018800080E80E94010609CF973009F4BECF983056
:1018900021F481E08093F10000CF993009F0FDCE72
:1018A000837009F0B2CFEAE1F1E081E031E096E344
:1018B0002191222371F08093E9003093EB00DF0146
:1018C00011972C912093EC009093ED008F5F87305F
:1018D00079F78EE78093EA001092EA008F8980936F
:1018E0009301DBCE8B8D9C8D1092E90010928101CB
:1018F0001092800190937F0180937E01898D8111E8
:1019000092C08E899D89913A49F4813209F07DCF48
:1019100047E050E061E171E080E0B3CF913209F03F
:1019200074CF833269F48F89988DB0E0A0E0809302
:101930000D0190930E01A0930F01B0931001ADCE55
:10194000803269F48091E80082FFFCCF67E081E19A
:1019500091E00E9458068BEF8093E8009ECE823281
:1019600009F09BCE8F8980931801EEEFFFE78591F8
:1019700094918B3F9C4D51F1E0E0F8E08091110192
:1019800090911201A0911301B0911401803B9440F9
:10199000A105B105F1F48091180180FD1AC0EE3F58
:1019A0008AE0F80789F587E797E79183808380913C
:1019B00060008093820188E19BE00FB6F894A895BF
:1019C000809360000FBE9093600067CEEEEFFAE068
:1019D000D5CF808191818737974709F05ECEA89552
:1019E0008091600088618093600080918201809383
:1019F0006000EE3F2AE0F20789F08091FE0A9091A4
:101A0000FF0A9183808349CE80819181873798072F
:101A100051F29093FF0A8093FE0AC5CF1092FF0AFD
:101A20001092FE0A3ACE0E943E05DC0112960D91FC
:101A30001C910115110509F4E8CED801ED91FC9136
:101A40000190F081E02DBE016B5E7F4FC8010995CA
:101A5000811123CEF80100851185EBCF18161906E8
:101A60000CF41BCED2CEF1E0FF12BECE65EE78E0D4
:101A700004CF0F920FB68F939F93EF93FF938091B4
:101A800047018D5F8D3708F08D5780934701EEE455
:101A9000F1E080818E4F808391819F4F918382817D
:101AA0008F4F828383818F4F8383E8E4F1E08081CD
:101AB0008F5F808381818F4F818382818F4F82836B
:101AC00083818F4F83838FB18F6066991C9B88279A
:101AD0008F3681F480914601981B963068F0E0E0E3
:101AE000F8E087E78083818388E180936000F0934A
:101AF0006000FFCF90934601FF91EF919F918F91EE
:101B00000FBE0F901895EF92FF920F931F93CF93F4
:101B1000DF93F82E192FE62E042F81E0860F880F11
:101B20000E94D30583E00E94D305CF2DD12FEC0E68
:101B3000FD2EF11CCE15DF05B9F007FF13C0FE0125
:101B400084910E94D305182F80E00E94D305812341
:101B500021968111EFCFDF91CF911F910F91FF90CF
:101B6000EF9008958881EDCF81E0F5CFE4E9F5E0CD
:101B70001382128288EE93E0A0E0B0E08483958324
:101B8000A683B78384E291E0918380838FEF9FEFF8
:101B900095878487E8EEF5E088E790E0918380837D
:101BA0008EE190E09383828388E084838583E4EEF2
:101BB000F5E01382128286E391E091838083089599
:101BC000789483E084BD83E085BD81E080936E00DE
:101BD000E1E8F0E083E08083E0E881E08083E1E910
:101BE00083E08083E0E981E08083E1EC87E080832B
:101BF000E3EC81E08083E0EC82E08083E2EC81E052
:101C00008083EAE787E08083806880831092930175
:101C100010928301109285018091D700816080939A
:101C2000D70080EA8093D80089B5806189BD89B5E5
:101C3000826089BD09B400FEFDCF81E090E00E9482
:101C400093068091D8008F7C80618093D80080912A
:101C5000E000807F8093E0008091E1008E7E8093A1
:101C6000E1008DE08093E200559A209A81EC809308
:101C70007C0081EF85B987EE84B984E38BB984EF6A
:101C80008AB9769A6E9880EF81BB10BA80E58CBDD8
:101C900081E08DBD85E00E942D095F9A85E00E945C
:101CA0002D095C98ECEAF5E085918EBD00000DB43D
:101CB00007FEFDCFE93BC1F75C9A81E880936400A1
:101CC00081E0809365000E94F40480E80E94F60998
:101CD0008823A9F05C9885EA8EBD00000DB407FE4C
:101CE000FDCF5C9A2E982F982D9880916400806289
:101CF0008093640081E083BF889513BEFCCF84E0AD
:101D00000E94F609882309F445C02D9884E80E94B2
:101D1000F6098823D9F00E942B0988EC0E942D092E
:101D20002F9882E090E00E94D5118F3F29F06FEF4D
:101D300082E090E00E94DD1184EF91E00E94930622
:101D40002F9A84E80E94F6098111FBCF84E10E945A
:101D5000F6098823D9F00E942B0988EC0E942D09EE
:101D60002E9882E090E00E94D511882329F060E04F
:101D700082E090E00E94DD1184EF91E00E949306E2
:101D80002E9A84E10E94F6098111FBCF88EC0E9413
:101D90002D09B5CF0E942B0982E090E00E94560ADF
:101DA000882309F464C03E9A3F9A81E090E00E9443
:101DB000560A182F147081FF16C011112E98C1EF0A
:101DC000DFEF99EB892E95E0992E2AEBA22E25E0E4
:101DD000B22E80E40E94F609882309F44BC02E9AA3
:101DE0002F9A0E942B0982E30E942D090E9430093C
:101DF0008111F9CF80E1809300010E94B10410921B
:101E00007A011092790110927801109277010E9464
:101E1000010A23E731E015E5A12E11E0B12E4FEFC5
:101E20005FEF83E0F5015183408384838583F6E08F
:101E3000AF0EB11C2A153B05A9F788E78093030173
:101E40008EE180930401C5E02C2E312C44244A9469
:101E5000542C80914C01882309F43AC010924C0113
:101E600080E090E0892BA9F30E940000F2CF3E9819
:101E70003F989BCF112329F0C430D10511F42E9A3D
:101E80002F9881E00E94F404F4010491F501E4909C
:101E900082E0C82E30E020E04BEB55E0BE0184E14B
:101EA00090E00E9442070E94010A8FE00E942D09E3
:101EB0002196C931D10509F08CCF112311F02F9A49
:101EC0002D9880E991E00E9493060E942B098BCF08
:101ED00090914E0180914D01292F281B822F209136
:101EE0000001821748F48F5F821708F0B9CF81E0B4
:101EF00083BF889513BEB4CF81E080934C0190934B
:101F00004D01E2E5F1E0808191810196808391832A
:101F10000E94B10410927A01109279011092780116
:101F20001092770180E80E94F6098823A9F0809139
:101F3000520190915301B1010E940D12892B09F4B5
:101F400009C180910C0190917601911111C28230EA
:101F500090F010920C010FC080E10E94F6098111EF
:101F6000E6CF80E20E94F6098111E1CF80E40E9471
:101F7000F6098111DCCF8091520190915301B1019A
:101F80000E940D12892B29F4809106018F5F8093A6
:101F9000060180910601823010F0109206010E9425
:101FA00030098093540180E80E94F609882381F06B
:101FB00080910A01882361F0815080930A0181E0B9
:101FC0008093760110927501109274011092730142
:101FD00080E10E94F6098823B9F080910A0190916E
:101FE000080120E430E0291B31098217130664F44C
:101FF0008F5F80930A011092760181E080937501D2
:10200000109274011092730180E20E94F6098823F5
:1020100081F080910901882361F08150809309014A
:10202000109276011092750181E0809374011092F4
:10203000730180E40E94F6098823B9F080910901B8
:102040009091070120E830E0291B3109821713061F
:1020500064F48F5F809309011092760110927501EC
:102060001092740181E08093730188E00E94F60968
:10207000882399F080917D0181110FC0E5E5F1E0A1
:1020800090E080E0208131812F3F3F4F09F477C1FC
:102090000196369685309105A9F72091730130910C
:1020A00074014091750150917601C5E5D1E08881B8
:1020B00099818F3F980761F0222319F00196998347
:1020C0008883332329F088819981019799838883B4
:1020D0008A819B818F3F9807E1F0442319F0019694
:1020E0009B838A83552329F08A819B8101979B8357
:1020F0008A8388819981803891054CF4892B39F045
:102100008A819B818034910514F4892B11F45982C2
:1021100048822696AC16BD0651F6B5E5EB2EB1E029
:10212000FB2EF70180809180FFEF8F169F06C1F094
:10213000F7016280738084010D5F1F4F8016910646
:1021400079F043E0B301C4010E944E09FFEF8F1AFA
:102150009F0AF4CF80910C018F5F80930C01F1CE28
:1021600026E0E20EF11CCE15DF05D9F680917D0147
:10217000882319F0815080937D0120910C0160919A
:102180000A0170E010910901812F90E0EDE5F8E07F
:102190000491EEE5F8E0E4904FE558E02223F1F0F9
:1021A00041E050E03E2D377011F450E040E03E2D0C
:1021B000369536953695430F511D049FF001059FC6
:1021C000F00D112430E0220F331FE29FA001E39FA6
:1021D000500DF29F500D1124415A574FE3E0CE2E7F
:1021E00030E020E00E9442078090EA059090EB05E5
:1021F0006090E8057090E905F0E48F16910420F4F2
:10220000B401C3010E94BE04B401695F7F4F603412
:10221000710518F4C3010E94BE0448E0B401C30173
:102220000E944E0948E0B401C30107960E944E097E
:10223000209106016091040170E08091030190E01B
:10224000EBE3F8E00491ECE3F8E0E4904DE358E0D0
:102250002223F1F041E050E03E2D377011F450E0C0
:1022600040E03E2D369536953695430F511D049F1F
:10227000F001059FF00D112430E0220F331FE29F83
:10228000A001E39F500DF29F500D1124435C574F66
:1022900023E0C22E30E020E00E9442072091EC05AE
:1022A000260D372D311D4091ED05480D592D511D3D
:1022B00080917B0190917C01E5E5F1E0A081B18105
:1022C00064816A0F7B2F711D6616770694F4A2173E
:1022D000B3077CF4A281B38165816A0F7B2F711DE6
:1022E0008616970634F4A417B5071CF4019651829C
:1022F00040823696CE17DF0709F790937C018093D2
:102300007B01109278011092770110927A0110925D
:102310007901612F70E090E080E04AE00E94080AB5
:10232000109278011092770188E090E090937A0102
:102330008093790160910A0170E090E080E04AE0CA
:102340000E94080A1092780110927701E0E1F0E013
:10235000F0937A01E093790160917B0170917C01A7
:1023600090E080E04AE00E94080A0E94010A78CDCD
:10237000843008F400CE82E080930C01FCCD26E08E
:10238000289FF001299FF00D1124EB5AFE4F8091F8
:10239000090190E09183808380910A0190E0039687
:1023A0009383828320937D0178CEF999FECF92BDED
:1023B00081BDF89A992780B50895262FF999FECF07
:1023C0001FBA92BD81BD20BD0FB6F894FA9AF99A52
:1023D0000FBE01960895A1E21A2EAA1BBB1BFD0198
:1023E0000DC0AA1FBB1FEE1FFF1FA217B307E407F4
:1023F000F50720F0A21BB30BE40BF50B661F771F4C
:10240000881F991F1A9469F760957095809590952B
:102410009B01AC01BD01CF010895AA1BBB1B51E17B
:1024200007C0AA1FBB1FA617B70710F0A61BB70B44
:10243000881F991F5A95A9F780959095BC01CD01E9
:102440000895EE0FFF1F0590F491E02D0994F89484
:02245000FFCFBC
:1024520010080840200200080840200200FFFFFF89
:10246200FF00E100000000000000C18081000000C8
:10247200000000005205A70673056805B905770537
:1024820095050000000078096606050A040A580A44
:00000001FF
