:100000000C9476040C949E040C949E040C949E0410
:100010000C949E040C949E040C949E040C949E04D8
:100020000C949E040C949E040C94290A0C94980A37
:100030000C949E040C949E040C949E040C949E04B8
:100040000C949E040C949E040C949E040C949E04A8
:100050000C949E040C949E040C949E040C94CA0C64
:100060000C949E040C949E040C949E040C949E0488
:100070000C949E040C949E040C949E040C949E0478
:100080000C949E040C949E040C949E040C949E0468
:100090000C949E040C949E040C949E040C949E0458
:1000A0000C949E040C949E040C949E04000000008A
:1000B000003E5B4F5B3E3E6B4F6B3E1C3E7C3E1CEE
:1000C000183C7E3C181C577D571C1C5E7F5E1C0034
:1000D000183C1800FFE7C3E7FF0018241800FFE7EB
:1000E000DBE7FF30483A060E2629792926407F05AE
:1000F0000507407F05253F5A3CE73C5A7F3E1C1CC4
:1001000008081C1C3E7F14227F22145F5F005F5F83
:1001100006097F017F006689956A6060606060946F
:10012000A2FFA29408047E040810207E2010080874
:100130002A1C08081C2A08081E101010100C1E0C7F
:100140001E0C30383E3830060E3E0E060000000011
:100150000000005F00000007000700147F147F14F8
:10016000242A7F2A1223130864623649562050003D
:1001700008070300001C2241000041221C002A1C29
:100180007F1C2A08083E0808008070300008080814
:100190000808000060600020100804023E51494534
:1001A0003E00427F400072494949462141494D3352
:1001B0001814127F1027454545393C4A49493141B9
:1001C000211109073649494936464949291E000087
:1001D00014000000403400000008142241141414DC
:1001E0001414004122140802015909063E415D59C8
:1001F0004E7C1211127C7F494949363E41414122D1
:100200007F4141413E7F494949417F090909013EFA
:10021000414151737F0808087F00417F4100204021
:10022000413F017F081422417F404040407F021C33
:10023000027F7F0408107F3E4141413E7F0909094A
:10024000063E4151215E7F09192946264949493216
:1002500003017F01033F4040403F1F2040201F3FDC
:100260004038403F63140814630304780403615961
:10027000494D43007F4141410204081020004141A3
:10028000417F04020102044040404040000307084F
:100290000020545478407F2844443838444444284B
:1002A000384444287F385454541800087E090218F2
:1002B000A4A49C787F0804047800447D400020407A
:1002C000403D007F1028440000417F40007C0478BE
:1002D00004787C080404783844444438FC18242406
:1002E0001818242418FC7C08040408485454542486
:1002F00004043F44243C4040207C1C2040201C3C03
:100300004030403C44281028444C9090907C4464F9
:10031000544C44000836410000007700000041368C
:10032000080002010204023C2623263C1EA1A16112
:10033000123A4040207A3854545559215555794144
:100340002154547841215554784020545579400C1B
:100350001E527212395555555939545454593955FC
:100360005454580000457C410002457D420001453F
:100370007C40F0292429F0F0282528F07C545545AC
:10038000002054547C547C0A097F4932494949323F
:100390003248484832324A4848303A4141217A3A54
:1003A00042402078009DA0A07D39444444393D401E
:1003B00040403D3C24FF2424487E4943662B2FFCCB
:1003C0002F2BFF0929F620C0887E09032054547979
:1003D000410000447D413048484A32384040227A4A
:1003E000007A0A0A727D0D19317D2629292F2826C7
:1003F0002929292630484D402038080808080808CF
:100400000808382F10C8ACBA2F102834FA00007B27
:10041000000008142A142222142A1408950022002D
:1004200095AA005500AAAA55AA55AA000000FF00E7
:10043000101010FF00141414FF001010FF00FF1024
:1004400010F010F0141414FC001414F700FF000056
:10045000FF00FF1414F404FC141417101F10101FD5
:10046000101F1414141F00101010F0000000001FC3
:10047000101010101F10101010F010000000FF10CE
:100480001010101010101010FF10000000FF1400CA
:1004900000FF00FF00001F10170000FC04F41414FC
:1004A0001710171414F404F40000FF00F7141414C8
:1004B00014141414F700F7141414171410101F1048
:1004C0001F141414F4141010F010F000001F101F6B
:1004D0000000001F14000000FC140000F010F010D9
:1004E00010FF10FF141414FF141010101F00000050
:1004F00000F010FFFFFFFFFFF0F0F0F0F0FFFFFF54
:100500000000000000FFFF0F0F0F0F0F38444438AA
:10051000447C2A2A3E147E02020606027E027E02E5
:1005200063554941633844443C04407E201E200604
:10053000027E020299A5E7A5991C2A492A1C4C7241
:1005400001724C304A4D4D303048784830BC625AC8
:10055000463D3E494949007E0101017E2A2A2A2A58
:100560002A44445F444440514A444040444A514034
:100570000000FF0103E080FF000008086B6B0836F5
:1005800012362436060F090F060000181800000066
:100590001010003040FF0101001F01011E00191D55
:1005A0001712003C3C3C3C0000000000D5F08D14CC
:1005B000A1C881CFD9F1AF20008022000000000047
:1005C000000004068E8E9B59567C5858404080800F
:1005D000000000000000000000000000000000001B
:1005E000000000000000000000000000000000000B
:1005F00000000000000000000000000000000000FB
:1006000000000000000000000000000000000000EA
:1006100000000000000000000000000000000000DA
:1006200000000000000000000000000000000000CA
:1006300000000000000000000000000000000000BA
:10064000E05C46213514D6D2101617171016D4D5F3
:100650001D314658E000C0408000000000000080CE
:100660004020101020408000E0101010101020C01A
:1006700000F01010101020408000F000000000007A
:1006800000F000E0101010101020C000C02010106A
:10069000101020C000F00000000000F0000000007A
:1006A000000000000000000000000000000000004A
:1006B000000000000000000000000000000000003A
:1006C000FF0000C00004091938F8F8F8F8F8F9F943
:1006D000F80480C043221110090E00000000007FC2
:1006E0000404040404047F007F0404040C14224165
:1006F000007F4040404020100F001F2040404040FD
:10070000201F007F42424242424538001F204040A5
:100710004040201F000001027C0201000000000098
:1007200000000000000000000000000000000000C9
:1007300000000000000000000000000000307058C1
:100740004F4020608182868E5F3F3F3F3F3F5F8FFB
:100750008380887700000000000000000000000097
:100760000000000000000000000000000000000089
:100770000000000000000000000000000000000079
:100780000000000000000000000000000000000069
:100790000000000000000000000000000000000059
:1007A0000000000000000000000000000000000049
:1007B0000000000000000000000000000000000039
:1007C0000000000000000000000000000000000029
:1007D0000000000000000000000000000000000019
:1007E0000000000000000000000000000000000009
:1007F00000000000000000000000000000000000F9
:1008000000000000000000000000000000000000E8
:1008100000000000000000000000000000000000D8
:1008200000000000000000000000000000000000C8
:100830000000000000000000000000080800FF1792
:10084000FFF9FF7FFF7FFF79FF17FF20FF20FF17D2
:10085000FF79FF7FFF7FFFF9FF17FF00FF00FF1702
:10086000FFFFFF47FF47FF7FFF17FF20FF20FF1716
:10087000FF7FFF47FF47FFFFFF17FF00FF080B0049
:100880000202020000090400000102020000052427
:1008900000100105240101010424020605240600BC
:1008A000010705810310004009040100020A00004D
:1008B0000007050202400000070583024000000413
:1008C00003090412010002EF0201404123368000B7
:1008D000010102030141726475696E6F204C4C4343
:1008E00000414250313330360000470D11241FBE05
:1008F000CFEFDAE0DEBFCDBF11E0A0E0B1E0ECE386
:10090000F0E202C005900D92AA33B107D9F725E0B5
:10091000AAE3B1E001C01D92AE3BB207E1F714E0DB
:10092000C6E7D4E004C02197FE010E941610C53727
:10093000D107C9F70E94640D0C941C100C940000A0
:1009400090E0EAE6F1E091119FEF8FEF91939193A0
:10095000919391938150D0F70895EAE6F1E0A0E0F9
:10096000B8E000800EBC8111012C1197A0FDFDCFD5
:100970000192B9F70DB40895FC01809169018823B3
:1009800011F13FB7F89482E08093E9002091F200E2
:10099000822F90E01816190614F481E090E0882365
:1009A00039F0289844E6409368014091F100408373
:1009B000222339F02091F200211103C02BE620936D
:1009C000E8003FBF08958FEF9FEF08952FB7F89489
:1009D00083E08093E9009091E800892F807295FF71
:1009E00004C09091F20080E4891B2FBF089580918C
:1009F000600181110DC082E080935C0184E08093EE
:100A00005D0110925F0110925E0181E080936001B0
:100A10008CE591E00895CF93DF931F92CDB7DEB7B9
:100A20006983DC01ED91FC910280F381E02D41E0CE
:100A300050E0BE016F5F7F4F09950F90DF91CF911E
:100A4000089583E08093E9008091F200882319F0F3
:100A50008AE38093E80008950E94E60490E00895F8
:100A6000CF93DF931F92CDB7DEB7FC0184859585C8
:100A700097FD08C02FEF3FEF358724870F90DF9158
:100A8000CF910895CE0101960E94BC04019719F4FC
:100A9000898190E0F3CF8FEF9FEFF0CF0F931F93FB
:100AA000CF93DF931F92CDB7DEB78C01FC01848515
:100AB000958597FF0BC0CE0101960E94BC0401975B
:100AC00071F4898190E0F80195878487F801848525
:100AD00095850F90DF91CF911F910F9108958FEF22
:100AE0009FEFF1CFFC018485958597FD0BC09FB7E3
:100AF000F89482E08093E9008091F2009FBF90E03B
:100B0000019608959FB7F89482E08093E900809160
:100B1000F2009FBF90E00895409156015091570117
:100B2000209154013091550142175307B4F490912C
:100B3000E8009570E1F39091E80092FD19C0809370
:100B4000F100809156019091570101968F7399277A
:100B5000892B19F48EEF8093E800809156019091D3
:100B600057010196909357018093560181E00895B3
:100B700080E00895DF92EF92FF920F931F93CF933F
:100B8000DF93D82E8A01EB017B01E40EF51ECE1512
:100B9000DF0559F0D7FE12C0FE0184910E948C053A
:100BA00021968111F4CF0FEF1FEFC801DF91CF9194
:100BB0001F910F91FF90EF90DF9008958881EECF05
:100BC0000F931F93CF93DF931F92CDB7DEB782E0D1
:100BD000898342E450E06DE778E080E80E94BA053E
:100BE0000E94F704DC0112960D911C91011511056C
:100BF00089F0D801ED91FC910280F381E02DBE01D6
:100C00006F5F7F4FC801099597FD04C0F80100850B
:100C10001185ECCF89810F90DF91CF911F910F91BA
:100C20000895615030F02091F100FC01208301967D
:100C3000F8CF289884E68093680108950895AF92CC
:100C4000BF92CF92DF92EF92FF920F931F93CF93B9
:100C5000DF936C017B018B01040F151FEB015E011B
:100C6000AE18BF08C017D10759F06991D601ED91B0
:100C7000FC910190F081E02DC6010995892B79F74F
:100C8000C501DF91CF911F910F91FF90EF90DF9001
:100C9000CF90BF90AF900895FC010E94E30631977A
:100CA00028F068517C4F8F4F9F4FF9CFAB01FC016B
:100CB0000E94E306641775078E079F07C8F308951F
:100CC0008F929F92AF92BF92CF92DF92EF92FF925C
:100CD0000F931F93CF93DF936C017B018A01809167
:100CE0001201882309F45AC080916901882309F40C
:100CF00055C080915B0180FF05C08091E00082605B
:100D00008093E000E801B12C8AEFA82E93E0892EB1
:100D10002AE3922E209711F4BB20C9F10E94E60429
:100D2000811108C0AA94AA20C9F181E090E00E9434
:100D30004C06F0CF8C171D0611F00CF08C2F9FB7CE
:100D4000F8948092E9002091E80025FD02C09FBF41
:100D5000E1CF282F30E0C21BD30BF701815020F0E8
:100D600041914093F100FACFE20EF31EBB2021F037
:100D70009092E800B12CEBCF8091E80085FDE7CFA1
:100D80009092E800BB24B394209709F3F3CF5D98C9
:100D900084E680935A01101611063CF081E090E041
:100DA000F6019383828310E000E0C801DF91CF91C8
:100DB0001F910F91FF90EF90DF90CF90BF90AF9079
:100DC0009F908F900895A2E4B1E02FB7F8947D91A1
:100DD0008D919C9166B52FBFA89B05C06F3F18F4FD
:100DE0007F5F8F4F9F4F22E0660F771F881F991FED
:100DF0002A95D1F708954F925F926F927F928F92CA
:100E00009F92AF92BF92CF92DF92EF92FF920F9399
:100E10001F93CF93DF934C015901FC2DC02FD0E0DD
:100E2000CE01880D991D181619060CF06CC020E82B
:100E3000821691040CF067C09B012E0D311D121615
:100E400013060CF060C0603471050CF05CC04115F5
:100E5000510509F458C0E62FE770FE2EDB0177FD3F
:100E6000179633E0B595A7953A95E1F73A2F77FFB6
:100E700004C0FF2011F03FEF3A0F6627772768196B
:100E8000790997FC02C070E060E0803891050CF4AD
:100E90004BC090E89819961BA32F032E000CBB0B98
:100EA0001A2F10953F3F0CF010E021E08E2D877037
:100EB00009F420E0E694E694E694E20EAE0DB11D4E
:100EC00019971CF028E0E22EE31AE11A310F20E80E
:100ED0003203D0011124A80DB91DA60FB71F019F21
:100EE000600D711D1124460F571F0F2D0F2C000C84
:100EF000110BF33009F41CC1C8F4F13009F4D0C06F
:100F0000F23009F47CC0DF91CF911F910F91FF90D7
:100F1000EF90DF90CF90BF90AF909F908F907F9099
:100F20006F905F904F900895902FB5CFFA3FB1F139
:100F3000232F2E0DFB3F39F7321729F3BD016659D8
:100F40007E4FD12CC12CC91608F0A4C0FA01EC0DBB
:100F5000FD1DE491F0E04F01002E02C0880C991CA9
:100F60000A94E2F737FD06C0FB018081E82CE0948B
:100F70008E218083FF2061F0373054F45B01F0E86C
:100F8000AF0EB11CE92CE094F50180818E218083A5
:100F9000FFEFCF1ADF0A6F5F7F4FD5CF232F2E0DC4
:100FA000321709F4B0CFBD0166597E4FD12CC12C48
:100FB000C91608F069C0FA01EC0DFD1DE491F0E0DE
:100FC0004F01002E02C0880C991C0A94E2F737FDED
:100FD00004C0FB01808188298083FF2051F03730D5
:100FE00044F45B01F0E8AF0EB11CF5018081892962
:100FF0008083FFEFCF1ADF0A6F5F7F4FD9CF6FEF8C
:1010000070E00F2C02C0660F771F0A94E2F760951C
:101010007095772E232F2E0D321709F474CFFD0112
:10102000E659FE4F6F01B12CA12CA91638F5FA0133
:10103000EA0DFB1DE491F0E02F01002E02C0440CEC
:10104000551C0A94E2F737FD05C0F601808186231E
:1010500084298083FF2059F037304CF44601F0E8B2
:101060008F0E911CF4018081872185298083FFEFF9
:10107000AF1ABF0A8FEFC81AD80AD7CF3F5F4C0FFD
:101080005D1FA058BF4FC8CF3F5F4C0F5D1FA058DA
:10109000BF4F86CF3F5F4C0F5D1FA058BF4F4CCF57
:1010A0006A0D7B1D232F2E0D321709F42CCFFD0165
:1010B000E659FE4F6F01B12CA12CA91688F5FB0152
:1010C000EA0DFB1D8490912C002E02C0880C991C07
:1010D0000A94E2F780949094FA01EA0DFB1D649063
:1010E000712C002E02C0660C771C0A94E2F737FDC3
:1010F00005C0F6018081882186298083FF2049F080
:1011000037303CF4F601E058FF4F80818921872970
:101110008083FFEFAF1ABF0A8FEFC81AD80ACDCF6E
:101120003F5F4C0F5D1F6C0F7D1FA058BF4FBCCFA2
:10113000C92ED12CFA01E60FF71FA659BE4F00E8C1
:1011400010E00C191D09CC19DD09BE01660F771FCF
:1011500041E050E06A010F2C01C0CC0C0A94EAF780
:10116000592F2E2D792ECF93DF93ED01EF96EF9629
:1011700022968590A590FF2059F08C9C4001AC9C54
:10118000500137302CF4E880B094EB20E928E99244
:1011900033233AF0EC90A094EA20E828ED920C94E6
:1011A000D20811965A9529F72A9551F0572D339563
:1011B0001124E60FF11DA00FB11DC00FD11DD9CF15
:1011C000DF91CF9111249FCE2D9A089590E00C9439
:1011D0004C068FB18095807F669B88601C9B8460E5
:1011E00008954F925F926F927F928F929F92AF92EB
:1011F000BF92CF92DF92EF92FF920F931F93CF9304
:10120000DF9300D0CDB7DEB76A3011F5809152017F
:10121000909153010896909353018093520110923C
:1012200051011092500181E090E00F900F90DF91FA
:10123000CF911F910F91FF90EF90DF90CF90BF90D3
:10124000AF909F908F907F906F905F904F90089598
:101250006D3049F34091520150915301209150015A
:1012600030915101C90104968438910508F048C0B5
:10127000CA0107968734910508F042C085E0689F4F
:10128000B001112464557F4FC901912C2B01421AE2
:10129000530A70E1872EF201E80FF91FE491A5E0EF
:1012A0009A1201C0E0E08A01F8E0CE2ED12CE17064
:1012B000AE2E80389105B8F400341105A0F4B801C1
:1012C000E1E061FDE4E060FDEE0F62FDE295687F24
:1012D000869ED0011124A80FA659BE4F0C900E2A4D
:1012E000A0FE0E260C92D594C794EC2DF1500F5F02
:1012F0001F4FF111DACF93940196F6E09F12CBCFF6
:101300002A5F3F4F30935101209350018CCFCF93F0
:10131000C82F0E94E908982F9C2381E09C1380E04D
:10132000CF91089580E00C94AD04089590E080E0A2
:1013300008958F929F92AF92BF920F931F93CF9376
:10134000DF93CDB7DEB7A1970FB6F894DEBF0FBE1F
:10135000CDBF19A2423008F44AE08E010F5D1F4F45
:10136000842E912CB12CA12CA50194010E94E00F98
:10137000E62FB901CA01EA3044F5E05DD801EE93E9
:101380008D01232B242B252B79F790E080E01097FB
:1013900069F0FD0101900020E9F73197AF014A1B88
:1013A0005B0BBD018AEB95E00E941F06A1960FB66C
:1013B000F894DEBF0FBECDBFDF91CF911F910F918B
:1013C000BF90AF909F908F900895E95CD7CF0C9419
:1013D000CA0F0F931F93CF93DF938C0181E090E0AE
:1013E0000E94E70980FF30C08AE090E00E94E70990
:1013F0009FEF980F9E3F40F522E330E0309351017C
:101400002093500128E330E03093530120935201A0
:10141000CBE0D0E0D801ED91FC910190F081E02D7E
:10142000682FC8010995CE010E94E7092196C131B4
:10143000D10581F70E94920988EE93E0DF91CF9168
:101440001F910F910C944C06DF91CF911F910F913A
:1014500008951F920F920FB60F9211248F939F93AE
:101460008091E1009091E100937F9093E10083FFF0
:101470000FC01092E90091E09093EB001092EC0005
:1014800092E39093ED001092690198E09093F00040
:1014900082FF22C093E09093E9009091F20099239B
:1014A00019F09AE39093E80090915A01992341F042
:1014B00090915A01915090935A01911101C05D9AF7
:1014C00090916801992341F0909168019150909317
:1014D0006801911101C0289A84FF18C08091E20030
:1014E0008E7E81608093E2008091E1008F7E809308
:1014F000E10080915B018E7E806180935B019F9112
:101500008F910F900FBE0F901F90189580FFF7CF0F
:101510008091E2008E7E80618093E2008091E10004
:101520008E7E8093E10080915B018E7E8160E5CFAD
:101530001F920F920FB60F921124CF92DF92EF926B
:10154000FF920F931F932F933F934F935F936F934C
:101550007F938F939F93AF93BF93EF93FF93CF931B
:10156000DF93CDB7DEB76C97DEBFCDBF1092E90039
:101570008091E80083FF25C068E0CE0145960E9477
:10158000110682EF8093E8008D8987FF39C0909122
:10159000E80090FFFCCF982F907609F034C19E8927
:1015A0004F89588D2F89F88C911131C0803861F5A1
:1015B000809159018093F1001092F1008EEF809399
:1015C000E8006C960FB6F894DEBF0FBECDBFDF917A
:1015D000CF91FF91EF91BF91AF919F918F917F91AB
:1015E0006F915F914F913F912F911F910F91FF90BC
:1015F000EF90DF90CF900F900FBE0F901F90189537
:101600009EEF9093E800C7CF1092F100D5CF9130B4
:1016100059F48111D3CF4130510581F680915901A0
:101620008D7F80935901CACF933049F48111C6CF81
:101630004130510519F6809159018260F2CF953001
:1016400041F48091E80080FFFCCF20682093E30004
:10165000B5CF963009F0A9C00B8D1C8D22E01092F9
:10166000E9001092570110925601F2122EC010920A
:101670005501109254010E94E0051F8299E0998360
:10168000FA8291E09E8390EA98879AEF9987209159
:10169000560130915701275F3F4F3C832B838D8349
:1016A0001092E900109257011092560110935501C3
:1016B0000093540149E050E0BE016F5F7F4F80E02E
:1016C0000E94BA050E94E00579CF1093550100935E
:1016D00054010E94F704DC0112960D911C91011532
:1016E000110509F451C1D801ED91FC910480F581F7
:1016F000E02DBE016B5E7F4FC8010995009709F090
:101700003EC1F80100851185EACFF3E0FF120EC05B
:101710008F89882309F440C0823061F440E867E093
:1017200081EE98E00E94140D811148CF81E28093F0
:10173000EB0047CF813029F440E86BE085ED98E07D
:10174000F1CF833099F70E94F704DC011296ED90F7
:10175000FC908E010F5F1F4F6801E114F10479F0D6
:10176000D701ED91FC910680F781E02DB801C7010A
:101770000995080F111DF701E084F184EECFD8011F
:101780001C92F60101900020E9F73197BF016C1916
:101790007D0940E0C601C6CF6FEB78E0FB014491C4
:1017A00050E080E80E94BA0509CF973009F4BECF17
:1017B000983021F481E08093F10000CF993009F056
:1017C000FDCE837009F0B2CFE4E1F1E081E031E0D9
:1017D00096E32191222371F08093E9003093EB008E
:1017E000DF0111972C912093EC009093ED008F5F17
:1017F000873079F78EE78093EA001092EA008F89AC
:1018000080936901DBCE8B8D9C8D1092E900109244
:101810005701109256019093550180935401898D80
:10182000811192C08E899D89913A49F4813209F0E3
:101830007DCF47E050E06BE071E080E0B3CF9132C4
:1018400009F074CF833269F48F89988DB0E0A0E0FD
:101850008093070190930801A0930901B0930A01B6
:10186000ADCE803269F48091E80082FFFCCF67E062
:101870008BE091E00E9411068BEF8093E8009ECEF2
:10188000823209F09BCE8F8980931201EEEFFFE741
:10189000859194918B3F9C4D51F1E0E0F8E080916F
:1018A0000B0190910C01A0910D01B0910E01803BB4
:1018B0009440A105B105F1F48091120180FD1AC098
:1018C000EE3F8AE0F80789F587E797E79183808301
:1018D000809160008093580188E19BE00FB6F894F6
:1018E000A895809360000FBE9093600067CEEEEFE6
:1018F000FAE0D5CF808191818737974709F05ECE96
:10190000A895809160008861809360008091580163
:1019100080936000EE3F2AE0F20789F08091FE0A92
:101920009091FF0A9183808349CE8081918187378E
:10193000980751F29093FF0A8093FE0AC5CF109248
:10194000FF0A1092FE0A3ACE0E94F704DC011296BA
:101950000D911C910115110509F4E8CED801ED9106
:10196000FC910190F081E02DBE016B5E7F4FC801BC
:101970000995811123CEF80100851185EBCF18164A
:1019800019060CF41BCED2CEF1E0FF12BECE63ECF2
:1019900078E004CF0F920FB68F939F93EF93FF934E
:1019A000809141018D5F8D3708F08D578093410103
:1019B000E8E4F1E080818E4F808391819F4F918395
:1019C00082818F4F828383818F4F8383E2E4F1E0B2
:1019D00080818F5F808381818F4F818382818F4F50
:1019E000828383818F4F83838FB18F6066991C9B25
:1019F00088278F3681F480914001981B963068F0DB
:101A0000E0E0F8E087E78083818388E180936000ED
:101A1000F0936000FFCF90934001FF91EF919F9171
:101A20008F910FBE0F901895EF92FF920F931F9317
:101A3000CF93DF93F82E192FE62E042F81E0860F27
:101A4000880F0E948C0583E00E948C05CF2DD12F3A
:101A5000EC0EFD2EF11CCE15DF05B9F007FF13C00B
:101A6000FE0184910E948C05182F80E00E948C0555
:101A7000812321968111EFCFDF91CF911F910F919B
:101A8000FF90EF9008958881EDCF81E0F5CFEAE6F1
:101A9000F5E01382128288EE93E0A0E0B0E0848348
:101AA0009583A683B7838EE191E0918380838FEF46
:101AB0009FEF95878487EAEBF5E01382128280E33B
:101AC00091E0918380830895789483E084BD83E0DE
:101AD00085BD81E080936E00E1E8F0E083E08083E3
:101AE000E0E881E08083E1E983E08083E0E981E070
:101AF0008083E1EC87E08083E3EC81E08083E0ECAD
:101B000082E08083E2EC81E08083EAE787E0808303
:101B100080688083109269011092590110925B01D4
:101B20008091D70081608093D70080EA8093D800AD
:101B300089B5806189BD89B5826089BD09B400FE1F
:101B4000FDCF81E090E00E944C068091D8008F7C10
:101B500080618093D8008091E000807F8093E000D6
:101B60008091E1008E7E8093E1008DE08093E20021
:101B7000559A209A81EC80937C0081EF85B987EE9D
:101B800084B984E38BB984EF8AB9769A6E9880EF32
:101B900081BB10BA80E58CBD81E08DBD85E00E94DF
:101BA000E6085F9A85E00E94E6085C98ECEAF5E0BA
:101BB00085918EBD00000DB407FEFDCFE93BC1F756
:101BC0005C9A81E88093640081E0809365000E94C4
:101BD000AD0480E80E9487098823A9F05C9885EA13
:101BE0008EBD00000DB407FEFDCF5C9A2E982F9895
:101BF0002D988091640080628093640081E083BFAF
:101C0000889513BEFCCF84E00E948709882309F4DD
:101C100045C02D9884E80E9487098823D9F00E9446
:101C2000E40888EC0E94E6082F9882E090E00E9489
:101C3000CA0F8F3F29F06FEF82E090E00E94D20F31
:101C400084EF91E00E944C062F9A84E80E94870955
:101C50008111FBCF84E10E9487098823D9F00E947B
:101C6000E40888EC0E94E6082E9882E090E00E944A
:101C7000CA0F882329F060E082E090E00E94D20F32
:101C800084EF91E00E944C062E9A84E10E9487091D
:101C90008111FBCF88EC0E94E608B5CF0E94E408D2
:101CA00082E090E00E94E709882309F456C03E9A3A
:101CB0003F9A81E090E00E94E709182F147081FF9D
:101CC00015C011112E98C1EFDFEFB9EB8B2EB5E0E7
:101CD0009B2E0AEBA02E05E0B02E80E40E9487091F
:101CE0008823F1F12E9A2F9A0E94E40882E30E9441
:101CF000E6080E94E9088111F9CF80E18093000194
:101D00000E94A004109253011092520110925101AE
:101D1000109250010E9492095CE4852E51E0952EAC
:101D20006CE3262E68E0362E75E0672E712CE0E01D
:101D3000AE2EE0E0BE2EF8E04F2E512CD1E012E0A6
:101D400080914601882309F439C010924601A114FC
:101D5000B104B1F30E940000F1CF3E983F98A9CFA3
:101D6000112329F0C430D10511F42E9A2F9881E067
:101D70000E94AD04F4010491F501E490A2E0CA2EA2
:101D800030E020E04BEB55E0BE0184E190E00E94A2
:101D9000FB060E9492098FE00E94E6082196C93155
:101DA000D10509F09ACF112311F02F9A2D9880E9CF
:101DB00091E00E944C060E94E40898CF909148015F
:101DC00080914701F92FF81B8F2F20910001F21706
:101DD00040F48F5F821708F0BACFD3BF889513BE47
:101DE000B6CFD093460190934701F4018081918151
:101DF0000196808391830E94A00410925301109257
:101E00005201109251011092500180E80E948709FE
:101E10008823A9F080914C0190914D01B3010E945B
:101E20000210892B09F4AAC08091060190914F01FC
:101E30009111AAC0823090F0109206010FC080E18B
:101E40000E9487098111E6CF80E20E9487098111F3
:101E5000E1CF80E40E9487098111DCCF0E94E9086C
:101E600080934E0180E80E948709882349F0809181
:101E70000401853028F0815080930401D0934F01F4
:101E800080E10E948709882349F08091040188330A
:101E900028F48F5F8093040110924F0180E20E942A
:101EA0008709882339F080910301833018F081502D
:101EB0008093030180E40E948709882339F0809190
:101EC0000301883718F48F5F809303012091060186
:101ED0006091040170E0C09103018C2F90E0EBE36E
:101EE000F8E00491F101E4904DE358E02223F1F091
:101EF00041E050E03E2D377011F450E040E03E2DBF
:101F0000369536953695430F511D049FF001059F78
:101F1000F00D112430E0220F331FE29FA001E39F58
:101F2000500DF29F500D1124435C574F23E0C22EF9
:101F300030E020E00E94FB06109251011092500107
:101F400010925301109252016C2F70E090E080E0EB
:101F50004AE00E949909109251011092500150924A
:101F60005301409252016091040170E090E080E0E2
:101F70004AE00E9499090E949209E9CE80910601E7
:101F80008F5F8093060150CF843008F467CF1093A1
:101F9000060164CFF999FECF92BD81BDF89A9927C9
:101FA00080B50895262FF999FECF1FBA92BD81BD45
:101FB00020BD0FB6F894FA9AF99A0FBE01960895CB
:101FC000A1E21A2EAA1BBB1BFD010DC0AA1FBB1F3D
:101FD000EE1FFF1FA217B307E407F50720F0A21BAF
:101FE000B30BE40BF50B661F771F881F991F1A941C
:101FF00069F760957095809590959B01AC01BD0146
:10200000CF010895AA1BBB1B51E107C0AA1FBB1F2C
:10201000A617B70710F0A61BB70B881F991F5A9574
:10202000A9F780959095BC01CD010895EE0FFF1F93
:0C2030000590F491E02D0994F894FFCF86
:10203C0010080840200200FFFFFFFF00E100000035
:10204C0000000000C18081000000000000000B05B2
:10205C0060062C052105720530054E0500000000B8
:0A206C00F1081F0696099509E9091D
:00000001FF
