:020000040000FA
:100000000C9485040C94AD040C94AD040C94AD04D4
:100010000C94AD040C94AD040C94AD040C94AD049C
:100020000C94AD040C94AD040C94A30A0C94120B24
:100030000C94AD040C94AD040C94AD040C94AD047C
:100040000C94AD040C94AD040C94AD040C94AD046C
:100050000C94AD040C94AD040C94AD040C94440DBC
:100060000C94AD040C94AD040C94AD040C94AD044C
:100070000C94AD040C94AD040C94AD040C94AD043C
:100080000C94AD040C94AD040C94AD040C94AD042C
:100090000C94AD040C94AD040C94AD040C94AD041C
:1000A0000C94AD040C94AD040C94AD04000000005D
:1000B000003E5B4F5B3E3E6B4F6B3E1C3E7C3E1CEE
:1000C000183C7E3C181C577D571C1C5E7F5E1C0034
:1000D000183C1800FFE7C3E7FF0018241800FFE7EB
:1000E000DBE7FF30483A060E2629792926407F05AE
:1000F0000507407F05253F5A3CE73C5A7F3E1C1CC4
:1001000008081C1C3E7F14227F22145F5F005F5F83
:1001100006097F017F006689956A6060606060946F
:10012000A2FFA29408047E040810207E2010080874
:100130002A1C08081C2A08081E101010100C1E0C7F
:100140001E0C30383E3830060E3E0E060000000011
:100150000000005F00000007000700147F147F14F8
:10016000242A7F2A1223130864623649562050003D
:1001700008070300001C2241000041221C002A1C29
:100180007F1C2A08083E0808008070300008080814
:100190000808000060600020100804023E51494534
:1001A0003E00427F400072494949462141494D3352
:1001B0001814127F1027454545393C4A49493141B9
:1001C000211109073649494936464949291E000087
:1001D00014000000403400000008142241141414DC
:1001E0001414004122140802015909063E415D59C8
:1001F0004E7C1211127C7F494949363E41414122D1
:100200007F4141413E7F494949417F090909013EFA
:10021000414151737F0808087F00417F4100204021
:10022000413F017F081422417F404040407F021C33
:10023000027F7F0408107F3E4141413E7F0909094A
:10024000063E4151215E7F09192946264949493216
:1002500003017F01033F4040403F1F2040201F3FDC
:100260004038403F63140814630304780403615961
:10027000494D43007F4141410204081020004141A3
:10028000417F04020102044040404040000307084F
:100290000020545478407F2844443838444444284B
:1002A000384444287F385454541800087E090218F2
:1002B000A4A49C787F0804047800447D400020407A
:1002C000403D007F1028440000417F40007C0478BE
:1002D00004787C080404783844444438FC18242406
:1002E0001818242418FC7C08040408485454542486
:1002F00004043F44243C4040207C1C2040201C3C03
:100300004030403C44281028444C9090907C4464F9
:10031000544C44000836410000007700000041368C
:10032000080002010204023C2623263C1EA1A16112
:10033000123A4040207A3854545559215555794144
:100340002154547841215554784020545579400C1B
:100350001E527212395555555939545454593955FC
:100360005454580000457C410002457D420001453F
:100370007C40F0292429F0F0282528F07C545545AC
:10038000002054547C547C0A097F4932494949323F
:100390003248484832324A4848303A4141217A3A54
:1003A00042402078009DA0A07D39444444393D401E
:1003B00040403D3C24FF2424487E4943662B2FFCCB
:1003C0002F2BFF0929F620C0887E09032054547979
:1003D000410000447D413048484A32384040227A4A
:1003E000007A0A0A727D0D19317D2629292F2826C7
:1003F0002929292630484D402038080808080808CF
:100400000808382F10C8ACBA2F102834FA00007B27
:10041000000008142A142222142A1408950022002D
:1004200095AA005500AAAA55AA55AA000000FF00E7
:10043000101010FF00141414FF001010FF00FF1024
:1004400010F010F0141414FC001414F700FF000056
:10045000FF00FF1414F404FC141417101F10101FD5
:10046000101F1414141F00101010F0000000001FC3
:10047000101010101F10101010F010000000FF10CE
:100480001010101010101010FF10000000FF1400CA
:1004900000FF00FF00001F10170000FC04F41414FC
:1004A0001710171414F404F40000FF00F7141414C8
:1004B00014141414F700F7141414171410101F1048
:1004C0001F141414F4141010F010F000001F101F6B
:1004D0000000001F14000000FC140000F010F010D9
:1004E00010FF10FF141414FF141010101F00000050
:1004F00000F010FFFFFFFFFFF0F0F0F0F0FFFFFF54
:100500000000000000FFFF0F0F0F0F0F38444438AA
:10051000447C2A2A3E147E02020606027E027E02E5
:1005200063554941633844443C04407E201E200604
:10053000027E020299A5E7A5991C2A492A1C4C7241
:1005400001724C304A4D4D303048784830BC625AC8
:10055000463D3E494949007E0101017E2A2A2A2A58
:100560002A44445F444440514A444040444A514034
:100570000000FF0103E080FF000008086B6B0836F5
:1005800012362436060F090F060000181800000066
:100590001010003040FF0101001F01011E00191D55
:1005A0001712003C3C3C3C00000000008D14A1C828
:1005B00081CFD9F102AF80220000000000000004CA
:1005C000068E8E9B59567C58584040808000000013
:1005D000000000000000000000000000000000001B
:1005E000000000000000000000000000000000000B
:1005F00000000000000000000000000000000000FB
:1006000000000000000000000000000000000000EA
:1006100000000000000000000000000000000000DA
:1006200000000000000000000000000000000000CA
:1006300000000000000000000000000000E05C4638
:10064000213514D6D2101617171016D4D51D3146E1
:1006500058E000C0408000000000000080402010F2
:100660001020408000E0101010101020C000F0108A
:1006700010101020408000F0000000000000F0008A
:10068000E0101010101020C000C02010101010201A
:10069000C000F00000000000F000000000000000BA
:1006A000000000000000000000000000000000004A
:1006B00000000000000000000000000000FF00003B
:1006C000C00004091938F8F8F8F8F8F9F9F80480C6
:1006D000C043221110090E00000000007F04040432
:1006E0000404047F007F0404040C142241007F40B2
:1006F00040404020100F001F2040404040201F007D
:100700007F42424242424538001F20404040402044
:100710001F000001027C0201000000000000000038
:1007200000000000000000000000000000000000C9
:10073000000000000000000000003070584F402012
:10074000608182868E5F3F3F3F3F3F5F8F8380881F
:100750007700000000000000000000000000000022
:100760000000000000000000000000000000000089
:100770000000000000000000000000000000000079
:100780000000000000000000000000000000000069
:100790000000000000000000000000000000000059
:1007A0000000000000000000000000000000000049
:1007B0000000000000000000000000000000000039
:1007C0000000000000000000000000000000000029
:1007D0000000000000000000000000000000000019
:1007E0000000000000000000000000000000000009
:1007F00000000000000000000000000000000000F9
:1008000000000000000000000000000000000000E8
:1008100000000000000000000000000000000000D8
:1008200000000000000000000000000000000000C8
:10083000000000000000000008083CFF42FF8DFFA0
:10084000A1FF8DFF42FF3CFF00FF30FF48FF94FFF8
:1008500084FF84FF94FF48FF30FF080800FF17FF64
:10086000F9FF7FFF7FFF79FF17FF20FF20FF17FFB2
:1008700079FF7FFF7FFFF9FF17FF00FF00FF17FFE2
:10088000FFFF47FF47FF7FFF17FF20FF20FF17FFF6
:100890007FFF47FF47FFFFFF17FF00FF080B000226
:1008A0000202000009040000010202000005240009
:1008B000100105240101010424020605240600019B
:1008C0000705810310004009040100020A0000002E
:1008D00007050202400000070583024000000403F0
:1008E000090412010002EF02014041233680000199
:1008F0000102030141726475696E6F204C4C430024
:100900004142413131303600C10D11241FBECFEFBD
:10091000DAE0DEBFCDBF11E0A0E0B1E0E4EDF3E24C
:1009200002C005900D92A034B107D9F725E0A0E4EC
:10093000B1E001C01D92AB3EB207E1F714E0C5E89B
:10094000D4E004C02197FE010E94E211C438D1070F
:10095000C9F70E94EB0D0C94E8110C94000090E094
:10096000E1E9F1E091119FEF8FEF919391939193D2
:1009700091938150D0F708959C01295F3F4F27380C
:10098000310578F59C0197FF02C030E020E0089621
:100990008138910514F080E890E0821BAB0147702C
:1009A000552791E001C0990F4A95EAF777FF02C0F9
:1009B000695F7F4FFB0143E0F595E7954A95E1F7C5
:1009C000F695FE2FEE27F795E795E20FF31FEF560A
:1009D000FE4F815030F02191DF011197292B2C938C
:1009E000F8CF0895E1E9F1E030EB20E146E05C98D2
:1009F0003EBD4A95F1F72EBD20E8239507C04491EE
:100A000040815C9A4EBD8111412D419344912A95BC
:100A1000B1F73395383B49F70DB40895FC01809147
:100A20009001882311F13FB7F89482E08093E900A8
:100A30002091F200822F90E01816190614F481E03C
:100A400090E0882339F0289844E640938F01409144
:100A5000F1004083222339F02091F200211103C0DC
:100A60002BE62093E8003FBF08958FEF9FEF089596
:100A70002FB7F89483E08093E9009091E800892FE4
:100A8000807295FF04C09091F20080E4891B2FBF13
:100A900008958091870181110DC082E080938301C8
:100AA00084E080938401109286011092850181E098
:100AB0008093870183E891E00895CF93DF931F929D
:100AC000CDB7DEB76983DC01ED91FC910280F38143
:100AD000E02D41E050E0BE016F5F7F4F09950F9020
:100AE000DF91CF91089583E08093E9008091F20037
:100AF000882319F08AE38093E80008950E9438055E
:100B000090E00895CF93DF931F92CDB7DEB7FC013D
:100B10008485958597FD08C02FEF3FEF35872487A3
:100B20000F90DF91CF910895CE0101960E940E059E
:100B3000019719F4898190E0F3CF8FEF9FEFF0CF09
:100B40000F931F93CF93DF931F92CDB7DEB78C0126
:100B5000FC018485958597FF0BC0CE0101960E940C
:100B60000E05019771F4898190E0F80195878487DB
:100B7000F801848595850F90DF91CF911F910F919A
:100B800008958FEF9FEFF1CFFC018485958597FD48
:100B90000BC09FB7F89482E08093E9008091F20047
:100BA0009FBF90E0019608959FB7F89482E08093EC
:100BB000E9008091F2009FBF90E0089540917D018F
:100BC00050917E0120917B0130917C0142175307A7
:100BD000B4F49091E8009570E1F39091E80092FDF3
:100BE00019C08093F10080917D0190917E01019662
:100BF0008F739927892B19F48EEF8093E8008091E9
:100C00007D0190917E01019690937E0180937D01FC
:100C100081E0089580E00895DF92EF92FF920F93B4
:100C20001F93CF93DF93D82E8A01EB017B01E40E53
:100C3000F51ECE15DF0559F0D7FE12C0FE018491D6
:100C40000E94DE0521968111F4CF0FEF1FEFC8013E
:100C5000DF91CF911F910F91FF90EF90DF9008955A
:100C60008881EECF0F931F93CF93DF931F92CDB761
:100C7000DEB782E0898342E450E06CE978E080E806
:100C80000E940C060E944905DC0112960D911C91F0
:100C90000115110589F0D801ED91FC910280F381D5
:100CA000E02DBE016F5F7F4FC801099597FD04C01D
:100CB000F80100851185ECCF89810F90DF91CF91EC
:100CC0001F910F910895615030F02091F100FC01C7
:100CD00020830196F8CF289884E680938F010895A9
:100CE0000895AF92BF92CF92DF92EF92FF920F934F
:100CF0001F93CF93DF936C017B018B01040F151FB2
:100D0000EB015E01AE18BF08C017D10759F0699119
:100D1000D601ED91FC910190F081E02DC60109957D
:100D2000892B79F7C501DF91CF911F910F91FF902A
:100D3000EF90DF90CF90BF90AF900895FC010E949C
:100D40003507319728F068517C4F8F4F9F4FF9CF6F
:100D5000AB01FC010E943507641775078E079F07DA
:100D6000C8F308958F929F92AF92BF92CF92DF9275
:100D7000EF92FF920F931F93CF93DF936C017B0150
:100D80008A0180911801882309F45AC0809190014A
:100D9000882309F455C08091820180FF05C08091AD
:100DA000E00082608093E000E801B12C8AEFA82E79
:100DB00093E0892E2AE3922E209711F4BB20C9F1EB
:100DC0000E943805811108C0AA94AA20C9F181E0C7
:100DD00090E00E949E06F0CF8C171D0611F00CF0DB
:100DE0008C2F9FB7F8948092E9002091E80025FDB0
:100DF00002C09FBFE1CF282F30E0C21BD30BF70109
:100E0000815020F041914093F100FACFE20EF31EA1
:100E1000BB2021F09092E800B12CEBCF8091E8004C
:100E200085FDE7CF9092E800BB24B394209709F3A7
:100E3000F3CF5D9884E680938101101611063CF093
:100E400081E090E0F6019383828310E000E0C80126
:100E5000DF91CF911F910F91FF90EF90DF90CF9096
:100E6000BF90AF909F908F900895A8E4B1E02FB706
:100E7000F8947D918D919C9166B52FBFA89B05C07C
:100E80006F3F18F47F5F8F4F9F4F22E0660F771FF1
:100E9000881F991F2A95D1F708954F925F926F92FC
:100EA0007F928F929F92AF92BF92CF92DF92EF92FA
:100EB000FF920F931F93CF93DF934C015901FC2DA9
:100EC000C02FD0E0CE01880D991D181619060CF020
:100ED0006CC020E8821691040CF067C09B012E0DB7
:100EE000311D121613060CF060C0603471050CF051
:100EF0005CC04115510509F458C0E62FE770FE2E7D
:100F0000DB0177FD179633E0B595A7953A95E1F7A4
:100F10003A2F77FF04C0FF2011F03FEF3A0F66270A
:100F200077276819790997FC02C070E060E0803883
:100F300091050CF44BC090E89819961BA32F032E33
:100F4000000CBB0B1A2F10953F3F0CF010E021E076
:100F50008E2D877009F420E0E694E694E694E20E84
:100F6000AE0DB11D19971CF028E0E22EE31AE11A2C
:100F7000310F20E83203D0011124A80DB91DA60FAE
:100F8000B71F019F600D711D1124460F571F0F2DB4
:100F90000F2C000C110BF33009F41CC1C8F4F13014
:100FA00009F4D0C0F23009F47CC0DF91CF911F91D9
:100FB0000F91FF90EF90DF90CF90BF90AF909F90F8
:100FC0008F907F906F905F904F900895902FB5CF46
:100FD000FA3FB1F1232F2E0DFB3F39F7321729F3DA
:100FE000BD016F567E4FD12CC12CC91608F0A4C08C
:100FF000FA01EC0DFD1DE491F0E04F01002E02C05E
:10100000880C991C0A94E2F737FD06C0FB01808129
:10101000E82CE0948E218083FF2061F0373054F477
:101020005B01F0E8AF0EB11CE92CE094F501808182
:101030008E218083FFEFCF1ADF0A6F5F7F4FD5CFFE
:10104000232F2E0D321709F4B0CFBD016F567E4FFE
:10105000D12CC12CC91608F069C0FA01EC0DFD1D98
:10106000E491F0E04F01002E02C0880C991C0A9414
:10107000E2F737FD04C0FB01808188298083FF20CF
:1010800051F0373044F45B01F0E8AF0EB11CF501CC
:10109000808189298083FFEFCF1ADF0A6F5F7F4F3E
:1010A000D9CF6FEF70E00F2C02C0660F771F0A9444
:1010B000E2F760957095772E232F2E0D321709F4E5
:1010C00074CFFD01EF56FE4F6F01B12CA12CA91674
:1010D00038F5FA01EA0DFB1DE491F0E02F01002E36
:1010E00002C0440C551C0A94E2F737FD05C0F60116
:1010F0008081862384298083FF2059F037304CF487
:101100004601F0E88F0E911CF4018081872185292A
:101110008083FFEFAF1ABF0A8FEFC81AD80AD7CF64
:101120003F5F4C0F5D1FA058BF4FC8CF3F5F4C0FB4
:101130005D1FA058BF4F86CF3F5F4C0F5D1FA0586B
:10114000BF4F4CCF6A0D7B1D232F2E0D321709F494
:101150002CCFFD01EF56FE4F6F01B12CA12CA9162B
:1011600088F5FB01EA0DFB1D8490912C002E02C036
:10117000880C991C0A94E2F780949094FA01EA0D85
:10118000FB1D6490712C002E02C0660C771C0A9423
:10119000E2F737FD05C0F60180818821862980832A
:1011A000FF2049F037303CF4F601E058FF4F8081D2
:1011B000892187298083FFEFAF1ABF0A8FEFC81AF2
:1011C000D80ACDCF3F5F4C0F5D1F6C0F7D1FA0581D
:1011D000BF4FBCCFC92ED12CFA01E60FF71FAF5677
:1011E000BE4F00E810E00C191D09CC19DD09BE0145
:1011F000660F771F41E050E06A010F2C01C0CC0C54
:101200000A94EAF7592F2E2D792ECF93DF93ED0113
:10121000EF96EF9622968590A590FF2059F08C9C32
:101220004001AC9C500137302CF4E880B094EB20A6
:10123000E928E99233233AF0EC90A094EA20E828D8
:10124000ED920C94240911965A9529F72A9551F09C
:10125000572D33951124E60FF11DA00FB11DC00FBE
:10126000D11DD9CFDF91CF9111249FCE2D9A089512
:1012700090E00C949E068FB18095807F669B88607D
:101280001C9B8460089590E1282F81E061FD84E03B
:1012900060FD880F62FD8295687F969FD0011124C2
:1012A000A20FAF56BE4F0C90082A40FF08260C92A2
:1012B0000895EF92FF920F931F93CF93DF937C01DA
:1012C0008B01040F111DEB0177FF02C0D0E0C0E0DD
:1012D000C8010134110514F080E490E0C817D90763
:1012E0005CF480E8E816F10428F441E0BE01C7018F
:1012F0000E9443092196ECCFDF91CF911F910F916E
:10130000FF90EF9008957F928F929F92AF92BF923D
:10131000CF92DF92EF92FF920F931F93CF93DF93C1
:101320006A30E9F480917601909177010896909364
:10133000770180937601109275011092740181E01B
:1013400090E0DF91CF911F910F91FF90EF90DF9090
:10135000CF90BF90AF909F908F907F9008956D3009
:1013600071F30091740110917501C80104968438DD
:10137000910508F03FC0E0907601F0907701C70139
:10138000079687349105B0F585E0689FE001112448
:10139000C455DF4F6801712CC01BD10BFE01EC0D51
:1013A000FD1DE49185E0781201C0E0E0912C812CD4
:1013B000AE2EB12C80E8C816D10458F4B701680DE0
:1013C000791D6034710528F44E2F4170C6010E94CA
:1013D0004309F501F595E7958FEF881A980A88E09B
:1013E0008816910429F773948FEFC81AD80A86E0FB
:1013F0007812D4CF0A5F1F4F1093750100937401C8
:101400009ECFCF93C82F0E943B09982F9C2381E049
:101410009C1380E0CF91089580E00C94F20408952D
:1014200090E080E008958F929F92AF92BF920F93C9
:101430001F93CF93DF93CDB7DEB7A1970FB6F89484
:10144000DEBF0FBECDBF19A2423008F44AE08E01C4
:101450000F5D1F4F842E912CB12CA12CA50194015E
:101460000E94AC11E62FB901CA01EA3044F5E05DF3
:10147000D801EE938D01232B242B252B79F790E0B7
:1014800080E0109769F0FD0101900020E9F73197A5
:10149000AF014A1B5B0BBD0181EE95E00E94710616
:1014A000A1960FB6F894DEBF0FBECDBFDF91CF91EE
:1014B0001F910F91BF90AF909F908F900895E95C1E
:1014C000D7CF0C9496110F931F93CF93DF938C017A
:1014D00081E090E00E94610A80FF30C08AE090E0E5
:1014E0000E94610A9FEF980F9E3F40F522E330E093
:1014F000309375012093740128E330E03093770135
:1015000020937601CBE0D0E0D801ED91FC910190E1
:10151000F081E02D682FC8010995CE010E94610A73
:101520002196C131D10581F70E940C0A88EE93E023
:10153000DF91CF911F910F910C949E06DF91CF9177
:101540001F910F9108951F920F920FB60F921124C1
:101550008F939F938091E1009091E100937F90930E
:10156000E10083FF0FC01092E90091E09093EB003F
:101570001092EC0092E39093ED001092900198E0AD
:101580009093F00082FF22C093E09093E900909145
:10159000F200992319F09AE39093E8009091810169
:1015A000992341F090918101915090938101911183
:1015B00001C05D9A90918F01992341F090918F0124
:1015C000915090938F01911101C0289A84FF18C007
:1015D0008091E2008E7E81608093E2008091E10044
:1015E0008F7E8093E100809182018E7E8061809366
:1015F00082019F918F910F900FBE0F901F901895B1
:1016000080FFF7CF8091E2008E7E80618093E200C0
:101610008091E1008E7E8093E100809182018E7E38
:101620008160E5CF1F920F920FB60F921124CF92D7
:10163000DF92EF92FF920F931F932F933F934F935D
:101640005F936F937F938F939F93AF93BF93EF932A
:10165000FF93CF93DF93CDB7DEB76C97DEBFCDBFDF
:101660001092E9008091E80083FF25C068E0CE0178
:1016700045960E94630682EF8093E8008D8987FF7C
:1016800039C09091E80090FFFCCF982F907609F038
:1016900034C19E894F89588D2F89F88C911131C0A2
:1016A000803861F5809180018093F1001092F10003
:1016B0008EEF8093E8006C960FB6F894DEBF0FBEF5
:1016C000CDBFDF91CF91FF91EF91BF91AF919F91EE
:1016D0008F917F916F915F914F913F912F911F91CA
:1016E0000F91FF90EF90DF90CF900F900FBE0F9073
:1016F0001F9018959EEF9093E800C7CF1092F100CD
:10170000D5CF913059F48111D3CF4130510581F6B5
:10171000809180018D7F80938001CACF933049F4FE
:101720008111C6CF4130510519F680918001826048
:10173000F2CF953041F48091E80080FFFCCF206823
:101740002093E300B5CF963009F0A9C00B8D1C8D16
:1017500022E01092E90010927E0110927D01F212B7
:101760002EC010927C0110927B010E9432061F82D3
:1017700099E09983FA8291E09E8390EA98879AEFA4
:10178000998720917D0130917E01275F3F4F3C83F7
:101790002B838D831092E90010927E0110927D01BF
:1017A00010937C0100937B0149E050E0BE016F5F24
:1017B0007F4F80E00E940C060E94320679CF109382
:1017C0007C0100937B010E944905DC0112960D917A
:1017D0001C910115110509F451C1D801ED91FC913D
:1017E0000480F581E02DBE016B5E7F4FC801099535
:1017F000009709F03EC1F80100851185EACFF3E0BA
:10180000FF120EC08F89882309F440C0823061F432
:1018100040E867E080E099E00E948E0D811148CF9A
:1018200081E28093EB0047CF813029F440E86BE000
:1018300084EF98E0F1CF833099F70E944905DC01ED
:101840001296ED90FC908E010F5F1F4F6801E1141E
:10185000F10479F0D701ED91FC910680F781E02D3C
:10186000B801C7010995080F111DF701E084F18443
:10187000EECFD8011C92F60101900020E9F73197D4
:10188000BF016C197D0940E0C601C6CF6EED78E05E
:10189000FB01449150E080E80E940C0609CF97308C
:1018A00009F4BECF983021F481E08093F10000CF9D
:1018B000993009F0FDCE837009F0B2CFEAE1F1E092
:1018C00081E031E096E32191222371F08093E900D9
:1018D0003093EB00DF0111972C912093EC00909353
:1018E000ED008F5F873079F78EE78093EA001092E2
:1018F000EA008F8980939001DBCE8B8D9C8D1092B6
:10190000E90010927E0110927D0190937C018093FA
:101910007B01898D811192C08E899D89913A49F40C
:10192000813209F07DCF47E050E061E171E080E075
:10193000B3CF913209F074CF833269F48F89988DD7
:10194000B0E0A0E080930D0190930E01A0930F01F1
:10195000B0931001ADCE803269F48091E80082FF2F
:10196000FCCF67E081E191E00E9463068BEF8093FA
:10197000E8009ECE823209F09BCE8F8980931801B9
:10198000EEEFFFE7859194918B3F9C4D51F1E0E0A4
:10199000F8E08091110190911201A0911301B09192
:1019A0001401803B9440A105B105F1F48091180128
:1019B00080FD1AC0EE3F8AE0F80789F587E797E7D0
:1019C000918380838091600080937F0188E19BE018
:1019D0000FB6F894A895809360000FBE90936000B6
:1019E00067CEEEEFFAE0D5CF8081918187379747B8
:1019F00009F05ECEA89580916000886180936000B8
:101A000080917F0180936000EE3F2AE0F20789F029
:101A10008091FE0A9091FF0A9183808349CE808154
:101A200091818737980751F29093FF0A8093FE0ABD
:101A3000C5CF1092FF0A1092FE0A3ACE0E944905C5
:101A4000DC0112960D911C910115110509F4E8CEE7
:101A5000D801ED91FC910190F081E02DBE016B5E0B
:101A60007F4FC8010995811123CEF80100851185AA
:101A7000EBCF181619060CF41BCED2CEF1E0FF12F4
:101A8000BECE62EE78E004CF0F920FB68F939F9395
:101A9000EF93FF93809147018D5F8D3708F08D574D
:101AA00080934701EEE4F1E080818E4F8083918145
:101AB0009F4F918382818F4F828383818F4F838356
:101AC000E8E4F1E080818F5F808381818F4F8183A3
:101AD00082818F4F828383818F4F83838FB18F6009
:101AE00066991C9B88278F3681F480914601981B4C
:101AF000963068F0E0E0F8E087E78083818388E152
:101B000080936000F0936000FFCF90934601FF91B7
:101B1000EF919F918F910FBE0F901895EF92FF92CA
:101B20000F931F93CF93DF93F82E192FE62E042FD8
:101B300081E0860F880F0E94DE0583E00E94DE05AB
:101B4000CF2DD12FEC0EFD2EF11CCE15DF05B9F0F7
:101B500007FF13C0FE0184910E94DE05182F80E06C
:101B60000E94DE05812321968111EFCFDF91CF9175
:101B70001F910F91FF90EF9008958881EDCF81E044
:101B8000F5CFE1E9F5E01382128288EE93E0A0E060
:101B9000B0E084839583A683B78384E291E0918348
:101BA00080838FEF9FEF95878487E5EEF5E088E7E8
:101BB00090E0918380838EE190E09383828388E03C
:101BC00084838583E1EEF5E01382128286E391E05F
:101BD000918380830895789483E084BD83E085BDFC
:101BE00081E080936E00E1E8F0E083E08083E0E84C
:101BF00081E08083E1E983E08083E0E981E0808324
:101C0000E1EC87E08083E3EC81E08083E0EC82E03C
:101C10008083E2EC81E08083EAE787E0808380686C
:101C20008083109290011092800110928201809125
:101C3000D70081608093D70080EA8093D80089B56F
:101C4000806189BD89B5826089BD09B400FEFDCF80
:101C500081E090E00E949E068091D8008F7C806198
:101C60008093D8008091E000807F8093E000809195
:101C7000E1008E7E8093E1008DE08093E200559A32
:101C8000209A81EC80937C0081E785B987E684B94E
:101C900085E38BB98FE38AB9769A6E9880EF81BB22
:101CA00010BA80E58CBD81E08DBD85E00E943809C9
:101CB000599A85E00E9438095C98ECEAF5E0859134
:101CC0008EBD00000DB407FEFDCFE63BC1F75C9A68
:101CD00081E88093640081E0809365000E94F204B3
:101CE00080E80E94010A8823A9F05C9885EA8EBDED
:101CF00000000DB407FEFDCF5C9A2E9858982D98E1
:101D00008091640080628093640081E083BF889545
:101D100013BEFCCF84E00E94010A882309F445C069
:101D20002D9884E80E94010A8823D9F00E94360980
:101D300088EC0E943809589882E090E00E94961141
:101D40008F3F29F06FEF82E090E00E949E1184EFB8
:101D500091E00E949E06589A84E80E94010A81112F
:101D6000FBCF84E10E94010A8823D9F00E94360942
:101D700088EC0E9438092E9882E090E00E9496112B
:101D8000882329F060E082E090E00E949E1184EFB9
:101D900091E00E949E062E9A84E10E94010A811120
:101DA000FBCF88EC0E943809B5CF0E94360982E04B
:101DB00090E00E94610A882309F464C03E9A579A11
:101DC00081E090E00E94610A182F147081FF16C014
:101DD00011112E98C1EFDFEF96EB892E95E0992E29
:101DE00027EBA22E25E0B22E80E40E94010A882370
:101DF00009F44BC02E9A589A0E94360982E30E9439
:101E000038090E943B098111F9CF80E180930001DC
:101E10000E94AF0410927701109276011092750122
:101E2000109274010E940C0A23E731E015E5A12EFF
:101E300011E0B12E4FEF5FEF83E0F5015183408356
:101E400084838583F6E0AF0EB11C2A153B05A9F704
:101E500088E7809303018EE180930401C5E02C2E76
:101E6000312C44244A94542C80914C01882309F449
:101E70003AC010924C0180E090E0892BA9F30E94B7
:101E80000000F2CF3E9857989BCF112329F0C43021
:101E9000D10511F42E9A589881E00E94F204F401C1
:101EA0000491F501E49082E0C82E30E020E048EB98
:101EB00055E0BE0184E190E00E944D070E940C0AAB
:101EC0008FE00E9438092196C931D10509F08CCFE5
:101ED000112311F0589A2D9880E991E00E949E06F6
:101EE0000E9436098BCF90914E0180914D01292F90
:101EF000281B822F20910001821748F48F5F8217E0
:101F000008F0B9CF81E083BF889513BEB4CF81E0DC
:101F100080934C0190934D01E2E5F1E08081918145
:101F20000196808391830E94AF04109277011092F2
:101F30007601109275011092740180E80E94010AE6
:101F40008823A9F08091520190915301B1010E9420
:101F5000CE11892B09F4BFC080910C0190917301BF
:101F60009111C7C1823090F010920C010FC080E136
:101F70000E94010A8111E6CF80E20E94010A8111CC
:101F8000E1CF80E40E94010A8111DCCF80915201EF
:101F900090915301B1010E94CE11892B29F48091B7
:101FA00006018F5F8093060180910601823010F058
:101FB000109206010E943B098093540180E80E9420
:101FC000010A882351F080910A01882331F0815061
:101FD00080930A0181E08093730180E10E94010AED
:101FE000882381F080910A019091080120E430E07B
:101FF000291B3109821713062CF48F5F80930A0185
:102000001092730180E20E94010A882339F08091C6
:102010000901882319F081508093090180E40E940E
:10202000010A882371F0809109019091070120E84D
:1020300030E0291B3109821713061CF48F5F80934F
:10204000090188E00E94010A882399F080917A01B1
:1020500081110FC0E5E5F1E090E080E02081318161
:102060002F3F3F4F09F44CC10196369685309105BC
:10207000A9F7C5E5D1E0888199818F3F980719F0CC
:10208000019699838883888199818038910514F01D
:10209000598248822696AC16BD0669F7B5E5EB2E47
:1020A000B1E0FB2EF70180809180FFEF8F169F0635
:1020B000C1F0F7016280738084010D5F1F4F8016AD
:1020C000910679F043E0B301C4010E945909FFEF82
:1020D0008F1A9F0AF4CF80910C018F5F80930C01BF
:1020E0003BCF26E0E20EF11CCE15DF05D9F680913C
:1020F0007A01882319F0815080937A0120910C0194
:1021000060910A0170E010910901812F90E0EAE5E9
:10211000F8E00491EBE5F8E0E4904CE558E0222388
:10212000F1F041E050E03E2D377011F450E040E016
:102130003E2D369536953695430F511D049FF0017F
:10214000059FF00D112430E0220F331FE29FA00104
:10215000E39F500DF29F500D1124445A574FE3E076
:10216000CE2E30E020E00E944D078090E705909051
:10217000E8056090E5057090E605F0E48F1691049F
:1021800020F4B401C3010E94BC04B401695F7F4F15
:102190006034710518F4C3010E94BC0448E0B40126
:1021A000C3010E94590948E0B401C30107960E9487
:1021B0005909209106016091040170E080910301AA
:1021C00090E0E8E3F8E00491E9E3F8E0E4904AE322
:1021D00058E02223F1F041E050E03E2D377011F439
:1021E00050E040E03E2D369536953695430F511D13
:1021F000049FF001059FF00D112430E0220F331FE2
:10220000E29FA001E39F500DF29F500D1124465C08
:10221000574F23E0C22E30E020E00E944D0720916E
:10222000E905260D372D311D4091EA05480D592D40
:10223000511D8091780190917901E5E5F1E0A0814F
:10224000B18164816A0F7B2F711D6616770694F445
:10225000A217B3077CF4A281B38165816A0F7B2F3B
:10226000711D8616970634F4A417B5071CF4019661
:10227000518240823696CE17DF0709F79093790195
:102280008093780110927501109274011092770179
:1022900010927601612F70E090E080E04AE00E94A9
:1022A000130A109275011092740188E090E09093E7
:1022B00077018093760160910A0170E090E080E000
:1022C0004AE00E94130A1092750110927401E0E135
:1022D000F0E0F0937701E0937601609178017091DE
:1022E000790190E080E04AE00E94130A0E940C0A03
:1022F000C2CD843008F44ACE82E080930C0146CEF1
:1023000026E0289FF001299FF00D1124EB5AFE4F83
:102310008091090190E09183808380910A0190E08F
:1023200003969383828320937A01A3CEF999FECFFB
:1023300092BD81BDF89A992780B50895262FF99905
:10234000FECF1FBA92BD81BD20BD0FB6F894FA9A98
:10235000F99A0FBE01960895A1E21A2EAA1BBB1B83
:10236000FD010DC0AA1FBB1FEE1FFF1FA217B30761
:10237000E407F50720F0A21BB30BE40BF50B661F77
:10238000771F881F991F1A9469F76095709580953B
:1023900090959B01AC01BD01CF010895AA1BBB1B09
:1023A00051E107C0AA1FBB1FA617B70710F0A61B55
:1023B000B70B881F991F5A95A9F780959095BC0176
:1023C000CD010895EE0FFF1F0590F491E02D0994C3
:1023D000F894FFCF100808402002000808402002AF
:1023E00000FFFFFFFF00E100000000000000C180CF
:1023F00081000000000000005D05B2067E05730547
:10240000C4058205A0050000000083097106100ABA
:042410000F0A630A42
:1074000080E189BD82E189BD09B400FEFDCF089508
:10741000CAD569F08091E9008F931092E9009FD45A
:1074200083FF01C01ED58F9187708093E900089576
:107430008EEF0090E10008220092E1000895F20131
:10744000F999FECFF2BDE1BD0895F9DFF89A80B554
:1074500008C0F5DF1FBA80BD0FB6F894FA9AF99A02
:107460000FBE31962F010895E0E0F0E085919491F0
:10747000019608958AE28BB98BEA34D01092890084
:107480008AEF8093880082E080936F0083E080938E
:107490008100E7E5F7E785913AD0E336E1F781E04F
:1074A0008093D7008AE482BF1092D8001092E20045
:1074B0001092DA001092E10080E808D019BC1EBAE0
:1074C0001092E00062D489E053D481E98093D8001F
:1074D0000895A3E6B1E090E81AD08D939A95E1F76C
:1074E000089586E008D010C083E005D08F2F0FD01C
:1074F0008E2F0DD080E05B9A5A9809C005D085E0A8
:10750000FADF05D080FDFDCF5A9A5B9808958EBDB5
:107510008DB587FFFDCF8EB508958FE08221E9F705
:10752000F3DFE3E6F6E090EB5C98892FF0DF80E193
:10753000EEDF5C9A8191EBDF83E68E278F77D1F7C0
:107540009395983B89F70895E3E6F1E097FC36C000
:1075500094FC4DC092FE089596849920D1F3F8943E
:10756000C089D78520E030E080E090E4AFEFBFEF46
:10757000119689199040E0F72D01BD4F8D0127FD2F
:1075800013C0E0E0F8E011928EE7819392E4E117F6
:1075900091939AE508F092E4E334C9F7819310825D
:1075A000BFDFFE012196A0DF94DFF901FFD4205850
:1075B0003F4F040D151D9A9411F712C28301282D17
:1075C00060906C0170906B0143D019F48823C1F76F
:1075D0000895380188243CD0C9F580916A0182174A
:1075E00009F4830160906E0170906D01F4CF80E129
:1075F000982E60906E0170906D012AD059F4882306
:10760000B1F708959FEF95FC03C096FE089591E0B1
:1076100097FB890E662477248301222719D0B1F4C1
:107620008823A1F380916A0136F0881650F48217FE
:1076300030F0213003C0881520F4281710F483019E
:10764000282F60906E0170906D01E8CF3801822E76
:10765000F3014ADF3EDFC3E6D1E0E0E5F7E709905A
:107660008591081621F4E735D1F7088080104CCFBA
:10767000C9E031DFCA95E9F7D0E197FC55C094FC29
:1076800037C096FE1AC0C3E6D2E0E3E6F6E098E023
:1076900088E78E0F00840192E817E1F7884F099080
:1076A0000192E817E1F7C858DF4F9A9589F735DF5F
:1076B000C85FD340C33E49F749C0C3E6D6E0EBE517
:1076C000FAE098E08E2F885702900086E817E1F7DD
:1076D00038960A900292E817E1F73897C857D040D9
:1076E0009A9581F71ADFC850DC4FC33E41F72EC090
:1076F000A3EEB6E0E3E6F6E09AE0C6E00D90808106
:107700008025807F802582958193A336B90709F46F
:10771000B2E0E336F90709F4F2E0E336FC0771F76B
:10772000FCDEDA9529F712C0A3EEB9E0E3E6FAE051
:1077300092E00E90829180258F70802582958083C3
:10774000E336F907B1F7E9DEDA9571F7882708958E
:1077500041524455424F59D5F08D14A1C881CFD91B
:10776000F1AF020000FFFFCFCFFFFFFFFFCFCFFF42
:10777000FF0000FE067E7E06FE46565616FE0656A4
:10778000461EFE3F61E9E3FFE3EBE3FFE3EBE3FFCC
:10779000E16B3F0012011001020000084123360096
:1077A00001000000000109023E00020100803209D0
:1077B000040000010202010005240010010424025B
:1077C000040524060001070582030800FF090401DF
:1077D00000020A00000007050402100001070583EB
:0477E0000210000192
:1078000011241FBE04B714BE88E18093600010925B
:1078100060008EEF9AE09EBF8DBF222433242101A9
:107820003101410180E88AC00F928F939F931F928C
:107830000FB60F9211244F936F938091DA0080FF5F
:1078400037C023C00F920FB68F939F93EF93FF9390
:1078500088278093850080938400E0E5F1E09281A1
:10786000907261F490818917980B908309F45D9A66
:1078700091818917980B918309F4289A239411F424
:107880008315381EFF91EF9154C08091D80080FF7E
:107890000FC08091DA008E7F8093DA008091D9004A
:1078A00080FF04C0ADDD81E08EBB02C019BC1EBAF2
:1078B0008091E10080FF0BC055D280FF08C055D2F7
:1078C0008091D800806202DE19BC85E08EBB809179
:1078D000E10084FF1AC046D284FF17C091DD809179
:1078E000D8008F7DF3DD8FEEA4DD3CD28F7E8160EA
:1078F0003FD280915301882331F48091E30087FDCA
:1079000002C081E001C084E08EBB8091E10083FF72
:107910000CC028D283FF09C087EF8BDD82E08EBBCD
:107920001092530185DD21D230D26F914F910F908B
:107930001F909F918F910FBE0F90189580936100BB
:1079400010926100B1E0B5BF82E085BF81EF85B9DB
:1079500087EE84B91DB8769A10BA83EF81BB8CE2AA
:107960008BB98FE38AB980E58CBDBDBDA0E0E4E9A9
:10797000F7E705900D92A035E1F71D92BB30E9F7CE
:1079800001FD06C0000004C07C9B02C06DDD41F516
:1079900071DD78945DDE71F0ABE9B7E0E3E6F7E71F
:1079A00090E105900D929A95E1F7A059BF4FE33908
:1079B000B9F7B7DD52D02CDD80915201807861F4A7
:1079C0008FB18095807F66991C9B8460982E1ADE0B
:1079D0008110BADD92FC02C0332062F745DD51F31D
:1079E000F89489EB7FDD81E08093E00010926F00D6
:1079F00010928100109285001092840081E085BF72
:107A000015BE2E9A589A2D9A5D9A289A0C940000C9
:107A1000A4D107C057D102C0C6D239F0A0D182FF8D
:107A2000FBCF85FFF7CF8091F1000895082E83E00A
:107A300095D185FD07C08AD102C0B5D269F08FD13A
:107A400080FFFBCF0092F10080915201807221F4FF
:107A50005D9884E68093500108957FD182FF34C100
:107A600080915201807221F4289884E6809351011C
:107A7000CFDF182F853431F422248EE7382EDFDC57
:107A80008DE00BC1843511F4C3DFFACF8C34C1F320
:107A90008035B1F3843721F484E4C8DF80E0FDC091
:107AA000813611F489E5F9C0813429F4B1DF582E0B
:107AB000AFDF482EE5CF803711F483E5EEC0833584
:107AC00039F4E0E5F7E78591B1DFE735E1F7E6C0A6
:107AD000863521F481E3AADF89E3DFC0863761F4CC
:107AE00081E3669B8E5F1C9B8F5FA0DF8FB18095CB
:107AF00082958F708F5BD1C08837A9F489DF80931E
:107B00005201289A84FD28985D9A83FD5D982E9AEB
:107B100081FD2E98589A82FD58982D9A80FD2D98B7
:107B200087FD8824ADCF8A3649F48FE9E4DCC3E0D1
:107B3000EEDC7CDFCA95E1F7E7DCB0C0833731F4D7
:107B400087E874DF85E972DF8EE1A7C0853639F4F6
:107B5000E0E8F3E73ED2E058F040E0F791CF82361C
:107B600031F489E563DF80E061DF80E896C082342C
:107B700019F0873609F07DC033244ADFD82F48DF5B
:107B8000C82F46DF082F8354843008F085C00634A0
:107B900011F4440C551CF20110926F001736B9F421
:107BA000033489F483E0A1DCB2DC8EB51EBC3EDF79
:107BB0000DB42197D1F7A8DC08C0063411F48591E3
:107BC00001C043DC33DF2197C2F72F014AC00334E1
:107BD000A9F4E11104C085DC88ED87DC8FDC81DC51
:107BE00082E083DC15DF0DB48EBDCA95D9F73196DE
:107BF0008FDC84DCDA9569F72F0131C00634F1F4AB
:107C00009F01F437D8F4E5D119C002DF063461F4DE
:107C1000C0FB46F0F43728F4182E81E087BFE895C2
:107C200011243296082E0AC0043439F4DF01B370EF
:107C3000AD59B94F8D93319601C00BDC21972AF7CE
:107C4000043431F42F01F370FE2B49F46ADC07C0D1
:107C5000063429F42F01F901F43708F4B8D18DE086
:107C6000E5DE063411F45694479482E080936F0069
:107C700015C08237E1E049F08634E0E031F08E341F
:107C8000E3E019F0813531F4E2E0F0E089E087BF0C
:107C9000849103C08B3111F08FE3C8DE83E0C5DB34
:107CA00055D095FF03C009C07ED171F058D080FF38
:107CB000FBCF4CD002C077D139F051D080FFFBCF41
:107CC00084E0B3DB8BE743C00895E4E5F1E067E0CF
:107CD00090915B0180915C01913231F0913AE1F534
:107CE0008132D1F55ED181C0823271F48191805BA5
:107CF0008191844089F580915D0180FD2DC0F894CB
:107D000081E08093E0007CCD803231F54AD14BD1C7
:107D1000E9F08530D9F023D083FD18C082FFF7CF7A
:107D200004C081DE8193615031F09091F300809125
:107D3000F200892BB1F7C6DF611549F704C033D1D2
:107D400029F0853019F00BD080FFF9CF8EE79091A4
:107D5000E80089238093E800089584E066DB809141
:107D6000E80008958091E2000895FCDF8E7F806135
:107D70008093E200089582E061EC09D083E061E83D
:107D800002D084E060E842E103C080E060E042E0CD
:107D90004CDB81E007D01092ED006093EC00409343
:107DA000ED0008959091EB00892B8093EB000895EE
:107DB00060E0923029F0913029F4E0E062E102C005
:107DC000E2E16EE3F1E0089580915B0188234CF4D9
:107DD00002C0E9D0C1F3C3DF82FFFBCF73CFE3D092
:107DE00091F3BDDF80FFFBCFB1CF40916101509196
:107DF00062014617510520F0462F611509F4A6DFF0
:107E000050E022C0D0D061F1853051F1A8DF83FD70
:107E100059CFA5DF82FD21C080FF16C03091F3004D
:107E20002091F20006C081918093F10041502F5FB4
:107E30003F4F411519F028303105A8F350E02830A4
:107E4000310509F451E082DF4115E1F65523D1F601
:107E500004C0A9D029F0853019F081DF82FFF9CF65
:107E600031CFEBE5F1E0DFDD8193E336E1F72DDFA4
:107E700076DF83FF91C080915B0190915C0191302E
:107E800009F170F09330F1F0953009F444C0963068
:107E900009F456C0983009F460C0993059F767C0AA
:107EA000823841F780915F01BFDA2091EB00109298
:107EB000E90077D02295269521702093F100109249
:107EC000F10052C0882311F08230A1F68F71823008
:107ED00089F680915D018823D1F420915F0127709C
:107EE00049F22093E9008091EB0080FF10C09330AD
:107EF00011F480E20BC080E155DF81E0880F2A9504
:107F0000E9F78093EA001092EA0088E04BDF1092D4
:107F1000E90047D02AC0882391F410915D011068D0
:107F20000FB7F8943ED050DF1ADF80FFFDCF1093DB
:107F3000E300103883E009F482E08EBB0FBF2CC051
:107F40008058823048F580915D0190915E0130DF6C
:107F5000603011F126D049DF1FC08038E9F421D00C
:107F6000809153018093F100F1DE2EDF15C088234C
:107F700099F490915D01923078F49093530111D06F
:107F800023DF80915301882321F48091E30091E065
:107F900087FD94E09EBBEFDEE2DE83FF089580E282
:107FA00001DF87EFD4CE8EB388230895A3E6B1E036
:107FB000F437B8F40ED090E40D901D9081E087BFA7
:107FC000E89532969A95C1F71124E058F04085E083
:107FD00001C083E001D081E187BFE89507B600FCCE
:047FE000FDCF089534
:067FFA003139D9CFFBDC98
:00000001FF
