:100000000C943D080C9465080C9465080C946508E4
:100010000C9465080C9465080C9465080C946508AC
:100020000C9465080C9465080C946B0F0C94DA0F13
:100030000C9465080C9465080C9465080C9465088C
:100040000C9465080C9465080C9465080C9465087C
:100050000C9465080C9465080C9465080C940C12BB
:100060000C9465080C9465080C9465080C9465085C
:100070000C9465080C9465080C9465080C9465084C
:100080000C9456120C9465080C9465080C94650841
:100090000C9465080C9465080C9465080C9465082C
:1000A0000C9465080C9465080C94650803081F05FA
:1000B0001F1F151B1F11111F110E1F15111F0501E9
:1000C0001F111D1F041F001F0010101F1F041B1FE6
:1000D00010101F061F1F011F1F111F1F05071F31B3
:1000E0001F1F051B17151D011F011F101F0F100FCC
:1000F0001F0C1F1B041B071C071915130C121E1FB6
:10010000120C1E12120C121F0C1A14041F052E2A98
:100110001E1F021C001D00201D001F041A011F00CD
:100120001E041E1E021E1E121E3E120C0C123E1E2D
:10013000020614120A020F121E101E0E100E1E08C6
:100140001E1A041A2E281E1A12161F111F001F0035
:100150001D151711151F07041F17151D1F151D014C
:10016000011F1F151F17151F0017000010000005A5
:100170000000000000003E5B4F5B3E3E6B4F6B3E5D
:100180001C3E7C3E1C183C7E3C181C577D571C1C9A
:100190005E7F5E1C00183C1800FFE7C3E7FF0018F5
:1001A000241800FFE7DBE7FF30483A060E262979DE
:1001B0002926407F050507407F05253F5A3CE73C3F
:1001C0005A7F3E1C1C08081C1C3E7F14227F2214F0
:1001D0005F5F005F5F06097F017F006689956A6047
:1001E0006060606094A2FFA29408047E040810205E
:1001F0007E201008082A1C08081C2A08081E101057
:1002000010100C1E0C1E0C30383E3830060E3E0E00
:1002100006000000000000005F000000070007006B
:10022000147F147F14242A7F2A1223130864623651
:10023000495620500008070300001C2241000041DD
:10024000221C002A1C7F1C2A08083E080800807017
:10025000300008080808080000606000201008044A
:10026000023E5149453E00427F400072494949469D
:100270002141494D331814127F1027454545393C1B
:100280004A49493141211109073649494936464908
:1002900049291E000014000000403400000008142A
:1002A00022411414141414004122140802015909A3
:1002B000063E415D594E7C1211127C7F49494936F8
:1002C0003E414141227F4141413E7F494949417F71
:1002D000090909013E414151737F0808087F004127
:1002E0007F41002040413F017F081422417F404070
:1002F00040407F021C027F7F0408107F3E41414145
:100300003E7F090909063E4151215E7F09192946B0
:10031000264949493203017F01033F4040403F1FC6
:100320002040201F3F4038403F63140814630304FB
:100330007804036159494D43007F4141410204085B
:100340001020004141417F0402010204404040402E
:1003500040000307080020545478407F2844443864
:100360003844444428384444287F385454541800AE
:10037000087E090218A4A49C787F0804047800442D
:100380007D40002040403D007F1028440000417F18
:1003900040007C047804787C0804047838444444A1
:1003A00038FC1824241818242418FC7C0804040899
:1003B000485454542404043F44243C4040207C1CB2
:1003C0002040201C3C4030403C44281028444C90A5
:1003D00090907C4464544C440008364100000077FF
:1003E0000000004136080002010204023C262326D8
:1003F0003C1EA1A161123A4040207A38545455590C
:100400002155557941215454784121555478402043
:10041000545579400C1E527212395555555939545C
:1004200054545939555454580000457C41000245F4
:100430007D420001457C40F0292429F0F028252840
:10044000F07C545545002054547C547C0A097F4963
:1004500032494949323248484832324A4848303AAB
:100460004141217A3A42402078009DA0A07D394444
:100470004444393D4040403D3C24FF2424487E49CB
:1004800043662B2FFC2F2BFF0929F620C0887E09FD
:100490000320545479410000447D413048484A3299
:1004A000384040227A007A0A0A727D0D19317D2681
:1004B00029292F28262929292630484D4020380867
:1004C00008080808080808382F10C8ACBA2F1028E8
:1004D00034FA00007B000008142A142222142A1483
:1004E000089500220095AA005500AAAA55AA55AA67
:1004F000000000FF00101010FF00141414FF001083
:1005000010FF00FF1010F010F0141414FC0014146D
:10051000F700FF0000FF00FF1414F404FC1414178C
:10052000101F10101F101F1414141F00101010F0B3
:10053000000000001F101010101F10101010F010FD
:10054000000000FF101010101010101010FF10000D
:100550000000FF140000FF00FF00001F1017000044
:10056000FC04F414141710171414F404F40000FF1E
:1005700000F714141414141414F700F714141417B7
:100580001410101F101F141414F4141010F010F095
:1005900000001F101F0000001F14000000FC1400CA
:1005A00000F010F01010FF10FF141414FF141010BE
:1005B000101F00000000F010FFFFFFFFFFF0F0F041
:1005C000F0F0FFFFFF0000000000FFFF0F0F0F0F14
:1005D0000F38444438447C2A2A3E147E0202060620
:1005E000027E027E0263554941633844443C044024
:1005F0007E201E2006027E020299A5E7A5991C2AEC
:10060000492A1C4C7201724C304A4D4D30304878AA
:100610004830BC625A463D3E494949007E010101CD
:100620007E2A2A2A2A2A44445F444440514A4440AC
:1006300040444A51400000FF0103E080FF000008F1
:10064000086B6B083612362436060F090F060000B9
:1006500018180000001010003040FF0101001F01B9
:10066000011E00191D1712003C3C3C3C000000001C
:1006700000F0F89C8E8783878E9CF8F00000FEFFC8
:100680000303030303070EFCF80000FEFF0303034C
:100690000303070EFCF80000FFFF0000000000004D
:1006A00000FFFF0000FEFF8383838383C7EE7C3857
:1006B0000000F8FC0E07030303070EFCF800003FE0
:1006C0007FE0C08080C0E07F3FFFFF0101010101AA
:1006D0000101FFFF0000FFFF0C0C0C0C1C3E77E338
:1006E000C100007FFFC0C0C0C0C0E0703F1F00005D
:1006F0001F3F70E0C0C0C0E0703F1F00007FFFC11F
:10070000C1C1C1C1E3773E1C00001F3F70E0C0C003
:10071000C0E0703F1F000000000001FFFF0100006B
:10072000008D14A1C881CFD9F102AF08083CFF4267
:10073000FF8DFFA1FF8DFF42FF3CFF00FF30FF4810
:10074000FF94FF84FF84FF94FF48FF30FF7810C0C0
:10075000F0F0FCFEFE0E0EFCFC00000000E0E0F0FD
:1007600030303030F0F0F0C0000000C0C0F0F0C019
:10077000C000C0C0F0C0C00000E0E0F0F0F0F0F059
:10078000E0E0C000000000000000000000000000E9
:10079000000000C0F0F0FC3C3C3CFCF0F00000002D
:1007A00000E0F0F0E000000000F0F0E0000000E009
:1007B000F0F0F0F0F0F0E0C0C0000000C0E0E0F0C9
:1007C000303030F0E0E0C01FFFFFFFFFFF8090718E
:1007D000710000001F7F7FFF70181870FFFFFF7F00
:1007E0000000001F1FFF7F0F0F1E0F0FFF7F7F00F6
:1007F000007F7FFF99999989616161000000000085
:1008000000000000000000000000001FFFFFFF804C
:100810008080FF7F7F1F000000071F1FFFF8F8F098
:10082000781F1F0F0000007FFFFF99999989616170
:10083000610000007FFFFFFF1818187EEFEF871997
:100840000800FF0CFF1EFF3EFF7CFF3EFF1EFF0C5B
:10085000FF00FF18FF3CFF7CFFF8FF7CFF3CFF1808
:10086000FF00FF0CFF1EFF3EFF7CFF3EFF1EFF0C44
:10087000FF00FF00FF18FF3CFF7CFFF8FF7CFF3C00
:10088000FF18FF00FF0CFF1EFF3EFF7CFF3EFF1E18
:10089000FF0CFF00FF18FF3CFF7CFFF8FF7CFF3CD4
:1008A000FF18FF00FF080800FF17FFF9FF7FFF7F19
:1008B000FF79FF17FF20FF20FF17FF79FF7FFF7FE2
:1008C000FFF9FF17FF00FF00FF17FFFFFF47FF477C
:1008D000FF7FFF17FF20FF20FF17FF7FFF47FF4726
:1008E000FFFFFF17FF00FF60100000C0C0C0C00086
:1008F000C0C0C0C000C0C00000000000C0C00000F8
:1009000000C0C00000000000000000C02090D09097
:1009100020C00000000000C0C0C0C0C0C000C0C0F7
:10092000C0C000000000000000C0C0000000C0C047
:10093000C0C0C0C0000000C0C0000000C0C0C0C037
:1009400000C0C0C0C0C0C0000000000F0F03030003
:100950000F0F0000000F0F0F0F0C0C000C0C0F0FEF
:10096000000C0C0F0F00000000000003060D0C0D22
:100970000603000000000000000F0F0000000F0F32
:100980000C0C0F0F00000000000C0C0F0F000000FB
:100990000F0F0000000F0F03030F0F000F0F0000D9
:1009A0000000000F0F000000000000C0C0C0C00029
:1009B000C0C0C0C000C0C00000000000C0C0000037
:1009C00000C0C00000000000000000E010C868C8BF
:1009D00010E00000000000C0C0C0C0C0C000C0C027
:1009E000C0C000000000000000C0C0000000C0C087
:1009F000C0C0C0C0000000C0C0000000C0C0C0C077
:100A000000C0C0C0C0C0C0000000000F0F03030042
:100A10000F0F0000000F0F0F0F0C0C000C0C0F0F2E
:100A2000000C0C0F0F00000000000003050A0A0A6A
:100A30000503000000000000000F0F0000000F0F72
:100A40000C0C0F0F00000000000C0C0F0F0000003A
:100A50000F0F0000000F0F03030F0F000F0F000018
:100A60000000000F0F0000000060280000C0E0F050
:100A70003030E0000000C0E0E0E0E0C00000000036
:100A8000C0E0E0E0E0C000000000C0E0E0E0E0E046
:100A9000C0000000E0E0C0000080C0C0C0C0800016
:100AA000000080C0C0C0C0C0C080000000000000C6
:100AB0000000000000000000000000000000000036
:100AC0000000000000000000000000001F7F7F7F8A
:100AD00040403300001F7F7F40407F3F1E00001FCB
:100AE0007F7F40407F3F1E0000072F073F7F7F072B
:100AF0001F0700003F7F7F00003F7F5B5B4B23238E
:100B0000000037776742667E7C39000000000000F5
:100B100000000000000000000000000000000000D5
:100B200000000000000000000000000000000000C5
:100B300000000400000000000000000000000000B1
:100B4000000000000000000000000000000080C065
:100B5000C0C0C0C0C00000000080C0C0C0C0C08015
:100B60000000000080C0C0C0C0C080000000008045
:100B7000C0C0C0C0C0C0000000000080C0C0C080B5
:100B8000000000C0C0800000C08000000000000025
:100B90000000000000000000000000000000000055
:100BA000000000000000000000000000003E7FFF89
:100BB000301830FFFF7F00000E0F0F7FFFFF0F0F79
:100BC0000E00000E0F0F7FFFFF0F0F0E00003E7F85
:100BD000FF301830FFFF7F00003CFFFFFF80806781
:100BE00000007FFFFF7F1C3FF76300000000000054
:100BF00000000000000000000000000000000000F5
:100C000000000000000000000000000000010000E3
:100C100000000000000000000000000000000000D4
:100C200000000000000000000000000000000000C4
:100C300000000000000000000000000300000000B1
:100C400000000000000000000000000000C0E0F014
:100C50003030E0000000C0E0E0E0E0C00000000054
:100C6000C0E0E0E0E0C000000000C0E0E0E0E0E064
:100C7000C0000000E0E0C0000080C0C0C0C0800034
:100C8000000080C0C0C0C0C0C080000000000000E4
:100C90000000000000000000000000000000000054
:100CA0000000000000000000000000001F7FFF7F28
:100CB0004040B300001F7F7F40407F3F1E00001F69
:100CC0007F7F40407F3F1E00000787073F7F7F07F1
:100CD000872700003F7F7F00003F7F5B5B4B232324
:100CE000000037776742667E7C3900000000000014
:100CF00000000000000000000000000000000000F4
:100D000000000000000000000000000000000100E2
:100D100000000000000000000000000000000000D3
:100D20000000000000000000000004000010A0C04F
:100D3000C1C0C0C0C00000000080C0C0C0C0C08032
:100D40000000000080C0C0C0C0C080000000008063
:100D5000C0C0C0C0C0C0000000000080C0C0C080D3
:100D6000000000C0C0800000C08000000000000043
:100D70000000000000000000000000000000000073
:100D8000000000000000000000000000003E7FFFA7
:100D9000301830FFFF7F00000E0F0F7FFFFF0F0F97
:100DA0000E00000E0F0F7FFFFF0F0F0E00003E7FA3
:100DB000FF301830FFFF7F00003CFFFFFF8080679F
:100DC00000007FFFFF7F1C3FF76300000000000072
:100DD0000000000000000000000000000000000013
:100DE00000000000000000000000000000100002F1
:100DF00000000000020400000000000000000000ED
:100E000000000000000000000000000000000000E2
:100E100000000000000000000000001800000001B9
:100E200000000000000000000000000000C0E0F032
:100E30003030E0000000C0E0E0E0E0C00000000072
:100E4000C0E0E0E0E0C000000000C0E0E0E0E0E082
:100E5000C0000000E0E0C0000080C0C0C0C0800052
:100E6000000080C0C0C0C0C0C08000000000000002
:100E70000000000000000000000000000000000072
:100E80000000000000000000000000001F7F7F7FC6
:100E900040403300001F7F7F40407F3F1E00001F07
:100EA0007F7F40407F3F1E0000072F073F7F7F0767
:100EB000070700003F7F7F00003F7F5B5B4B2323E2
:100EC000000037776742667E7C3900000000000032
:100ED0000000000000000000000000000000000012
:100EE00000000000000000000000000000006000A2
:100EF00000000800000000000000000000000000EA
:100F0000000000000000000000000000020180C09E
:100F1000F0C0C0C0C00000000080C0C0C0C0C08021
:100F20000000000080C0C0C0C0C080000000008081
:100F3000C0C0C0C0C0C0000000000080C0C0C080F1
:100F4000000000C0C0800000C08000000000000061
:100F50000000000000000000000000000000000091
:100F6000000000000000000000000000003E7FFFC5
:100F7000301830FFFF7F00000E0F0F7FFFFF0F0FB5
:100F80000E00000E0F0F7FFFFF0F0F0E00003E7FC1
:100F9000FF301830FFFF7F00003CFFFFFF808067BD
:100FA00000007FFFFF7F1C3FF76300000000000090
:100FB0000000000000000000000000000000000031
:100FC000000000000000000000000000000100041C
:100FD0000000000010000000000000000000000001
:100FE0000000000000000000000000000000000001
:100FF00000000000000000000000000000000008E9
:101000000000000000000000000000080B000202C9
:101010000200000904000001020200000524001083
:10102000010524010101042402060524060001072C
:1010300005810310004009040100020A00000007B6
:101040000502024000000705830240000004030976
:101050000412010002EF0201404123368000010129
:1010600002030141726475696E6F204C4C4300416C
:101070004241313130360000EA1211241FBECFEF59
:10108000DAE0DEBFCDBF12E0A0E0B1E0ECE2F5E3D4
:1010900002C005900D92AC31B107D9F727E0ACE161
:1010A000B2E001C01D92A734B207E1F718E0CDE32A
:1010B000D8E004C02197FE010E948E1ACC33D107DC
:1010C000C9F70E9457130C94941A0C940000809155
:1010D000320208956F927F928F929F92AF92BF9249
:1010E000CF92DF92EF92FF920F931F93CF93DF93F4
:1010F000DC01FA011491319654913196C12FD0E060
:10110000222309F1CC24C394D12C852F877011F4AC
:10111000D12CC12CE52EE694E694E694EC0CFD2C43
:10112000F11CEC9EC001ED9E900DFC9E900D1124D3
:10113000033011F4880F991F289F7001299FF00C2C
:101140001124EE0DFF1D7D01EC0EFD1E1E141F046B
:101150000CF06BC0A038B1050CF067C0CB01850F57
:10116000911D181619060CF060C0603471050CF062
:101170005CC0309709F459C0362F3770CB0177FD2A
:10118000079623E0959587952A95E1F7282F77FF15
:1011900004C0332311F02FEF280F662777276A1B2F
:1011A0007B0BB7FD02C070E060E090E89A1B40E85E
:1011B000E416F1040CF4912F961BE22E022E000C83
:1011C000FF08DE2CD0942F3F0CF0D12C41E0852F6E
:1011D000877009F440E0B52EB694B694B6944B0DE2
:1011E000E40EF11C89E0E816F10414F048E0421B1B
:1011F000B42EBD182D0D40E8240370011124AE0D4E
:10120000BF1DA60FB71F1D9D600D711D1124AF01DD
:10121000460F571FC32E032E000CDD08033009F4C0
:10122000C7C090F4023009F474C0DF91CF911F91D0
:101230000F91FF90EF90DF90CF90BF90AF909F9075
:101240008F907F906F9008950A3FA1F1B20E0B3FEF
:1012500061F72B1551F3BD016A577D4F10E000E097
:10126000091708F09FC0FA01E00FF11FE491F0E0C8
:101270004F010C2C02C0880C991C0A94E2F727FD40
:1012800006C0FB018081F82CF0948F2180833323EA
:1012900061F0273054F47B01F0E8EF0EF11CA92C2B
:1012A000A094F70180818A2180830F5F1F4F6F5FB9
:1012B0007F4FD6CFB20E2B1509F4B7CFBD016A57B9
:1012C0007D4F10E000E0091708F066C0FA01E00F5A
:1012D000F11FE491F0E04F010C2C02C0880C991C26
:1012E0000A94E2F727FD04C0FB01808188298083EE
:1012F000332351F0273044F47B01F0E8EF0EF11C6A
:10130000F7018081892980830F5F1F4F6F5F7F4FB7
:10131000DACF6FEF70E0032E02C0660F771F0A94DA
:10132000E2F760957095972E8B2C820E281509F4A4
:101330007CCF8D010A571D4FF12CE12CE91630F5B9
:10134000FA01EE0DFF1DE491F0E03F010C2C02C00C
:10135000660C771C0A94E2F727FD05C0F80180812E
:10136000862386298083332359F027304CF4580193
:10137000F0E8AF0EB11CF5018081892187298083B7
:10138000FFEFEF1AFF0A0F5F1F4FD8CF2F5F4C0FF1
:101390005D1FA058BF4FCACF2F5F4C0F5D1FA058D5
:1013A000BF4F89CF2F5F4C0F5D1FA058BF4F51CF4C
:1013B000E92EF12CFA01E60FF71FAA57BD4F60E89E
:1013C00070E06E197F09CE19DF098E01000F111F21
:1013D00041E050E07A01032E01C0EE0C0A94EAF7D6
:1013E000592F4B2D892E932ECF93DF93ED01EF963E
:1013F000EF962296A590C590992059F0AE9C500189
:10140000CE9C600127302CF4F880D094FD20FB287E
:10141000F99222233AF0FC90C094FC20FA28FD9225
:101420000C94130A11965A9529F74A9551F0582DA4
:1014300023951124E00FF11DA60FB11DC60FD11D7C
:10144000D9CFDF91CF911124F0CE90E0E6E8F2E021
:1014500091119FEF8FEF919391939193919381507D
:10146000D0F70895E6E8F2E030EB20E146E05C9842
:101470003EBD4A95F1F72EBD20E8239507C0449163
:1014800040815C9A4EBD8111412D419344912A9532
:10149000B1F73395383B49F70DB40895FC018091BD
:1014A0008502882311F13FB7F89482E08093E90028
:1014B0002091F200822F90E01816190614F481E0B2
:1014C00090E0882339F0289844E6409384024091C4
:1014D000F1004083222339F02091F200211103C052
:1014E0002BE62093E8003FBF08958FEF9FEF08950C
:1014F0002FB7F89483E08093E9009091E800892F5A
:10150000807295FF04C09091F20080E4891B2FBF88
:10151000089580917C0281110DC082E08093780251
:1015200084E08093790210927B0210927A0281E02B
:1015300080937C0288E792E00895CF93DF931F9217
:10154000CDB7DEB76983DC01ED91FC910280F381B8
:10155000E02D41E050E0BE016F5F7F4F09950F9095
:10156000DF91CF91089583E08093E9008091F200AC
:10157000882319F08AE38093E80008950E94780A8E
:1015800090E00895CF93DF931F92CDB7DEB7FC01B3
:101590008485958597FD08C02FEF3FEF3587248719
:1015A0000F90DF91CF910895CE0101960E944E0ACF
:1015B000019719F4898190E0F3CF8FEF9FEFF0CF7F
:1015C0000F931F93CF93DF931F92CDB7DEB78C019C
:1015D000FC018485958597FF0BC0CE0101960E9482
:1015E0004E0A019771F4898190E0F801958784870C
:1015F000F801848595850F90DF91CF911F910F9110
:1016000008958FEF9FEFF1CFFC018485958597FDBD
:101610000BC09FB7F89482E08093E9008091F200BC
:101620009FBF90E0019608959FB7F89482E0809361
:10163000E9008091F2009FBF90E00895409172020E
:10164000509173022091700230917102421753073A
:10165000B4F49091E8009570E1F39091E80092FD68
:1016600019C08093F10080917202909173020196EB
:101670008F739927892B19F48EEF8093E80080915E
:10168000720290917302019690937302809372029A
:1016900081E0089580E00895DF92EF92FF920F932A
:1016A0001F93CF93DF93D82E8A01EB017B01E40EC9
:1016B000F51ECE15DF0559F0D7FE12C0FE0184914C
:1016C0000E941E0B21968111F4CF0FEF1FEFC8016E
:1016D000DF91CF911F910F91FF90EF90DF900895D0
:1016E0008881EECF0F931F93CF93DF931F92CDB7D7
:1016F000DEB782E0898342E450E06BE070E180E88D
:101700000E944C0B0E94890ADC0112960D911C91DB
:101710000115110589F0D801ED91FC910280F3814A
:10172000E02DBE016F5F7F4FC801099597FD04C092
:10173000F80100851185ECCF89810F90DF91CF9161
:101740001F910F910895615030F02091F100FC013C
:1017500020830196F8CF289884E680938402089528
:10176000AEE2B2E02FB7F8947D918D919C9166B571
:101770002FBFA89B05C06F3F18F47F5F8F4F9F4F0F
:1017800022E0660F771F881F991F2A95D1F70895C9
:10179000AF92BF92CF92DF92EF92FF920F931F937F
:1017A000CF93DF936C017B018B01040F151FEB01BD
:1017B0005E01AE18BF08C017D10759F06991D60174
:1017C000ED91FC910190F081E02DC6010995892BE6
:1017D00079F7C501DF91CF911F910F91FF90EF90A5
:1017E000DF90CF90BF90AF900895FC010E94B00BA6
:1017F000319728F068517C4F8F4F9F4FF9CFAB0145
:10180000FC010E94B00B641775078E079F07C8F391
:1018100008958F929F92AF92BF92CF92DF92EF92F4
:10182000FF920F931F93CF93DF936C017B018A018B
:1018300080910D01882309F45AC080918502882384
:1018400009F455C08091770280FF05C08091E000C7
:1018500082608093E000E801B12C8AEFA82E93E02B
:10186000892E2AE3922E209711F4BB20C9F10E9401
:10187000780A811108C0AA94AA20C9F181E090E0F9
:101880000E94F50BF0CF8C171D0611F00CF08C2F79
:101890009FB7F8948092E9002091E80025FD02C0EE
:1018A0009FBFE1CF282F30E0C21BD30BF70181503F
:1018B00020F041914093F100FACFE20EF31EBB20DD
:1018C00021F09092E800B12CEBCF8091E80085FDEB
:1018D000E7CF9092E800BB24B394209709F3F3CFAD
:1018E0005D9884E680937602101611063CF081E044
:1018F00090E0F6019383828310E000E0C801DF915D
:10190000CF911F910F91FF90EF90DF90CF90BF90FC
:10191000AF909F908F90089520918A06E09188065D
:10192000F0918906CF0102969093890680938806EC
:10193000222319F0859194910895808191810895D1
:10194000CF92DF92EF92FF92CF93DF930E948C0CA5
:10195000811520E8920791F4809171008D7F80932A
:1019600071001092910046985F9810922502DF91C5
:10197000CF91FF90EF90DF90CF90089521E02093DA
:101980002502813020E8920751F4809186069091DB
:10199000870690938906809388060E948C0C97FD99
:1019A00005C020912402222309F454C0209123026F
:1019B000211150C021E020932602EC01DF7720970F
:1019C00009F04BC081E08093270246983FE9C32E7F
:1019D0003FE0D32EE12CF12CCAEFD0E0E091E906F4
:1019E000F091EA060995811103C081E080932702F6
:1019F00080912602882329F080912702882309F408
:101A00003FC05F980E948C0C0097F1F19C01DE01B1
:101A10000E946B1ADC01CB0129E0B595A79597953B
:101A200087952A95D1F7109290002AE02093910093
:101A3000D0929900C0929800809328029093290236
:101A4000A0932A02B0932B02809171008260809350
:101A500071008DCF10922602B0CF9E0150E040E081
:101A600060E472E48FE090E00E94171A69017A0145
:101A700081E0C81AD108E108F10810922702AECF20
:101A80004699BFCF5F9ABECF8FEF9FEFDC01CBCFE0
:101A90009C01E1E7F0E090819D7F908310928A069F
:101AA000EBEDF6E0F0938906E0938806F093870665
:101AB000E0938606318320838AE090E093838283DB
:101AC00080E090E8958384830C94A00C0F9302E04F
:101AD0000E946A080F91089590E00C94F50B8FB165
:101AE0008095807F669B88601C9B846008955C98CD
:101AF0008EBD00000DB407FEFDCF5C9A089590E105
:101B0000282F81E061FD84E060FD880F62FD8295F1
:101B1000687F969FD0011124A20FAA57BD4F0C9049
:101B2000082A40FF08260C9208958F929F92AF9248
:101B3000BF92CF92DF92EF92FF920F931F93CF93BA
:101B4000DF936D3089F0C0906502D09066026A30F4
:101B5000D1F4109264021092630288E0C80ED11C86
:101B6000D0926602C092650281E090E0DF91CF9151
:101B70001F910F91FF90EF90DF90CF90BF90AF90AB
:101B80009F908F9008950091630210916402E5E0A8
:101B90006E9FE0011124CF58DE4F5801F12CF5E083
:101BA000E12CFF1629F0CE010196FE01E490EC0134
:101BB000912C812CF0E8AF16B10458F4B601680DF1
:101BC000791D6034710528F44E2D4170C5010E94C5
:101BD0007F0DE6948FEF881A980AE8E08E1691043C
:101BE00049F7F394FFEFAF1ABF0A86E0F812D7CF98
:101BF0000A5F1F4F1093640200936302B5CFCF9327
:101C0000C82F0E946F0D982F9C2381E09C1380E0C9
:101C1000CF91089580E00C94320A8F929F92AF92F8
:101C2000BF92CF92DF92EF92FF920F93CF93DF9309
:101C30005B01EC014C01840E911C6B01C20ED11CA6
:101C4000C815D905ECF47501B7FE02C0F12CE12CE2
:101C5000C60121E4C216D10414F080E490E0E81635
:101C6000F90664F4C038D10528F4402FB701CE013D
:101C70000E947F0D8FEFE81AF80AEACF2196E0CF95
:101C8000DF91CF910F91FF90EF90DF90CF90BF90B9
:101C9000AF909F908F9008950F93CF93DF93EC01B7
:101CA0009E816A3059F48D818C836985960F9E835D
:101CB00081E090E0DF91CF910F910895262F6A3354
:101CC00061F178F46E3279F140F4613251F1988526
:101CD0009D5F8C81890F8C83EBCF6033C0F32C5FC9
:101CE00009C06134A0F36B35D0F08FE9860F27541B
:101CF0008A3168F761E0690F062E000C770B8C8142
:101D0000082E000C990B3F810AEF313009F00BEFE0
:101D10004CEA50E00E946A08DACF20E4EBCF21546D
:101D2000E9CF2EE3E7CF2FE3E5CF80913B029091FF
:101D30003C026AE070E00E947A1A892BA9F4809133
:101D40006E02823058F58F5F80936E0280916D0233
:101D5000811127C081E080936D0280916B02811117
:101D600023C081E080936B0280E80E94FF0D8823EE
:101D7000F1F080913B0290913C0265E070E00E949E
:101D80007A1A892BD9F180914507909162029111BD
:101D90003BC08230D8F01092450718C010926E02F6
:101DA000D5CF10926D02D9CF10926B02DDCF80E1BA
:101DB0000E94FF0D8111DDCF80E20E94FF0D811195
:101DC000D8CF80E40E94FF0D8111D3CF20913B0238
:101DD00030913C0227703327E9EFF6E08AE02115C5
:101DE000310519F493859F5F93879385923008F0AE
:101DF000138681503D968111F2CF08958091450759
:101E00008F5F80934507BFCF843000F382E08093DB
:101E10004507DCCF089590E080E00895FB01019034
:101E20000020E9F73197AF01461B570BDC01ED911C
:101E3000FC910280F381E02D09948F929F92AF92E2
:101E4000BF92EF92FF920F931F93CF93DF93CDB783
:101E5000DEB7A1970FB6F894DEBF0FBECDBF7C01F1
:101E6000FA01CB0119A2223008F42AE08E010F5D9D
:101E70001F4F822E912CB12CA12CBF01A5019401E2
:101E80000E94491AF901CA016A300CF5605DD80157
:101E90006E938D01232B242B252B79F790E080E086
:101EA000109721F0BD01C7010E940E0FA1960FB639
:101EB000F894DEBF0FBECDBFDF91CF911F910F9180
:101EC000FF90EF90BF90AF909F908F900895695CC6
:101ED000DECF0C94011A1F920F920FB60F921124AD
:101EE0008F939F938091E1009091E100937F909375
:101EF000E10083FF0FC01092E90091E09093EB00A6
:101F00001092EC0092E39093ED001092850298E01D
:101F10009093F00082FF22C093E09093E9009091AB
:101F2000F200992319F09AE39093E80090917602D9
:101F3000992341F0909176029150909376029111FD
:101F400001C05D9A90918402992341F0909184029E
:101F5000915090938402911101C0289A84FF18C077
:101F60008091E2008E7E81608093E2008091E100AA
:101F70008F7E8093E100809177028E7E80618093D6
:101F800077029F918F910F900FBE0F901F90189521
:101F900080FFF7CF8091E2008E7E80618093E20027
:101FA0008091E1008E7E8093E100809177028E7EA9
:101FB0008160E5CF1F920F920FB60F921124CF923E
:101FC000DF92EF92FF920F931F932F933F934F93C4
:101FD0005F936F937F938F939F93AF93BF93EF9391
:101FE000FF93CF93DF93CDB7DEB76C97DEBFCDBF46
:101FF0001092E9008091E80083FF25C068E0CE01DF
:1020000045960E94A30B82EF8093E8008D8987FF9D
:1020100039C09091E80090FFFCCF982F907609F09E
:1020200034C19E894F89588D2F89F88C911131C008
:10203000803861F5809175028093F1001092F10073
:102040008EEF8093E8006C960FB6F894DEBF0FBE5B
:10205000CDBFDF91CF91FF91EF91BF91AF919F9154
:102060008F917F916F915F914F913F912F911F9130
:102070000F91FF90EF90DF90CF900F900FBE0F90D9
:102080001F9018959EEF9093E800C7CF1092F10033
:10209000D5CF913059F48111D3CF4130510581F61C
:1020A000809175028D7F80937502CACF933049F479
:1020B0008111C6CF4130510519F6809175028260B9
:1020C000F2CF953041F48091E80080FFFCCF20688A
:1020D0002093E300B5CF963009F0A9C00B8D1C8D7D
:1020E00022E01092E9001092730210927202F21232
:1020F0002EC010927102109270020E94720B1F8209
:1021000099E09983FA8291E09E8390EA98879AEF0A
:1021100099872091720230917302275F3F4F3C8371
:102120002B838D831092E900109273021092720239
:10213000109371020093700249E050E0BE016F5F9E
:102140007F4F80E00E944C0B0E94720B79CF10935E
:102150007102009370020E94890ADC0112960D91AF
:102160001C910115110509F451C1D801ED91FC91A3
:102170000480F581E02DBE016B5E7F4FC80109959B
:10218000009709F03EC1F80100851185EACFF3E020
:10219000FF120EC08F89882309F440C0823061F499
:1021A00040E867E08FE690E10E94B712811148CFC6
:1021B00081E28093EB0047CF813029F440E86BE067
:1021C00083E690E1F1CF833099F70E94890ADC0120
:1021D0001296ED90FC908E010F5F1F4F6801E11485
:1021E000F10479F0D701ED91FC910680F781E02DA3
:1021F000B801C7010995080F111DF701E084F184AA
:10220000EECFD8011C92F60101900020E9F731973A
:10221000BF016C197D0940E0C601C6CF6DE470E1D5
:10222000FB01449150E080E80E944C0B09CF9730AD
:1022300009F4BECF983021F481E08093F10000CF03
:10224000993009F0FDCE837009F0B2CFE3EDF1E0F3
:1022500081E031E096E32191222371F08093E9003F
:102260003093EB00DF0111972C912093EC009093B9
:10227000ED008F5F873079F78EE78093EA00109248
:10228000EA008F8980938502DBCE8B8D9C8D109226
:10229000E90010927302109272029093710280937F
:1022A0007002898D811192C08E899D89913A49F47D
:1022B000813209F07DCF47E050E066E071E080E0D8
:1022C000B3CF913209F074CF833269F48F89988D3E
:1022D000B0E0A0E08093020190930301A093040179
:1022E000B0930501ADCE803269F48091E80082FFA1
:1022F000FCCF67E086E091E00E94A30B8BEF809318
:10230000E8009ECE823209F09BCE8F8980930D012A
:10231000EEEFFFE7859194918B3F9C4D51F1E0E00A
:10232000F8E08091060190910701A0910801B09119
:102330000901803B9440A105B105F1F480910D01A4
:1023400080FD1AC0EE3F8AE0F80789F587E797E736
:1023500091838083809160008093740288E19BE088
:102360000FB6F894A895809360000FBE909360001C
:1023700067CEEEEFFAE0D5CF80819181873797471E
:1023800009F05ECEA895809160008861809360001E
:102390008091740280936000EE3F2AE0F20789F09A
:1023A0008091FE0A9091FF0A9183808349CE8081BB
:1023B00091818737980751F29093FF0A8093FE0A24
:1023C000C5CF1092FF0A1092FE0A3ACE0E94890AE7
:1023D000DC0112960D911C910115110509F4E8CE4E
:1023E000D801ED91FC910190F081E02DBE016B5E72
:1023F0007F4FC8010995811123CEF8010085118511
:10240000EBCF181619060CF41BCED2CEF1E0FF125A
:10241000BECE61E570E104CF0F920FB68F939F930C
:10242000EF93FF9380912D028D5F8D3708F08D57CC
:1024300080932D02E5E3F2E080818E4F80839181CD
:102440009F4F918382818F4F828383818F4F8383BC
:10245000EEE2F2E080818F5F808381818F4F818304
:1024600082818F4F828383818F4F83838FB18F606F
:1024700066991C9B88278F3681F480912C02981BCB
:10248000963068F0E0E0F8E087E78083818388E1B8
:1024900080936000F0936000FFCF90932C02FF9137
:1024A000EF919F918F910FBE0F9018951F920F92F1
:1024B0000FB60F9211242F933F934F935F936F9317
:1024C0007F938F939F93AF93BF93EF93FF938091ED
:1024D000280290912902A0912A02B0912B02892B07
:1024E0008A2B8B2B09F440C08091270281110BC0ED
:1024F00088B190E4892788B980912602882319F051
:102500008BB180588BB98091280290912902A091BB
:102510002A02B0912B02181619061A061B069CF403
:102520008091280290912902A0912A02B0912B0259
:102530000197A109B1098093280290932902A093E1
:102540002A02B0932B02FF91EF91BF91AF919F911F
:102550008F917F916F915F914F913F912F910F904C
:102560000FBE0F901F9018950E94A00CECCFEF9219
:10257000FF920F931F93CF93DF93F82E192FE62E20
:10258000042F81E0860F880F0E941E0B83E00E94BB
:102590001E0BCF2DD12FEC0EFD2EF11CCE15DF051D
:1025A000B9F007FF13C0FE0184910E941E0B182F83
:1025B00080E00E941E0B812321968111EFCFDF91D5
:1025C000CF911F910F91FF90EF9008958881EDCFEB
:1025D00081E0F5CF10928E0610928D0688EE93E082
:1025E000A0E0B0E080938F0690939006A0939106B0
:1025F000B09392068DED91E090938C0680938B06BC
:102600008FEF9FEF909398068093970682E38093D5
:102610004007109242071092430782E080934407DC
:102620001092450783E080934607E9EFF6E022E346
:1026300092E02683108611869287138684873D96C2
:1026400037E0EA33F307A9F71092F8061092F7067D
:102650008BEF91E09093F6068093F5061092EE06CC
:102660001092ED068FEE91E09093EC068093EB06CE
:1026700088E08093F40681E08093F3061092F006E0
:102680001092F1061092EF068093F20687E698E02A
:102690009093EA068093E90680E090E89093E8063C
:1026A0008093E70646983E9A5F98579A08957894E3
:1026B00083E084BD83E085BD81E080936E00E1E826
:1026C000F0E083E08083E0E881E08083E1E983E07B
:1026D0008083E0E981E08083E1EC87E08083E3ECC4
:1026E00081E08083E0EC82E08083E2EC81E0808323
:1026F000EAE787E0808380688083109285021092E9
:102700007502109277028091D70081608093D70084
:1027100080EA8093D80089B5806189BD89B58260DF
:1027200089BD09B400FEFDCF81E090E00E94F50B69
:102730008091D8008F7C80618093D8008091E000E8
:10274000807F8093E0008091E1008E7E8093E100A5
:102750008DE08093E200559A209A81EC80937C0072
:1027600081E785B987E684B985E38BB98FE38AB9B8
:10277000769A6E9880EF81BB10BA80E58CBD81E0BF
:102780008DBD85E00E946C0D599A85E00E946C0D0C
:102790005C98E1E2F7E085918EBD00000DB407FE84
:1027A000FDCFEB32C1F75C9A81E88093640081E051
:1027B000809365000E940A0E80E80E94FF0D882326
:1027C00081F085EA0E94770D2E9858982D98809177
:1027D000640080628093640081E083BF889513BEAB
:1027E000FCCF84E00E94FF0D882309F443C02D989C
:1027F00084E80E94FF0D8823D1F02D9A88EC0E9476
:102800006C0D589882E090E00E94011A8F3F29F0E9
:102810006FEF82E090E00E94091A84EF91E00E943D
:10282000F50B589A84E80E94FF0D8111FBCF84E1DB
:102830000E94FF0D8823D1F02D9A88EC0E946C0D28
:102840002E9882E090E00E94011A882329F060E02F
:1028500082E090E00E94091A84EF91E00E94F50B5B
:102860002E9A84E10E94FF0D8111FBCF88EC0E941B
:102870006C0DB7CF2D9A82E090E00E94690F8823FB
:1028800009F481C03E9A579A81E08093320281E038
:1028900090E00E94690F182F147081FF0CC0111175
:1028A0002E98C1EFDFEF80E40E94FF0D882309F42A
:1028B0006FC02E9A589A82E30E946C0D0E946F0D91
:1028C0008111F9CF80E1809300010E94250A1092C6
:1028D00066021092650210926402109263020E94D6
:1028E0000A0E22E632E06FE3E62E62E0F62E4FEFAC
:1028F0005FEF83E0D70111965C934E9314968C930F
:10290000149715968C93B7E0EB0EF11C2E153F052E
:1029100089F72DE237E0C9EFD6E089E08C838D831B
:1029200018862D962C173D07C9F780E490E0909308
:102930003B0780933A0780E290E090933D078093B5
:102940003C0788E080933E0780933F07109269021E
:102950001092680281E08093670222242A94322C2C
:1029600050E3452E512C612C712C80913302882329
:1029700009F4A8C01092330280E090E0892BA9F3FB
:102980000E940000F2CF109232023E9857987FCFFB
:10299000112329F0C430D10511F42E9A589881E002
:1029A0000E94320A0C2F0770A02EAE0173E05595DD
:1029B00047957A95E1F7CA019695982F88279795BC
:1029C00087958A579D4F70E060E04E3F2FEF52078A
:1029D00069F130E020E0DB01AF58B94F7C01E0E85D
:1029E000EE0EF11CFD01E20FF31FE491F0E04F0148
:1029F0000A2C02C0880C991C0A94E2F74F3F540736
:102A000039F06C01C20ED31EF601B488B828B48A1E
:102A1000AA2039F06701C20ED31EF60104890929E4
:102A2000048B2F5F3F4F28353105E1F64F5F5F4F35
:102A300080589F4F685A7F4F603B710531F60E9466
:102A40000A0E8FE00E946C0D2196C931D10509F064
:102A50002ACF112311F0589A2D9880E991E00E9415
:102A6000F50B2D9A81E090E00E94690F80FF23CF43
:102A70008AE090E00E94690F9FEF980F9E3F08F058
:102A80001ACF22E330E0309364022093630228E3FC
:102A900030E03093660220936502CBE0D0E0682FEF
:102AA00085EF96E00E94950DCE010E94690F219658
:102AB000C131D105A1F70E940A0E88EE93E00E9471
:102AC000F50BF9CE9091350280913402E92FE81B85
:102AD0008E2F20910001E21748F48F5F821708F0D3
:102AE0004BCF81E083BF889513BE46CF11E0109392
:102AF000330290933402EBE3F2E0808191810196FE
:102B0000808391830E94250A1092660210926502CA
:102B10001092640210926302D0903D02D0923E0265
:102B20000E946F0D082F80933D020E94950E8091A8
:102B30006F028D7F19F5D3FC21C003FF1FC083E016
:102B40008093460780E490E090933B0780933A0798
:102B500080E290E090933D0780933C0710926902D9
:102B600010926802109367021092010710920E07EC
:102B700010921B071092280710936F0280E80E94A2
:102B8000FF0D882389F080913C0790913D078B30A1
:102B9000910554F0019790933D0780933C07109264
:102BA000410781E08093620280E10E94FF0D88234B
:102BB00089F080913C0790913D078833910554F44A
:102BC000019690933D0780933C0782E080934107F4
:102BD0001092620280E20E94FF0D882379F08091BA
:102BE0003A0790913B071816190644F40197909301
:102BF0003B0780933A0783E08093410780E40E947B
:102C0000FF0D882379F080913A0790913B07883730
:102C1000910544F4019690933B0780933A0781E035
:102C20008093410788E00E94FF0D882399F08091EE
:102C30006C0281110FC0EFE3F2E090E080E02081B0
:102C400031812F3F3F4F09F41BC3019637968530E2
:102C50009105A9F780916F028130F1F030F0823058
:102C600009F4CEC20E940A0E87CE0E94950E2091D2
:102C70006E0249E65AE061E070E083E090E00E9475
:102C8000660D20916D0247EE58E06EE270E08EE036
:102C900090E00E94660DE6CFE9EFF6E0D12CC12C62
:102CA000808581118DC00E94A9192DE02C9D800185
:102CB0002D9D100D11240750194F20910101D801AD
:102CC0001C962C931C9721E018962C93A30192013B
:102CD0000E94171A70E0660F771FFB01EE58FE4F37
:102CE00080819181F801918380836E5E7E4FDB014C
:102CF0008D919C919383828329EFC22E26E0D22E60
:102D0000D60112966D917C91139703E01B962C913E
:102D10001B974BE257E08D919C910E946A08BDE0A1
:102D2000CB0ED11CCC15DD0559F780913B0290915B
:102D30003C026FE070E00E947A1A892B09F06BC0A8
:102D400080903A0790903B0700913C0710913D0717
:102D5000E9EFF6E0B12CA9EFB6E0A12CAB1409F431
:102D600051C0808191814D915C9111972481280FF0
:102D7000392F311D42175307ECF414962C911497F8
:102D8000420F511D84179507ACF44281538112966E
:102D90006D917C9113972581240F352F311D62177A
:102DA000730744F415962C911597620F711D461701
:102DB000570784F0881599050CF4DCC10197DBC135
:102DC000BFEFCB1ADB0A3D9604E0C016D10409F030
:102DD00067CF92CF0497918380838D919C911197B7
:102DE000049611969C938E9382819381049793838A
:102DF000828312968D919C911397049613969C93BF
:102E00008E931297A3941D9624E0A212A7CFB39499
:102E10003D96B212A0CF209141079FE3A92E92E0E8
:102E2000B92ED50116962C9316978D919C918F3FB4
:102E30009807C9F0213009F0ABC10196F5019183E3
:102E40008083F50180819181803891054CF4892B34
:102E500039F0828193818034910514F4892B19F41F
:102E6000D5012D923C92B7E0AB0EB11CAE14BF045D
:102E7000C1F68FE3882E82E0982EF4018081918143
:102E80008F3F980749F0D40112966D917C9101E033
:102E900023E043E00E940D0EB7E08B0E911CA814B6
:102EA000B90459F78091460784302CF4833009F037
:102EB0008DC110926A0280916C02882319F08150B2
:102EC00080936C0280914007882319F08150809391
:102ED000400760913C0770913D0703E02091450752
:102EE00045EA58E080913A0790913B070E946A08B2
:102EF00000E02AE040E870E060E090E080E00E94BE
:102F00000D0E01E021E040E86AE070E090E080E032
:102F10000E940D0E03E020916B024FE358E070E039
:102F200060E084E690E00E946A0802E028E04091B8
:102F30006A0270E060E084E690E00E940D0E09EF06
:102F400016E0F8018485181694F0809167028530A8
:102F500009F04CC190910101963018F49F5F909355
:102F60000101D80118961C928F5F80936702F801C7
:102F70004081518160913A0770913B072481240F71
:102F8000352F311D621773070CF068C080913E0722
:102F9000860F972F911D481759070CF05FC042818B
:102FA000538160913C0770913D072581240F352F97
:102FB000311D621773070CF051C080913F07860FD7
:102FC000972F911D481759070CF048C08091400772
:102FD000811144C08091390290913A0201969093F8
:102FE0003A0280933902F2E3F09340078BE092E0DB
:102FF0000E94480D87EA0E94770D64E170E080E04E
:1030000090E0AB01FC010E94B00B41505109E10975
:10301000F10928F068517C4F8F4F9F4FF6CFAB01DD
:10302000FC010E94B00B641775078E079F07C8F359
:1030300086EA0E94770D8091460718167CF481502D
:103040008093460780916802909169028B309105C8
:1030500028F00A97909369028093680230914007A4
:103060008091680290916902EFE3F2E025E031116E
:1030700036C060817181D801AD90BC9011974481B8
:10308000460F572F511DA416B5064CF514964C91BA
:10309000D501A40FB11D6A177B070CF5A280B38080
:1030A000D80112964D915C91139765816A0D7B2D25
:1030B000711D461757079CF415966C911597460F8E
:1030C000511DA416B5065CF401961C964C911C97F4
:1030D00014161CF441501C964C93318220822150CE
:1030E00037962111C4CF9093690280936802035FE1
:1030F0001F4F0C151D0509F024CF1092F0061092F9
:10310000EF061092F10663E072E08BEE96E00E940B
:103110000E0F8EE18093F0068093EF061092F10679
:10312000409168025091690270E060E02AE08BEE05
:1031300096E00E941D0F8AE38093F0068093EF06CD
:103140001092F1066CE072E08BEE96E00E940E0F9A
:1031500082E58093F0068093EF061092F10640918D
:10316000670250E070E060E02AE08BEE96E00E949B
:103170001D0F78CD01969183808382819381801782
:10318000910724F40196938382833CCE0197FBCF71
:10319000233029F40197D5018D939C9352CE2111B0
:1031A00007C0F5018281938101979383828349CE81
:1031B000223009F046CED50112968D919C9113973D
:1031C000019613969C938E9312973BCE823021F4F6
:1031D00089E080936A026FCE813011F481E1F9CFEA
:1031E000811169CE82E080936F0265CE8A3009F446
:1031F000B1CE8F3009F4AECE843109F4ABCEB1CE6E
:1032000020E04DE457E06FE070E084E090E00E9441
:10321000660D20916D0247EE58E063E270E08EE0AB
:1032200090E00E94660DE0E3F0E0F0936402E0932A
:10323000630224E330E0309366022093650264E188
:1032400072E085EF96E00E940E0F63E570E07093E8
:1032500064026093630284E390E09093660280933B
:10326000650280916802909169022AE0289FA0017E
:10327000299F500D112470E060E085EF96E077CF34
:1032800027E0289FF001299FF00D1124E15CFD4FFC
:1032900080913A0790913B079183808380913C070E
:1032A00090913D070396938382838CED93E00E9477
:1032B000480D8AE080936C02CDCC8F929F92AF92A2
:1032C000BF92CF92DF92EF92FF92CF93DF93EC0108
:1032D000688179818A819B816115710581059105DC
:1032E00021F464E279ED8BE597E02DE133EF41E0E5
:1032F00050E00E94171A49015A019B01AC01A7EA4C
:10330000B1E40E94361A6B017C01ACEEB4EFA5016A
:1033100094010E94441AC60ED71EE81EF91EF7FE3D
:1033200006C081E0C81AD108E10880E8F80AC8821E
:10333000D982EA82FB82C701B6019F77DF91CF91E4
:10334000FF90EF90DF90CF90BF90AF909F908F90C5
:1033500008958F929F92AF92BF92CF92DF92EF9299
:10336000FF9260910E0170910F0180911001909178
:103370001101611571058105910521F464E279ED72
:103380008BE597E02DE133EF41E050E00E94171A02
:1033900049015A019B01AC01A7EAB1E40E94361A27
:1033A0006B017C01ACEEB4EFA50194010E94441ABC
:1033B000C60ED71EE81EF91EF7FE06C081E0C81A29
:1033C000D108E10880E8F80AC0920E01D0920F01FE
:1033D000E0921001F0921101C701B6019F77FF90B2
:1033E000EF90DF90CF90BF90AF909F908F90089517
:1033F00060930E0170930F0180931001909311015F
:103400000895F999FECF92BD81BDF89A992780B5AC
:103410000895262FF999FECF1FBA92BD81BD20BD18
:103420000FB6F894FA9AF99A0FBE01960895052EF0
:1034300097FB1EF400940E942E1A57FD07D00E949D
:10344000491A07FC03D04EF40C942E1A509540955F
:10345000309521953F4F4F4F5F4F08959095809540
:10346000709561957F4F8F4F9F4F08950E946B1A03
:10347000A59F900DB49F900DA49F800D911D1124C8
:103480000895B7FF0C94361A0E94361A821B930BCC
:103490000895A1E21A2EAA1BBB1BFD010DC0AA1F95
:1034A000BB1FEE1FFF1FA217B307E407F50720F0AD
:1034B000A21BB30BE40BF50B661F771F881F991F28
:1034C0001A9469F760957095809590959B01AC0171
:1034D000BD01CF010895A29FB001B39FC001A39F7A
:1034E000700D811D1124911DB29F700D811D11243D
:1034F000911D0895AA1BBB1B51E107C0AA1FBB1F4A
:10350000A617B70710F0A61BB70B881F991F5A956F
:10351000A9F780959095BC01CD010895EE0FFF1F8E
:0C3520000590F491E02D0994F894FFCF81
:10352C001003FFFFFFFF00E100000000000001009E
:10353C000000F8FFF8FFF8FFF8FFF8FFF8FFF8FFBE
:10354C00F8FFF8FFF8FFF8FFF8FFF8FFF8FFF8FFB7
:10355C00F8FFF8FF080010001800200028003000C9
:10356C003800400040004000400040004000400057
:10357C00400040004000400040004000400040003F
:10358C0040004000380030002800200018001000D7
:10359C00080000000800100018002000280030006F
:1035AC00380040004800500058006000680070006F
:1035BC0078008000820082008200820082008200FB
:1035CC008200800078007000680060005800500095
:1035DC00480040003800300028002000180010007F
:1035EC0008000000F8FFF8FFF8FFF8FFF8FFF8FFFD
:1035FC00F8FF00C18081000000000000009D0A0956
:10360C000CBE0AB30A040BC20AE00A000000004C0C
:10361C000EC80B0B0F0A0F00000000950DC80B0B0A
:10362C000F0A0F506F696E74733A20004C65766503
:0C363C006C3A200053636F72653A200066
:00000001FF
